:1000000000308A00C728000041342F34443495342E
:10001000CF348A34B7348234CC3492346C340D34D7
:1000200025346C3464340A3400342430840083135F
:100030000008031928280630F800F701F70B1E28DE
:10004000F80B1D287B30F700F70B2428800B1B28AA
:100050008A110A12FB28831603178C170C14000050
:10006000000083120D080313A50003170F080313E4
:10007000A60003170C0803130C1E3C289900250842
:1000800003178D000313260803178F008D0A031929
:100090008F0A0313A40B2B288A110A121429AC010E
:1000A0000408AB002C10831B2C14A51F5F28AB1772
:1000B0002B1EAB0AA409A509A40A0319A50A250E3B
:1000C000F038A700A707E23EA800323EAA002508A4
:1000D0000F39A807A807AA07E93EA900A907A90799
:1000E000240E0F39A907AA07A90DAA0DAA09AA0D5E
:1000F00024080F39AA07A70D0730A6000A30AA075F
:10010000A903031C7F28A907A803031C8328A807A9
:10011000A703031C8728A707A603031C8B282630E8
:100120008400831307302B052B1384032B05031D39
:10013000A0282B1A840A2B1AA0282030F700BD28EB
:1001400084072A30040203192B170008F700031D47
:10015000B1282B1BB1282B1AC128AB19B12820308C
:10016000BC28AB1FB9282D30F70084032B13AB1329
:10017000BD28AB152B123030F70777080C1EBE28B0
:100180009900840A2B1FA1288A110A121B298401B5
:1001900083131F308305813083169900A6309800A1
:1001A00090308312980083161F149F141F159F11FF
:1001B00007309C008312A001A101A301A20101301C
:1001C000831685000030860080308700003088006C
:1001D0000910891009111F109F101F119F111F1363
:1001E00083121F179F1783169F1383121F14071064
:1001F0001E30A40015280030F8001F08C739780405
:100200009F005330F700F70B03291F151F1906290C
:10021000A3011E08A200043003178D0000308F00D8
:100220000C300313A4002B28103084002308A500F1
:100230002208A4004F280A300C1E1C299900FB2814
:060240000030F80063002D
:02400E00723FFF
:00000001FF
;PIC16F877A
;CRC=5777  CREATED="08-9-12 14:29"
