:020000040000FA
:0600000001EF02F0120006
:020006001200E6
:0600080033EF00F01200CE
:02000E000405E7
:060018008AEF00F0120067
:02001E000100DF
:0C0020000E0000006A000000020000005A
:04002C009368946AD7
:100030008268D70EE66EC5EC01F0E552B50EE66EAD
:10004000A4EC01F0E552D08E9F90F288F19CF09CD8
:10005000F086F19AF09EF088F198F190F286F28E97
:10006000F28CFFD71200DACFE4FFE2CFDAFFE9CF5C
:10007000E4FFEACFE4FFF6CFE4FFF7CFE4FFF5CFEC
:10008000E4FFF3CFE4FFF4CFE4FFFACFE4FF00EEA8
:1000900000F0020EE80403E3EECFE4FFFBD700EE2E
:1000A00002F0020EE80403E3EECFE4FFFBD7E652D2
:1000B000F29EF2B4C3D89EB0CDD8F2B2D7D8F0B089
:1000C000D8D8F0B2D9D8F2B0DAD8F28EE55200EE34
:1000D00003F0020EE80403E3E5CFEDFFFBD700EEEB
:1000E00001F0020EE80403E3E5CFEDFFFBD7E5CF17
:1000F000FAFFE5CFF4FFE5CFF3FFE5CFF5FFE5CF5E
:10010000F7FFE5CFF6FFE5CFEAFFE5CFE9FFE5CF63
:10011000DAFF1100D8CFE4FFE0CFE4FFE46EDACFDE
:10012000E4FFE2CFDAFFE9CFE4FFEACFE4FFF6CF66
:10013000E4FFF7CFE4FFF5CFE4FFF3CFE4FFF4CF24
:10014000E4FFFACFE4FF00EE00F0020EE80403E360
:10015000EECFE4FFFBD700EE02F0020EE80403E36B
:10016000EECFE4FFFBD7E652F29CF2B467D89EB024
:1001700071D8F2B27BD8F0B07CD8F0B27DD8F2B0B2
:100180007ED8E55200EE03F0020EE80403E3E5CF6B
:10019000EDFFFBD700EE01F0020EE80403E3E5CF2C
:1001A000EDFFFBD7E5CFFAFFE5CFF4FFE5CFF3FF97
:1001B000E5CFF5FFE5CFF7FFE5CFF6FFE5CFEAFFA7
:1001C000E5CFE9FFE5CFDAFFE550E5CFE0FFE5CF8A
:1001D000D8FF1000D9CFE6FFE1CFD9FFFD0EDBCF6E
:1001E00002F0DB06FE0EDBCF03F001E2DB0602507D
:1001F000031006E00C0EE66EE1EC01F0E552EED7DE
:10020000E552E7CFD9FF1200D9CFE6FFE1CFD9FF02
:10021000FD0EDBCF02F0DB06FE0EDBCF03F001E2CA
:10022000DB060250031006E00C0EE66E0FEC02F047
:10023000E552EED7E552E7CFD9FF1200F294000164
:100240006A0707E1040E6A6F82A202D0829201D08F
:10025000828212009E9000016B0707E1050E6B6F12
:1002600082A402D0829401D082841200F292829001
:100270001200F09082921200F09282941200D9CF74
:10028000E6FFE1CFD9FF020EE126DE6ADD6A81508A
:10029000DE6EDD6AF290020EE15C02E2E16AE55296
:0A02A000E16EE552E7CFD9FF12002E
:0602AA001E0EF66E000EB0
:1002B000F76E000EF86E00010900F550656F090039
:1002C000F550666F03E1656701D03DD00900F55038
:1002D000606F0900F550616F0900F550626F090009
:1002E0000900F550E96E0900F550EA6E09000900B1
:1002F0000900F550636F0900F550646F09000900AB
:10030000F6CF67F0F7CF68F0F8CF69F060C0F6FF7E
:1003100061C0F7FF62C0F8FF0001635302E164535C
:1003200007E00900F550EE6E6307F8E26407F9D7BD
:1003300067C0F6FF68C0F7FF69C0F8FF00016507F6
:08034000000E665BBFD712003E
:08034800D9CFE6FFDACFE6FF92
:10035000E1CFD9FFE2CFDAFFFD0EDB507E0BCD6E91
:10036000FD0EDBAC02D0CD8E01D0CD9ECF6ACE6A21
:100370009E90DBAE02D09D8001D09D90CD80E55255
:0A038000E5CFDAFFE7CFD9FF120046
:06038A00D9CFE6FFDACF37
:10039000E6FFE1CFD9FFE2CFDAFFFD0EDB507F0BA6
:1003A000D56ED76AD66AF294FD0EDBAE02D0F28A21
:1003B00001D0F29AD58EE552E5CFDAFFE7CFD9FF2B
:0203C000120029
:0E03C200FF0EE350046E480E01D04C0EE76EA5
:1003D000E72EFED7E76AE72EFED7042EF7D70000F8
:0203E000120009
:0E03E200000EF36E00EE00F0080E01D81200BF
:1003F000EA6002D0EE6AFCD7F350E9601200EE6AC0
:02040000FCD727
:0E04020013EE00F023EE00F0F86A019C55ECBA
:0E04100001F003EC00F016EC00F0FBD7120038
:02041E00FF0ECF
:10042000E350E84E1200000000D000D000D0E82ECB
:04043000FAD71200E5
:020000040030CA
:0100000024DB
:010001000EF0
:010002003FBE
:010003001EDE
:010005008179
:010006008178
:010008000FE8
:01000900C036
:01000A000FE6
:01000B00E014
:01000C000FE4
:01000D0040B2
:00000001FF
