:1000000000308A003E280000FF00030E8301A1009B
:100010000A08A0008A010408A2007708A300780853
:10002000A4007908A5007A08A6007B08A70083131E
:1000300083128C308400001C1F280C1832282208E0
:1000400084002308F7002408F8002508F900260892
:10005000FA002708FB0020088A00210E8300FF0E0B
:100060007F0E09008A110A1235280B308F00DB3011
:100070008E00A80A0C108A110A121F2884011F3052
:100080008305063083169F00073083129F00A80166
:10009000A901FF30831685008600F030870000300C
:1000A0008800091489140915831207110C30970070
:1000B00087109D000030F80006389200FF3083164C
:1000C000920083120710B530900083160C14C030D4
:1000D00083128B0428080A3C031D7128A8010130F3
:0600E00087066A28630098
:02400E00723FFF
:00000001FF
;PIC16F877A
