:1000000000308A000428000084011F308305063078
:1000100083169F00073083129F00003083168500EF
:10002000C03086000030870088000910891009114F
:1000300083128501860187018801890107110C302F
:10004000970087109D000030F80006389200FF30BE
:100050008316920000308312861B0130013C031D81
:1000600045280030061B0130003A031D4528C830E2
:1000700095001708CF399700C8309B001D08CF396D
:100080009D0086140610871170280030861B0130F1
:10009000003A031D5F280030061B0130003A031DA3
:1000A0005F287D3095001708CF3997007D309B0081
:1000B0001D08CF399D000614861087157028003062
:1000C000061B0130013C031D702895011708CF392C
:1000D00097009B011D08CF399D00061486148715D3
:0600E00083162A286300CC
:02400E007A3FF7
:00000001FF
;PIC16F877A
