:020000040000FA
:020000006F2867
:040002000034003492
:08000800A0000308A1008B1801
:1000100035200B1817200C1E37208C1A46200C1B7D
:1000200067208C1B6B20210883002008090006082C
:10003000001A3128801A3228001B3328801B3428EC
:10004000C0200A309900C02052309900C0204230B0
:100050009900C0200D30990003138312FE308B05E8
:1000600008001A281C281E2820288B1008000313BB
:100070008312C0200A309900C02055309900C0205A
:100080000D309900031383120C120800031383121E
:100090008711C0200A309900C02052309900C0203A
:1000A00045309900C02043309900C0204930990064
:1000B00056309900C02045309900C0201A08990098
:1000C000C0200D309900031383128C120800031313
:1000D00083120C130800031383128C13080083137C
:1000E00003138316803087008501A13086008801C4
:1000F0008901031383128501880189010313831683
:10010000203098002030990003138312903098001B
:100110008B130B170B120313831601170313831290
:100120008B11031383160C1203138312031383160C
:100130008C1203138312031383160C1303138312FD
:10014000031383168C1303138312031383120A30D1
:100150009900C020C02053309900C020543099002D
:10016000C02041309900C02052309900C020543046
:1001700099000D3099008B178B1587150000BD284D
:1001800003138316981CC228031383120800A5309A
:10019000A200A20BC9280800C720C720C720C7207B
:1001A000C720031383129C30A200A20BD52808009D
:0E01B000000000000000000000000000080039
:02400E00B23FBF
:00000001FF
