:020000040000FA
:06000000D7EF01F0120031
:0A00060000EE00F00E0EEE6AEA6252
:04001000FDD7120006
:020014001200D8
:060018001CEF00F01200D5
:02001E000200DE
:10002000CE030000140F000004000000CA0300000B
:08003000100F000004000000A5
:08003800D8CFE4FFE0CFE4FFA4
:10004000E46EDACFE4FFE2CFDAFFE9CFE4FFEACFF4
:10005000E4FFF6CFE4FFF7CFE4FFF8CFE4FFF5CFFE
:10006000E4FFF3CFE4FFF4CFE4FFFACFE4FFFBCFEC
:10007000E4FF00EE00F0100EE80403E3EECFE4FF2F
:10008000FBD700EE10F0040EE80403E3EECFE4FF2C
:10009000FBD7E6525AEC01F0E55200EE13F0040EE5
:1000A000E80403E3E5CFEDFFFBD700EE0FF0100E01
:1000B000E80403E3E5CFEDFFFBD7E5CFFBFFE5CF9A
:1000C000FAFFE5CFF4FFE5CFF3FFE5CFF5FFE5CF8E
:1000D000F8FFE5CFF7FFE5CFF6FFE5CFEAFFE5CF85
:1000E000E9FFE5CFDAFFE550E5CFE0FFE5CFD8FF48
:1000F0001000D9CFE6FFE1CFD9FFE6522BD8C4ECF0
:1001000000F0DFEC00F00F011451045C106E15518B
:100110000558116E16510658126E17510758136E76
:10012000790E105C4F0E1158000E1258000E135825
:100130000BE3DFEC00F004C014FF05C015FF06C0A0
:1001400016FF07C017FF8474DCD7E552E552E7CFEE
:10015000D9FF1200969496969698969A84948496CF
:100160008498849A400E9B6E0D0EC26E0B0EC16E6B
:10017000BE0EC06EF19ED08EF28EF28CC28EC28206
:08018000C2B2FED7C29E1200BC
:08018800D76AD66AF194F294E3
:10019000F28A870ED56E1200F28A0000F29AD6CF4C
:1001A0000AFFD7CF0BFF10CF0CFF11CF0DFF12CFDF
:1001B0000EFF13CF0FFFF2B4EFD7F28A1200ECDF7D
:1001C0000ACF04F00BCF05F00CCF06F00DCF07F0EF
:1001D00000D01200D9CFE6FFE1CFD9FF040EE1260F
:1001E000DBDF0BCFDFFF010E0CCFDBFF020E0DCFED
:1001F000DBFF030E0ECFDBFFDECF04F0DECF05F01A
:10020000DECF06F0DDCF07F0DD52DD52040EE15CFB
:1002100003E200D0E16AE552E16EE552E7CFD9FF93
:100220001200D9CFE6FFE1CFD9FF040EE126B4DFFB
:100230000CCFDFFF010E0DCFDBFF020E0ECFDBFF79
:10024000030E0FCFDBFFDECF04F0DECF05F0DECFF5
:1002500006F0DDCF07F0DD52DD52040EE15C03E273
:1002600000D0E16AE552E16EE552E7CFD9FF120016
:10027000D9CFE6FFE1CFD9FFFB0EDBCF04F0FC0EB8
:10028000DBCF05F0FD0EDBCF06F0FE0EDBCF07F077
:10029000140E0426000E052206220722280E096EDF
:1002A0000A6A0B6A0C6AB3EC01F000D0E552E7CFA2
:1002B000D9FF1200F2A407D00F01102B000E11235A
:0802C00012231323F294120033
:0802C8001E0EF66E000EF76E2B
:1002D000000EF86E0F010900F550056F0900F5508A
:1002E000066F03E1056701D03DD00900F550006FAE
:1002F0000900F550016F0900F550026F090009006F
:10030000F550E96E0900F550EA6E09000900090090
:10031000F550036F0900F550046F09000900F6CF8E
:1003200007FFF7CF08FFF8CF09FF00CFF6FF01CF97
:10033000F7FF02CFF8FF0F01035302E1045307E078
:100340000900F550EE6E0307F8E20407F9D707CF6E
:10035000F6FF08CFF7FF09CFF8FF0F010507000EE2
:06036000065BBFD712008E
:0A036600036A026A016A006A200EB1
:10037000E76ED89004360536063607360036013665
:10038000023603360950005C0A5001580B500258DF
:100390000C50035809E30950005E0A50015A0B50F3
:0E03A000025A0C50035A042AE72EE4D712002A
:0203AE001DEE42
:1003B00000F02DEE00F0F86A0F9C64EC01F00AECFE
:0A03C00000F079EC00F0FBD712000A
:0403CA00000000002F
:0203CE0000002D
:0203D00000002B
:020000040001F9
:01FFF800A068
:01FFFA00C541
:01FFFD00F70C
:00000001FF
