:020000040000FA
:06000000CCEF59F01200E4
:020006001200E6
:06000800C7EF46F01200F4
:02000E000004EC
:04001000A3006243A4
:020014000100E9
:02001600FFFFEA
:060018006AEF46F0120041
:02001E000900D7
:10002000F5B300006C0E000001000000F1B3000009
:10003000630E000004000000EFB30000690E000032
:100040000200000077B300006B0E0000010000000A
:10005000DEB300004D0F000011000000DCB3000013
:10006000670E000002000000D8B300005F0E000021
:100070000400000016000000FD0200000200000065
:0C008000140000005E0F000002000000F1
:04008C00D9CFE6FFE3
:10009000E1CFD9FFFE0EDB500E01675D01E141D0DB
:1000A000FE0E675D1BE01C0EE66EE66A250EE66E30
:1000B0000F0EE66E67511C0DF3CF14F0F4CF15F060
:1000C000000E1426010E152214C0E6FF15C0E6FF2F
:1000D00090EC56F0166E060EE15E1650FE0EDBCF6B
:1000E00067FEDB50FE0801E11CD01C0EE66EE66ADE
:1000F000FE0EDB501C0DF3CF14F0F4CF15F0000E04
:100100001426010E152214C0E6FF15C0E6FF250EC9
:10011000E66E0F0EE66E90EC56F0166E060EE15E81
:100120001650E552E7CFD9FF12000E016751685D06
:1001300001E170D0FE0E685D35E0250EE66EE66AE0
:10014000010EE66E000EE66E0F0EE66E68511C0D97
:10015000F3CFE9FFF4CFEAFF000EE926010EEA2211
:100160001B0EE926000EEA22EF50E66E68511C0DC8
:10017000F3CFE9FFF4CFEAFF000EE926010EEA22F1
:10018000EECF14F0EFCF15F0250E145E000E155AC9
:1001900014C0E6FF15C0E6FF65EC29F0166E080EE8
:1001A000E15E165067CE68FE250EE66EE66A0E0129
:1001B00068511C0DF3CFE9FFF4CFEAFF000EE926EA
:1001C000010EEA221B0EE926000EEA22EF50E66E2F
:1001D00067511C0DF3CFE9FFF4CFEAFF000EE926CB
:1001E000010EEA22EECF14F0EFCF15F0250E145ECB
:1001F000000E155A14C0E6FF15C0E6FF010EE66EAC
:10020000000EE66E0F0EE66E65EC29F0166E080E17
:10021000E15E16501200D9CFE6FFE1CFD9FF0B0EF9
:10022000E126D10EF36E090EF3CFDBFF140EF36E51
:100230000A0EF3CFDBFF3C0EE66EE66AE66AC10EFD
:10024000E66E020EE66EDEEC56F0146E050EE15E12
:100250001450010EDB6ADF6ADF50146E156A090E56
:10026000145C000E155801E33ED1DFCFE6FF0EDF30
:10027000E5525BDFEC0E146EB20E156E000E166EBC
:10028000DFCF17F0186A196A060E0C6E0D6A0E6A37
:1002900017C007F018C008F019C009F0BAEC58F000
:1002A00004C017F005C018F006C019F01450172448
:1002B000F36E15501820F46E16501920F86EF4CF16
:1002C000F7FFF3CFF6FFF62A000EF722F822080018
:1002D000080EF5CFDBFFEC0E146EB20E156E000E9D
:1002E000166EDFCF17F0186A196A060E0C6E0D6ACB
:1002F0000E6A17C007F018C008F019C009F0BAEC70
:1003000058F004C017F005C018F006C019F01450DA
:100310001724F36E15501820F46E16501920F86E3D
:10032000F4CFF7FFF3CFF6FF020EF626000EF7220A
:10033000F8220900020EF5CFDBFF0A00030EF5CF0D
:10034000DBFFEC0E146EB20E156E000E166EDFCFD4
:1003500017F0186A196A060E0C6E0D6A0E6A17C03D
:1003600007F018C008F019C009F0BAEC58F004C042
:1003700017F005C018F006C019F014501724F36EDA
:1003800015501820F46E16501920F86EF4CFF7FFB0
:10039000F3CFF6FF040EF626000EF722F82209002E
:1003A000040EF5CFDBFF0A00050EF5CFDBFF080ECC
:1003B000DB5001E097D0090EDBCF08F00A0EDBCF4F
:1003C00009F0060E08C0DBFF070E09C0DBFF020EB6
:1003D000DBCF16F0030EDBCF17F0250E1626000E2E
:1003E0001722010E1626000E1722040EDB501624CB
:1003F000146E050EDB501720156E010E1426000E2C
:100400001522D950090FE96EDACFEAFF1450EE2613
:100410001550ED22090EDBCF14F00A0EDBCF15F0DC
:10042000166A176AD880000E1454200E1554000E58
:100430001654000E175401E2EDD7EC0E146EB20EF6
:10044000156E000E166EDFCF17F0186A196A060EC9
:100450000C6E0D6A0E6A17C007F018C008F019C0BC
:1004600009F0BAEC58F004C017F005C018F006C047
:1004700019F014501724F36E15501820F46E16500E
:100480001920F86EF4CFF7FFF3CFF6FF0800F5CF91
:1004900024FF080EDBCF40FF060EDBCF25FF070E43
:1004A000DBCF26FF250E0F012527000E2623020E87
:1004B000DB502525276F030EDB502621286F010E08
:1004C0002727000E2823040EDB502725296F050E51
:1004D000DB5028212A6F0D0E3B6F3C97C2EC1DF0BC
:1004E000DF2ABAD6FFD70B0EE15C02E2E16AE552E1
:1004F000E16EE552E7CFD9FF1200D9CFE6FFE1CF99
:10050000D9FFE652DF6ADF50146E156A090E145CDB
:10051000000E155828E2DFCFE6FFB8DDE5520D0EDC
:100520000F013B5D01E01DD000DEF70EDB500F0137
:10053000245D01E016D0FA0EDB5011E1F80EDBCF9E
:1005400010FFF90EDBCF11FF3C87040E3B6FF80E56
:10055000DBCF3EFFF90EDBCF3FFFDF5006D0FE0EB4
:1005600004D0DF2AD0D7FE0E00D0E552E552E7CF07
:10057000D9FF1200D9CFE6FFE1CFD9FFFE0EDBCFC6
:10058000E6FF84DDE5520F013DA903D03D99010E40
:1005900002D0000E00D0E552E7CFD9FF1200D9CF2C
:1005A000E6FFE1CFD9FFFE0EDBCFE6FF6FDDE552C0
:1005B000070E0F013B5D02E0000E01D0010E00D0DE
:1005C000E552E7CFD9FF1200D9CFE6FFE1CFD9FF3F
:1005D000FE0EDBCFE6FF5ADDE5522FCF31FF30CFE5
:1005E00032FF0F013B51080A2DE0010A2BE0050AFA
:1005F00029E0020A24E0050A16E00D0A08E0010AD3
:1006000006E0020A01E01ED0C2EC1DF025D0010E6A
:10061000E66E110EE66E15EC15F0E552E5520F018F
:10062000080E3B6F19D0010EE66E110EE66E15EC4A
:1006300015F0E552E5520F010C0E3B6F0DD00D0E7B
:100640003B6F0AD0E66A140EE66E15EC15F0E55223
:10065000E552C2EC1DF000D0E552E7CFD9FF120001
:10066000D9CFE6FFE1CFD9FF60DD0A0EE66EE66A7C
:10067000160EE66E0F0EE66E410EE66E0F0EE66E7D
:1006800090EC56F0146E060EE15E14500ECF4BFF48
:100690000FCF4CFF410E146E0F0E156E14C0F3FFFA
:1006A00015C0F4FF00D0E552E7CFD9FF1200D9CF33
:1006B000E6FFE1CFD9FFFE0EDBCFE6FFE7DCE55238
:1006C00034DD0F010C512B1902E10D512C1908E0FA
:1006D000010EE66E100EE66E15EC15F0E552E552D1
:1006E000E552E7CFD9FF1200D9CFE6FFE1CFD9FF1E
:1006F000E652FE0EDBCFE6FFC9DCE5523BCFDFFF63
:10070000070EDF5C06E00B0EDF5C03E0F36AF46AC1
:100710002FD00F012D512B5D2E512C591BE325514C
:10072000275D166E28512655176E1606000E175AAD
:100730002D512B5D186E2C512E55196E1850165CCC
:10074000146E19501758156E14C0F3FF15C0F4FF3E
:100750000FD00ED02B512D5D146E2E512C55156ED1
:100760001406000E155A14C0F3FF15C0F4FF00D094
:10077000E552E552E7CFD9FF1200D9CFE6FFE1CF2E
:10078000D9FF020EE126FE0EDBCFE6FF7FDCE5524D
:10079000FE0EDBCFE6FFA8DFE552F3CFDEFFF4CF9E
:1007A000DDFFD9CFE9FFDACFEAFFEE50ED1003E12C
:1007B000000E75D00ED0D9CFE9FFDACFEAFF010ED7
:1007C000EE1801E1ED5005E1FE0EDBCFE6FF6FDF35
:1007D000E5520F013D51010B19E1DECF14F0DDCFE1
:1007E00015F02551275D166E28512655176ED890A5
:1007F000173216321450165C1550175807E3FE0EC8
:10080000DBCFE6FF54DFE5520F013D81010EE66EBE
:10081000E66AE66ED950FD0FE66EFF0EDA20E66E50
:1008200040CFE6FF2BCFE6FF2CCFE6FF65EC29F0AB
:10083000146E080EE15E14500F012B2B000E2C23BA
:1008400027512B5D28512C5904E325CF2BFF26CFB0
:100850002CFFD9CFE9FFDACFEAFF010EEE1801E154
:10086000ED5006E1FE0EDBCFE6FF21DFE55215D0AD
:100870003CBB13D03C8B22EC58F006C014F007C0F0
:1008800015F0166A176A060E1426000E1522162297
:10089000172214C037FF15C038FF010E00D0146EA8
:1008A000020EE15C02E2E16AE552E16E1450E552AB
:1008B000E7CFD9FF1200D9CFE6FFE1CFD9FF060E6F
:1008C000E126040EDB6A050EDB6AFE0EDBCFE6FFD7
:1008D00046EC00F0E552FE0EDBCFE6FF05DFE55209
:1008E000020EF3CFDBFF030EF4CFDBFFD950020F74
:1008F000E96EDACFEAFFEE50ED1008E1FE0EDBCF35
:10090000E6FFD5DEE552F36AF46AEED0020EDBCFE5
:10091000DEFFDBCFDDFFDBCF14F0030EDBCF15F006
:10092000FA0EDBCF16F0FB0EDBCF17F01450165C7F
:100930001550175805E2FA0EDBCFDEFFDBCFDDFFE7
:100940000F013D51010B1BE1020EDBCF14F0030E32
:10095000DBCF15F02551275D166E28512655176EF1
:10096000D890173216321450165C1550175807E3FA
:10097000FE0EDBCFE6FF9BDEE5520F013D81DE5030
:100980002B250001146EDD500F012C210001156E86
:100990000F012751145C2851155848E32B51275D4E
:1009A000146E28512C55156E040E14C0DBFF050E75
:1009B00015C0DBFF040EDBCFE6FF050EDBCFE6FF45
:1009C000010EE66EFC0EDBCFE6FFFD0EDBCFE6FF91
:1009D00040CFE6FF2BCFE6FF2CCFE6FF65EC29F0FA
:1009E000146E080EE15E1450040EDBCF14F0050EF9
:1009F000DBCF15F0D950FC0FE96EFF0EDA20EA6E5E
:100A00001450EE261550ED22040EDBCF14F0050E27
:100A1000DBCF15F0D9CFE9FFDACFEAFF1450EE5E55
:100A20001550ED5A25CF2BFF26CF2CFFDECFE6FF4A
:100A3000DDCFE6FF010EE66EFC0EDBCFE6FFFD0E1E
:100A4000DBCFE6FF40CFE6FF2BCFE6FF2CCFE6FF64
:100A500065EC29F0146E080EE15E1450D9CFE9FF61
:100A6000DACFEAFFEE500F012B27EE502C23020EB7
:100A7000DBCF14F0030EDBCF15F0FA0EDBCF16F050
:100A8000FB0EDBCF17F01450165C1550175806E319
:100A9000FE0EDBCFE6FF0BDEE55215D03CBB13D0DC
:100AA0003C8B22EC58F006C014F007C015F0166A13
:100AB000176A060E1426000E15221622172214C0DD
:100AC00037FF15C038FF040EDBCF16F0050EDBCF65
:100AD00017F0DE501624146EDD501720156E14C06A
:100AE000F3FF15C0F4FF00D0060EE15C02E2E16AFC
:100AF000E552E16EE552E7CFD9FF1200D9CFE6FF0C
:100B0000E1CFD9FF060EE126040EDB6A050EDB6A93
:100B1000FE0EDBCFE6FF46EC00F0E552FE0EDBCF2B
:100B2000E6FFE2DDE552020EF3CFDBFF030EF4CF6A
:100B3000DBFFD950020FE96EDACFEAFFEE50ED107D
:100B400008E1FE0EDBCFE6FFB2DDE552F36AF46AA0
:100B5000F3D00F013D51010B1BE1020EDBCF14F06E
:100B6000030EDBCF15F02551275D166E2851265553
:100B7000176ED890173216321450165C155017584D
:100B800007E3FE0EDBCFE6FF92DDE5520F013D816C
:100B9000020EDBCFDEFFDBCFDDFFDBCF14F0030E79
:100BA000DBCF15F0F90EDBCF16F0FA0EDBCF17F026
:100BB0001450165C1550175805E2F90EDBCFDEFF16
:100BC000DBCFDDFFDE502B250001146EDD500F0161
:100BD0002C210001156E0F012751145C2851155866
:100BE0004CE32B51275D146E28512C55156E040EC5
:100BF00014C0DBFF050E15C0DBFF040EDBCFE6FFE4
:100C0000050EDBCFE6FFFB0EDBCFE6FFFC0EDBCFF6
:100C1000E6FFFD0EDBCFE6FF40CFE6FF2BCFE6FF82
:100C20002CCFE6FF06EC2AF0146E080EE15E14509D
:100C3000040EDBCF14F0050EDBCF15F0166AD95089
:100C4000FB0FE96EFF0EDA20EA6E1450EE26155007
:100C5000EE221650EE22040EDBCF14F0050EDBCF91
:100C600015F0D9CFE9FFDACFEAFF1450EE5E155048
:100C7000ED5A25CF2BFF26CF2CFFDECFE6FFDDCFB1
:100C8000E6FFFB0EDBCFE6FFFC0EDBCFE6FFFD0E43
:100C9000DBCFE6FF40CFE6FF2BCFE6FF2CCFE6FF12
:100CA00006EC2AF0146E080EE15E1450D9CFE9FF6D
:100CB000DACFEAFFEE500F012B27EE502C23020E65
:100CC000DBCF14F0030EDBCF15F0F90EDBCF16F0FF
:100CD000FA0EDBCF17F01450165C1550175806E3C8
:100CE000FE0EDBCFE6FFE3DCE55215D03CBB13D0B4
:100CF0003C8B22EC58F006C014F007C015F0166AC1
:100D0000176A060E1426000E15221622172214C08A
:100D100037FF15C038FF040EDBCF16F0050EDBCF12
:100D200017F0DE501624146EDD501720156E14C017
:100D3000F3FF15C0F4FF00D0060EE15C02E2E16AA9
:100D4000E552E16EE552E7CFD9FF1200D9CFE6FFB9
:100D5000E1CFD9FFFC0EDBCF16F0FD0EDBCF17F095
:100D600016C0E6FF17C0E6FFFC0EDBCFE6FFFD0E68
:100D7000DBCFE6FF11EC57F0E552E552F3CF18F068
:100D8000F4CF19F018C0E6FF19C0E6FFFC0EDBCF68
:100D9000E6FFFD0EDBCFE6FFFE0EDBCFE6FF8BDDD1
:100DA0001A6E050EE15E1A50E552E7CF17F0E552D4
:100DB000E7CF16F01650F324146E1750F420156E7A
:100DC00014C0F3FF15C0F4FF00D0E552E7CFD9FF00
:100DD0001200D9CFE6FFE1CFD9FFFB0EDBCFE6FF54
:100DE000FC0EDBCFE6FFFD0EDBCFE6FF1FEC57F07E
:100DF000E552E552E55207C01AF008C01BF01AC0D0
:100E0000E6FF1BC0E6FFFB0EDBCFE6FFFC0EDBCFF1
:100E1000E6FFFD0EDBCFE6FFFE0EDBCFE6FF6EDE6C
:100E20001C6E060EE15E1C50F3CF17F0F4CF18F0E5
:100E3000196AD950FB0FE96EFF0EDA20EA6EEE5008
:100E40001724146EEE501820156EEE501920166EF1
:100E500014C007F015C008F016C009F000D0E55224
:100E6000E7CFD9FF1200D9CFE6FFE1CFD9FF040EBB
:100E7000E126FE0EDBCFE6FF46EC00F0E5520F0167
:100E80002551275D146E28512655156E1406000E47
:100E9000155A020E14C0DBFF030E15C0DBFFFE0E59
:100EA000DBCFE6FF21DCE552F3CFDEFFF4CFDDFF41
:100EB000020EDBCF16F0030EDBCF17F0DE50165C10
:100EC000146EDD501758156E14C0F3FF15C0F4FFF3
:100ED000040EE15C03E200D0E16AE552E16EE55206
:100EE000E7CFD9FF1200D9CFE6FFE1CFD9FFFE0E41
:100EF000DBCFE6FF1ED8E552F3CF14F0F4CF15F0A8
:100F00001450151012E0FE0EDBCFE6FF46EC00F0A9
:100F1000E5522FCF31FF30CF32FF010EE66E100EBB
:100F2000E66E15EC15F0E552E552E552E7CFD9FF34
:100F30001200D9CFE6FFE1CFD9FFFE0EDBCFE6FFEF
:100F400046EC00F0E5520F0131512F5D325130591E
:100F50000CE331512F5D146E30513255156E14C0B3
:100F6000F3FF15C0F4FF1CD01BD03151295D166E64
:100F70002A513255176E010E1626000E17222751E0
:100F80002F5D186E30512855196E16501824146EA6
:100F900017501920156E14C0F3FF15C0F4FF00D0D0
:100FA000E552E7CFD9FF1200D9CFE6FFE1CFD9FF55
:100FB000020EE126FE0EDBCFE6FFBBDFE552F3CFEC
:100FC000DEFFF4CFDDFFD9CFE9FFDACFEAFFEE5045
:100FD000ED1002E1000E54D0FE0EDBCFE6FF46EC32
:100FE00000F0E552D950FC0FE96EFF0EDA20EA6EF0
:100FF000EE50ED1016E0010EE66EE66A40CFE6FF19
:1010000031CFE6FF32CFE6FFE66EFC0EDBCFE6FF28
:10101000FD0EDBCFE6FF65EC29F0146E080EE15EF5
:1010200014500F01312B000E32233151295D325102
:101030002A5904E227CF31FF28CF32FFD9CFE9FF69
:10104000DACFEAFF010EEE1801E1ED5002E13D8535
:1010500015D03CBB13D03C8B22EC58F006C014F0EA
:1010600007C015F0166A176A060E1426000E152220
:101070001622172214C037FF15C038FF010E00D00A
:10108000146E020EE15C02E2E16AE552E16E145078
:10109000E552E7CFD9FF1200D9CFE6FFE1CFD9FF64
:1010A000040EE126020EDB6A030EDB6AFE0EDBCFC6
:1010B000E6FF3FDFE552F3CFDEFFF4CFDDFFD9CF10
:1010C000E9FFDACFEAFFEE50ED1003E1F36AF46ACC
:1010D000FFD0FE0EDBCFE6FF46EC00F0E552FA0E45
:1010E000DBCF14F0FB0EDBCF15F0DECF16F0DDCF3B
:1010F00017F01450165C155017580AE2D9CFE9FFC3
:10110000DACFEAFFFA0EEECFDBFFFB0EEDCFDBFF0F
:10111000FA0EDB500F0131250001146EFB0EDB507F
:101120000F0132210001156E0F011450295D155079
:101130002A5957E23151295D146E2A513255156EE4
:10114000010E1426000E1522020E14C0DBFF030E42
:1011500015C0DBFFD950FC0FE96EFF0EDA20EA6EF6
:10116000EE50ED102AE0020EDBCFE6FF030EDBCFE0
:10117000E6FF40CFE6FF31CFE6FF32CFE6FF010EBC
:10118000E66EFC0EDBCFE6FFFD0EDBCFE6FF65EC87
:1011900029F0146E080EE15E1450020EDBCF14F03D
:1011A000030EDBCF15F0D950FC0FE96EFF0EDA20ED
:1011B000EA6E1450EE261550ED22020EDBCF14F02D
:1011C000030EDBCF15F0D950FA0FE96EFF0EDA20CF
:1011D000EA6E1450EE5E1550ED5A27CF31FF28CF3E
:1011E00032FFD950FC0FE96EFF0EDA20EA6EEE50A6
:1011F000ED101AE0FA0EDBCFE6FFFB0EDBCFE6FFC9
:1012000040CFE6FF31CFE6FF32CFE6FF010EE66EBC
:10121000FC0EDBCFE6FFFD0EDBCFE6FF65EC29F031
:10122000146E080EE15E1450FA0EDBCF08F0FB0ED0
:10123000DBCF09F008500F01312709503223020E8D
:10124000DBCF14F0030EDBCF15F0D950FA0FE96EA7
:10125000FF0EDA20EA6E1450EE261550ED22DECF96
:1012600016F0DDCF17F0FA0EDB50165C146EFB0E95
:10127000DB501758156EFA0EDBCF18F0FB0EDBCFE4
:1012800019F01450185C1550195802E33D8515D01B
:101290003CBB13D03C8B22EC58F006C014F007C0C6
:1012A00015F0166A176A060E1426000E152216226D
:1012B000172214C037FF15C038FFFA0EDBCF14F029
:1012C000FB0EDBCF15F014C0F3FF15C0F4FF00D008
:1012D000040EE15C02E2E16AE552E16EE552E7CF1D
:1012E000D9FF1200D9CFE6FFE1CFD9FF040EE126E6
:1012F000FE0EDBCFE6FF46EC00F0E5520F01275172
:10130000295D146E2A512855156E020E14C0DBFF9C
:10131000030E15C0DBFFFE0EDBCFE6FF0ADEE55253
:10132000F3CFDEFFF4CFDDFF020EDBCF16F0030EAE
:10133000DBCF17F0DE50165C146EDD501758156EBB
:1013400014C0F3FF15C0F4FF040EE15C03E200D00B
:10135000E16AE552E16EE552E7CFD9FF1200D9CF3D
:10136000E6FFE1CFD9FF300EE126D950FA0FE96E42
:10137000FF0EDA20EA6EEE50ED1003E1F36AF46A34
:10138000F2D2FE0EDBCFE6FF46EC00F0E552FE0E99
:10139000DBCFE6FFCEDDE552F3CF16F0F4CF17F04A
:1013A000F80EDB50165C146EF90EDB501758156EF4
:1013B000020E14C0DBFF030E15C0DBFF020EDBCFF5
:1013C00014F0030EDBCF15F0FA0EDBCF16F0FB0E98
:1013D000DBCF17F01650145C1750155803E2F36872
:1013E000F468C1D2D950F60FE96EFF0EDA20EA6E2A
:1013F000EE50ED101DE0020EDBCF14F0030EDBCF3C
:1014000015F0F60EDBCF16F0F70EDBCF17F0145009
:10141000165C155017580CE2F60EDBCF08F0F70EED
:10142000DBCF09F0020E08C0DBFF030E09C0DBFFB3
:10143000F80EDB500F0131250001146EF90EDB5060
:101440000F0132210001156E060E14C0DBFF070EDE
:1014500015C0DBFF060EDBCF14F0070EDBCF15F057
:101460000F011450295D15502A5913E22751295DA7
:10147000146E2A512855156E010E1426000E1522E1
:10148000D950060FE96EDACFEAFF1450EE5E155020
:10149000ED5A060EDBCFDEFFDBCFDDFFDB50295D33
:1014A0000001146E070EDB500F012A590001156E62
:1014B000010E1426000E1522040E14C0DBFF050ECB
:1014C00015C0DBFFF80EDBCF08F0F90EDBCF09F01B
:1014D000060E08C0DBFF070E09C0DBFFFA0EDBCFEC
:1014E00008F0FB0EDBCF09F0080E08C0DBFF090E89
:1014F00009C0DBFFFC0EDBCF08F0FD0EDBCF09F0EF
:101500000A0E08C0DBFF0B0E09C0DBFFFC0EDBCFB1
:10151000E9FFDB2AFD0EDBCFEAFF01E3DB2A0D0E3C
:10152000EFCFDBFF0F0EDB6AF50EDB5016E0610E2E
:10153000F36E0D0EDBCFF4FFF350F45C0EE30D0EF3
:10154000DB507A080AE3E00E146E0D0EDBCFE7FFE6
:101550001450E7260D0EE7CFDBFF200EF36E0E0EC4
:10156000F3CFDBFFDBCF14F0040EDBCF15F0050E5D
:10157000DBCF16F01450155C000E165806E2040E70
:10158000DB50E76E0E0EE7CFDBFF0E0EDBCF14F065
:10159000020EDBCF15F0030EDBCF16F01450155CF6
:1015A000000E165806E2020EDB50E76E0E0EE7CF75
:1015B000DBFF0E0EDBCFE6FFE66A40CFE6FFDECFB5
:1015C000E6FFDDCFE6FF010EE66ED950100FE66EA6
:1015D000000EDA20E66E65EC29F0146E080EE15E6E
:1015E00014500E0EDB50DE26000EDD220E0EDB50F8
:1015F000146E156AD950040FE96EDACFEAFF145061
:10160000EE5E1550ED5AD950040FE96EDACFEAFFBD
:10161000EE50ED1008E127CFDEFF28CFDDFF040EEE
:10162000DB68050EDB68F50EDB5001E1E5D00C0E42
:10163000DB6A0E0EDB50F36E0C0EDBCFF4FFF350C3
:10164000F45C01E3D8D0D950100F156EDACF16F044
:101650000C0EDB500F011524E96E000E1620EA6E09
:10166000EFCF14F0610E145C1FE3D950100F176E0A
:10167000DACF18F00C0EDB501724E96E000E18209C
:10168000EA6EEF507A0810E3E00E166ED950100F94
:10169000146EDACF15F00C0EDB501424E96E000E38
:1016A0001520EA6E1650EF26D950100F146EDACFBF
:1016B00015F00C0EDB501424E96E000E1520EA6EB6
:1016C000EF50F36E0D0EDB50F35C53E1FA0EDB06C8
:1016D000DBCF14F0FB0E01E2DB06DBCF15F014507C
:1016E00015101FE1060EDBCF18F0070EDBCF19F047
:1016F000080EDB50185C166E090EDB501958176E79
:101700000C0EDB5000011624146E000E1720156E0F
:10171000010E1426000E152214C0F3FF15C0F4FFAD
:1017200022D1FC0EDBCFE9FFDB2AFD0EDBCFEAFF87
:1017300001E3DB2A0D0EEFCFDBFF010EF36E0F0E80
:10174000F3CFDBFF610EF36E0D0EDBCFF4FFF35032
:10175000F45C0EE30D0EDB507A080AE3E00E146E23
:101760000D0EDBCFE7FF1450E7260D0EE7CFDBFFB2
:101770003FD0080EDBCF08F0090EDBCF09F0FA0EE0
:1017800008C0DBFFFB0E09C0DBFF0F0EDB5030E0B3
:101790000A0EDBCF08F00B0EDBCF09F0FC0E08C001
:1017A000DBFFFD0E09C0DBFFFC0EDBCFE9FFDB2A10
:1017B000FD0EDBCFEAFF01E3DB2A0D0EEFCFDBFFEF
:1017C000610EF36E0D0EDBCFF4FFF350F45C0EE30D
:1017D0000D0EDB507A080AE3E00E146E0D0EDBCF1F
:1017E000E7FF1450E7260D0EE7CFDBFF0F0EDB6A95
:1017F0000C0EDB2A1ED788D00C0EDB6A0E0EDB50D7
:10180000F36E0C0EDBCFF4FFF350F45C01E37CD0FD
:10181000D950100F146EDACF15F00C0EDB500F01FB
:101820001424E96E000E1520EA6EEF50F36E0D0ED3
:10183000DB50F35C3DE1FA0EDB06DBCF14F0FB0E70
:1018400001E2DB06DBCF15F0145015101FE1060E88
:10185000DBCF18F0070EDBCF19F0080EDB50185C59
:10186000166E090EDB501958176E0C0EDB50000176
:101870001624146E000E1720156E010E1426000E8D
:10188000152214C0F3FF15C0F4FF6DD0FC0EDBCFA2
:10189000E9FFDB2AFD0EDBCFEAFF01E3DB2A0D0EB9
:1018A000EFCFDBFF010EF36E0F0EF3CFDBFF29D07E
:1018B000080EDBCF08F0090EDBCF09F0FA0E08C0E6
:1018C000DBFFFB0E09C0DBFF0F0EDB501AE00A0E38
:1018D000DBCF08F00B0EDBCF09F0FC0E08C0DBFFFE
:1018E000FD0E09C0DBFFFC0EDBCFE9FFDB2AFD0E9E
:1018F000DBCFEAFF01E3DB2A0D0EEFCFDBFF0F0E9C
:10190000DB6A0C0EDB2A7AD70E0EDB50146E156ADA
:10191000D950020FE96EDACFEAFF1450EE5E15508F
:10192000ED5A020EDBCF14F0030EDBCF15F0FA0EEA
:10193000DBCF16F0FB0EDBCF17F01650145C175000
:10194000155803E2F368F4680ED00E0EDB50146EE7
:10195000156AD950060FE96EDACFEAFF1450EE2669
:101960001550ED22FAD5300EE15C02E2E16AE55253
:10197000E16EE552E7CFD9FF1200D9CFE6FFE1CF04
:10198000D9FF310EE126D950F90FE96EFF0EDA20AA
:10199000EA6EEE50ED1003E1F36AF46A22D3FE0E14
:1019A000DBCFE6FF46EC00F0E552FE0EDBCFE6FFB4
:1019B00099EC07F0E552F3CF16F0F4CF17F0F70EDD
:1019C000DB50165C146EF80EDB501758156E020EC5
:1019D00014C0DBFF030E15C0DBFF020EDBCF14F0DB
:1019E000030EDBCF15F0F90EDBCF16F0FA0EDBCFCE
:1019F00017F01650145C1750155803E2F368F4689A
:101A0000F0D2D950F50FE96EFF0EDA20EA6EEE50F3
:101A1000ED101DE0020EDBCF14F0030EDBCF15F04E
:101A2000F50EDBCF16F0F60EDBCF17F01450165C78
:101A3000155017580CE2F50EDBCF08F0F60EDBCF91
:101A400009F0020E08C0DBFF030E09C0DBFFF70E32
:101A5000DB500F0131250001146EF80EDB500F0131
:101A600032210001156E060E14C0DBFF070E15C0F3
:101A7000DBFF060EDBCF14F0070EDBCF15F00F01F6
:101A80001450295D15502A5913E22751295D146E0F
:101A90002A512855156E010E1426000E1522D95014
:101AA000060FE96EDACFEAFF1450EE5E1550ED5ADC
:101AB000060EDBCFDEFFDBCFDDFFDB50295D000153
:101AC000146E070EDB500F012A590001156E010E2E
:101AD0001426000E1522040E14C0DBFF050E15C0DF
:101AE000DBFFF70EDBCF08F0F80EDBCF09F0060EB8
:101AF00008C0DBFF070E09C0DBFFF90EDBCF08F0E3
:101B0000FA0EDBCF09F0080E08C0DBFF090E09C092
:101B1000DBFFD950FB0FE96EFF0EDA20EA6E0A0EEA
:101B2000EECFDBFF0B0EEECFDBFF0C0EEECFDBFFBD
:101B3000D950FB0FE96EFF0EDA20EA6EEFCFF6FF09
:101B4000EE2AEFCFF7FF000EEE22EFCFF8FFEE22E6
:101B500008000E0EF5CFDBFF100EDB6AF40EDB5033
:101B600016E0610EF36E0E0EDBCFF4FFF350F45C63
:101B70000EE30E0EDB507A080AE3E00E146E0E0E32
:101B8000DBCFE7FF1450E7260E0EE7CFDBFF200E7A
:101B9000F36E0F0EF3CFDBFFDBCF14F0040EDBCFC1
:101BA00015F0050EDBCF16F01450155C000E16581C
:101BB00006E2040EDB50E76E0F0EE7CFDBFF0F0EE1
:101BC000DBCF14F0020EDBCF15F0030EDBCF16F0E7
:101BD0001450155C000E165806E2020EDB50E76E3C
:101BE0000F0EE7CFDBFF0F0EDBCFE6FFE66A40CF3D
:101BF000E6FFDECFE6FFDDCFE6FF010EE66ED95051
:101C0000110FE66E000EDA20E66E65EC29F0146E18
:101C1000080EE15E14500F0EDB50DE26000EDD22B2
:101C20000F0EDB50146E156AD950040FE96EDACF2F
:101C3000EAFF1450EE5E1550ED5AD950040FE96ECC
:101C4000DACFEAFFEE50ED1008E127CFDEFF28CF14
:101C5000DDFF040EDB68050EDB68F40EDB5001E1EE
:101C6000F7D00D0EDB6A0F0EDB50F36E0D0EDBCFDF
:101C7000F4FFF350F45C01E3EAD0D950110F156E74
:101C8000DACF16F00D0EDB500F011524E96E000EB1
:101C90001620EA6EEFCF14F0610E145C1FE3D950EA
:101CA000110F176EDACF18F00D0EDB501724E96E06
:101CB000000E1820EA6EEF507A0810E3E00E166E60
:101CC000D950110F146EDACF15F00D0EDB5014241D
:101CD000E96E000E1520EA6E1650EF26D950110F4E
:101CE000146EDACF15F00D0EDB501424E96E000EE1
:101CF0001520EA6EEF50F36E0E0EDB50F35C5BE1E5
:101D0000F90EDB06DBCF14F0FA0E01E2DB06DBCFC7
:101D100015F0145015101FE1060EDBCF18F0070E5A
:101D2000DBCF19F0080EDB50185C166E090EDB5085
:101D30001958176E0D0EDB5000011624146E000E9C
:101D40001720156E010E1426000E152214C0F3FF85
:101D500015C0F4FF46D1D950FB0FE96EFF0EDA2013
:101D6000EA6EEFCFF6FFEE2AEFCFF7FF000EEE227E
:101D7000EFCFF8FFEE2208000E0EF5CFDBFF010ECD
:101D8000F36E100EF3CFDBFF610EF36E0E0EDBCFA2
:101D9000F4FFF350F45C0EE30E0EDB507A080AE316
:101DA000E00E146E0E0EDBCFE7FF1450E7260E0E8A
:101DB000E7CFDBFF49D0080EDBCF08F0090EDBCF01
:101DC00009F0F90E08C0DBFFFA0E09C0DBFF100EA8
:101DD000DB503AE0D9500A0FE96EDACFEAFFFB0E8A
:101DE000EECFDBFFFC0EEECFDBFFFD0EEECFDBFF19
:101DF000D950FB0FE96EFF0EDA20EA6EEFCFF6FF47
:101E0000EE2AEFCFF7FF000EEE22EFCFF8FFEE2223
:101E100008000E0EF5CFDBFF610EF36E0E0EDBCF6A
:101E2000F4FFF350F45C0EE30E0EDB507A080AE385
:101E3000E00E146E0E0EDBCFE7FF1450E7260E0EF9
:101E4000E7CFDBFF100EDB6A0D0EDB2A0CD79AD032
:101E50000D0EDB6A0F0EDB50F36E0D0EDBCFF4FFC1
:101E6000F350F45C01E38ED0D950110F146EDACF29
:101E700015F00D0EDB500F011424E96E000E152035
:101E8000EA6EEF50F36E0E0EDB50F35C45E1F90E97
:101E9000DB06DBCF14F0FA0E01E2DB06DBCF15F038
:101EA000145015101FE1060EDBCF18F0070EDBCF24
:101EB00019F0080EDB50185C166E090EDB5019582D
:101EC000176E0D0EDB5000011624146E000E172045
:101ED000156E010E1426000E152214C0F3FF15C056
:101EE000F4FF7FD0D950FB0FE96EFF0EDA20EA6EC7
:101EF000EFCFF6FFEE2AEFCFF7FF000EEE22EFCF87
:101F0000F8FFEE2208000E0EF5CFDBFF010EF36E98
:101F1000100EF3CFDBFF33D0080EDBCF08F0090E35
:101F2000DBCF09F0F90E08C0DBFFFA0E09C0DBFFBA
:101F3000100EDB5024E0D9500A0FE96EDACFEAFF29
:101F4000FB0EEECFDBFFFC0EEECFDBFFFD0EEECF88
:101F5000DBFFD950FB0FE96EFF0EDA20EA6EEFCF00
:101F6000F6FFEE2AEFCFF7FF000EEE22EFCFF8FFDD
:101F7000EE2208000E0EF5CFDBFF100EDB6A0D0E11
:101F8000DB2A68D70F0EDB50146E156AD950020F8A
:101F9000E96EDACFEAFF1450EE5E1550ED5A020EEC
:101FA000DBCF14F0030EDBCF15F0F90EDBCF16F00C
:101FB000FA0EDBCF17F01650145C1750155803E2D9
:101FC000F368F4680ED00F0EDB50146E156AD9500A
:101FD000060FE96EDACFEAFF1450EE261550ED2217
:101FE000D6D5310EE15C02E2E16AE552E16EE552DE
:101FF000E7CFD9FF1200D9CFE6FFE1CFD9FFF80E26
:10200000DBCFE6FFF90EDBCFE6FFFA0EDBCFE6FF14
:10201000FB0EDBCFE6FFFC0EDBCFE6FF010EE66E2C
:10202000E66AD950FD0FE66EFF0EDA20E66EFE0E70
:10203000DBCFE6FFAFEC09F0146E0A0EE15E145040
:1020400000D0E552E7CFD9FF1200D9CFE6FFE1CFAC
:10205000D9FF060EE126DF6ADF50146E156A090EFD
:10206000145C000E155801E30ED3DFCFE6FF46ECFB
:1020700000F0E552030EDB6A010EDB6A020EDB6A3A
:102080000F013D51020B03E13D51040B12E05AECEC
:102090003AF000090EE0100EF36E030EF3CFDBFFF3
:1020A0000F013D51040B01E0010EE76E010EE7CF79
:1020B000DBFF0F013CAB15D022EC58F00F010650AE
:1020C000375D146E07503859156E153404E21450FC
:1020D0000008000E155405E3100EF36E030EF3CF47
:1020E000DBFF3CAD15D022EC58F00F010650395DF6
:1020F000146E07503A59156E153404E21450000856
:10210000000E155405E3100EF36E030EF3CFDBFF44
:102110000B0E3B5D17E122EC58F00F010650395DC4
:10212000146E07503A59156E153404E21450000825
:10213000000E155407E3110EF36E030EF3CFDBFF11
:102140000C0E3B6F040E3B5D01E02ED1040EDB6AEA
:10215000050EDB6A040EDBCF14F0050EDBCF15F0A5
:10216000030E145C000E155801E31ED1040EDBCFE4
:10217000E9FF050EDBCFEAFF140EEA02F3CFEAFF18
:10218000E902F3CFE9FFF450EA26C10EE926020E78
:10219000EA22100EE926000EEA22EE50ED1001E1CF
:1021A00003D1040EDBCFE9FF050EDBCFEAFF140EEF
:1021B000EA02F3CFEAFFE902F3CFE9FFF450EA269F
:1021C000C10EE926020EEA22100EE926000EEA22CE
:1021D000EECF14F0EFCF15F03E51141802E13F514D
:1021E000151801E0DBD095EC00F00A0EE66EE66A09
:1021F000040EDBCFE9FF050EDBCFEAFF140EEA0287
:10220000F3CFEAFFE902F3CFE9FFF450EA26C10E6B
:10221000E926020EEA22E9CF14F0EACF15F014C045
:10222000E6FF15C0E6FF160EE66E0F0EE66E90ECAA
:1022300056F0166E060EE15E1650040EDBCFE9FF77
:10224000050EDBCFEAFF140EEA02F3CFEAFFE90244
:10225000F3CFE9FFF450EA26C10EE926020EEA2286
:102260000A0EE926000EEA22EECF0EFFEDCF0FFF99
:10227000040EDBCFE9FF050EDBCFEAFF140EEA0206
:10228000F3CFEAFFE902F3CFE9FFF450EA26C10EEB
:10229000E926020EEA220C0EE926000EEA22EECF13
:1022A00008FFEECF09FFEECF0AFFEFCF0BFF0F01C4
:1022B000082B09230A230B2318511625166E1951D2
:1022C0001721176E16500E25146E17500F21156E1C
:1022D000145010193E6F155011193F6F120EF36E06
:1022E000030EF3CFDBFF060E3B6F040EDBCF14F0C3
:1022F000050EDBCF15F0020ED8801456000E1556D1
:10230000140E1502F3CF15F01402F3CF14F0F450AD
:10231000152614C0E6FF15C0E6FF010EE66EE76E57
:10232000040EDBCF16F0050EDBCF17F0E7501626B4
:10233000000E1722140E1702F3CF17F01602F3CF78
:1023400016F0F4501726C10E1626020E172216C0DC
:10235000E6FF17C0E6FF010EE66E040EDBCF18F0B5
:10236000050EDBCF19F0140E1902F3CF19F0180285
:10237000F3CF18F0F4501926C10E1826020E1922B8
:1023800018C0E6FF19C0E6FF65EC29F01A6E080ECA
:10239000E15E1A500201F96BFA6B06D0040EDB2ADB
:1023A000050E01E3DB2AD6D6030EDB500DE0010E4D
:1023B000DB5002E0000E01D0010EE66E030EDBCF13
:1023C000E6FF33DBE552E5520F013CB952D0070E70
:1023D0003B5D4EE117EC58F00F013351065C146E73
:1023E00034510758156E35510858166E3651095834
:1023F000176E0001800E171401E043D10F013C510C
:10240000070B060819E13C51080B01E0010EE76ECD
:10241000030EE7CFDBFFDFCFE6FFE4EC02F0E5528F
:10242000DFCFE6FFE4EC02F0E552030EDB5003E100
:102430000F010E0E3B6F25D195EC00F0020EE66EFB
:10244000100EE66EF2DAE552E55217EC58F006C0CF
:1024500033FF07C034FF08C035FF09C036FF740ED4
:102460000F013327350E3423060E3523000E362395
:1024700008D117EC58F00F013351065C146E34513B
:102480000758156E35510858166E36510958176E93
:102490000001800E171401E0F4D095EC00F00F015C
:1024A0003B510C0A01E184D0060A6BE0030A5EE0AE
:1024B000010A45E00F0A2FE00C0A2DE00D0A0CE09E
:1024C000030A01E08CD0020EF36E030EF3CFDBFFA4
:1024D000DE52010EDD6E83D0020E235D09E2120E84
:1024E000F36E030EF3CFDBFFDE52010EDD6E12D072
:1024F0003CA70BD0140EF36E030EF3CFDBFF010EDF
:10250000F36E020EF3CFDBFF05D0020EF36E030E67
:10251000F3CFDBFF64D0050E235D09E2100EF36EEE
:10252000030EF3CFDBFFDE52010EDD6E07D0080E87
:102530003B6F110EF36E030EF3CFDBFF50D0050E91
:10254000235D09E2110EF36E030EF3CFDBFFDE52C3
:10255000010EDD6E0AD0140EF36E030EF3CFDBFF17
:10256000010EF36E020EF3CFDBFF39D0140EF36EC3
:10257000030EF3CFDBFF010EF36E020EF3CFDBFF92
:102580002ED0050E235D09E2100EF36E030EF3CF7D
:10259000DBFFDE52010EDD6E0AD0140EF36E030E69
:1025A000F3CFDBFF010EF36E020EF3CFDBFF17D08C
:1025B000050E235D09E2110EF36E030EF3CFDBFF70
:1025C000DE52010EDD6E0AD0140EF36E030EF3CF51
:1025D000DBFF010EF36E020EF3CFDBFF00D0030E24
:1025E000DB504AE0010EDB503FE0232BD890003750
:1025F0000137023703372D510C5D146E0D512E55E6
:10260000156E166A176A15AE02D016681768145050
:10261000045F1550055B1650065B1750075B2D5184
:102620000C5D2E510D5914E22551275D146E285171
:102630002655156E166A176A15AE02D01668176809
:102640001450045F1550055B1650065B1750075B6E
:102650002DCF0CFF2ECF0DFFE66A030EDBCFE6FF7A
:10266000E4D9E552E55208D0010EE66E030EDBCF49
:10267000E6FFDBD9E552E552020EDB5002E0C2EC88
:102680001DF0DF2AE9D4040EDB6A050EDB6A040EB6
:10269000DBCF14F0050EDBCF15F0030E145C000E3B
:1026A000155801E3B1D0040EDBCFE9FF050EDBCFF7
:1026B000EAFF140EEA02F3CFEAFFE902F3CFE9FFE3
:1026C000F450EA26C10EE926020EEA22100EE9268F
:1026D000000EEA22EE50ED1001E196D0040EDBCFA1
:1026E000E9FF050EDBCFEAFF140EEA02F3CFEAFFA3
:1026F000E902F3CFE9FFF450EA26C10EE926020E03
:10270000EA22120EE926000EEA22EECF16F0EFCFF3
:1027100017F016C0E6FF17C0E6FF22EC58F0E552AE
:10272000E7CF17F0E552E7CF16F01650065C146EAF
:1027300017500758156EDC0ED8801454010E15542E
:102740005DE2040EDBCF14F0050EDBCF15F0020EB8
:10275000D8801456000E1556140E1502F3CF15F03E
:102760001402F3CF14F0F450152614C0E6FF15C080
:10277000E6FF010EE66EE76E040EDBCF16F0050EE7
:10278000DBCF17F0E7501626000E1722140E1702A3
:10279000F3CF17F01602F3CF16F0F4501726C10E40
:1027A0001626020E172216C0E6FF17C0E6FF010E1E
:1027B000E66E040EDBCF18F0050EDBCF19F0140E19
:1027C0001902F3CF19F01802F3CF18F0F4501926BC
:1027D000C10E1826020E192218C0E6FF19C0E6FF26
:1027E00065EC29F01A6E080EE15E1A500201F96BD1
:1027F000FA6B040EDB06050E01E2DB06040EDB2A93
:10280000050E01E3DB2A43D7060EE15C02E2E16A32
:10281000E552E16EE552E7CFD9FF1200D9CFE6FFCE
:10282000E1CFD9FF250EE126FD0EDBCFE9FFFE0E3D
:10283000DBCFEAFF140EEECFDBFF150EEECFDBFF92
:10284000160EEECFDBFF170EEECFDBFFFB0EDBCF5E
:10285000E9FFFC0EDBCFEAFF180EEECFDBFF190E0F
:10286000EECFDBFF1A0EEECFDBFF1B0EEECFDBFF52
:102870001C0EDB6A060EF36E1D0EF3CFDBFFF90EA6
:10288000DBCF08F0FA0EDBCF09F01E0E08C0DBFF2D
:102890001F0E09C0DBFF1E0EDBCFE6FF1F0EDBCFD6
:1028A000E6FFF9EC37F0E552E5521E0EF3CFDBFF01
:1028B0001F0EF4CFDBFF0C0EE66EE66AD950140F44
:1028C000E66E000EDA20E66E76EC38F0E552E55260
:1028D000E552E552F3CF14F0F4CF15F0141E151E97
:1028E000200E14C0DBFF210E15C0DBFFF90EDBCF7D
:1028F000E6FFFA0EDBCFE6FF3AEC3DF0E552E5529B
:10290000220EF3CFDBFF230EF4CFDBFF200EDBCF55
:1029100014F0210EDBCF15F0220EDB50141803E16A
:10292000230EDB50151804E077EC3AF0010E71D05D
:10293000000EE66EE66A8BEC4FF0E552E552140E9F
:10294000E66EE66AD9CFE6FFDACFE6FF7AEC3FF033
:10295000E552E552E552E552D9CFE6FFDACFE6FF80
:10296000AAEC1CF0E552E552D9500C0FE96EDACF13
:10297000EAFFEF50F00BE842E842E842E842040D7B
:10298000F350146E156A140E145E000E155A240EC0
:1029900014C0DBFFDB50166E176AF90EDBCF08F0B0
:1029A000FA0EDBCF09F01650085C146E1750095868
:1029B000156E140E145E000E155AF90E14C0DBFFCE
:1029C000FA0E15C0DBFFFD0EDBCFE6FFFE0EDBCF00
:1029D000E6FFD9CFE6FFDACFE6FF9BEC19F0E55230
:1029E000E552E552E552000910E0F90EDBCFE6FFB3
:1029F000FA0EDBCFE6FFD9CFE6FFDACFE6FF07EC32
:102A00001EF0E552E552E552E55277EC3AF0010E40
:102A100000D0146E250EE15C02E2E16AE552E16E3F
:102A20001450E552E7CFD9FF1200D9CFE6FFE1CF2E
:102A3000D9FF2A0EE12695EC00F0FE0EDBA004D0B3
:102A40000F013D87FE0EDB900F013C9B3C9D3C9FA0
:102A50003D933D953D915AEC3AF0000901E1FBD7D9
:102A6000FE0EDB50060B05E0260EDB6A270EDB6A46
:102A700009D20F010C512B1902E10D512C190CE157
:102A8000260EDB6A270EDB6A3DA705D01251131113
:102A900002E0FE0EDB80F6D12B510C5D2C510D595E
:102AA00001E3B5D00C512B5D146E2C510D55156EF4
:102AB000260E14C0DBFF270E15C0DBFF280E12CF39
:102AC000DBFF290E13CFDBFF2D510C5D2E510D596D
:102AD00010E32D510C5D146E0D512E55156ED9500D
:102AE000280FE96EDACFEAFF1450EE5E1550ED5A6A
:102AF0001BD02551275D166E28512655176E0C5197
:102B00002D5D186E2E510D55196E1850165C146EF1
:102B100019501758156ED950280FE96EDACFEAFF11
:102B20001450EE5E1550ED5A260EDBCF14F0270E32
:102B3000DBCF15F0280EDBCF16F0290EDBCF17F018
:102B40001450165C155017580CE2280EDBCF08F015
:102B5000290EDBCF09F0260E08C0DBFF270E09C0C7
:102B6000DBFFD950260FE96EDACFEAFF180ED880C6
:102B7000EE54020EED540BE2180EF36E260EF3CF58
:102B8000DBFF020EF36E270EF3CFDBFF3D853DA783
:102B90001BD0260EDBCF14F0270EDBCF15F0280E4E
:102BA000DB50141803E1290EDB5015180DE0D95045
:102BB000260FE96EDACFEAFF180EEE1802E1020ED8
:102BC000ED1802E0FE0EDB80260EDBCFE6FF270EBF
:102BD000DBCFE6FF40CFE6FF0CCFE6FF0DCFE6FFF1
:102BE000E66A160EE66E0F0EE66E65EC29F0146EC0
:102BF000080EE15E1450260EDBCF08F0270EDBCF67
:102C000009F008500F010C2709500D233BD10C513E
:102C1000275D146E28510D55156E240E14C0DBFF70
:102C2000250E15C0DBFF240EDB502B250001166E90
:102C3000250EDB500F012C210001176E0F012551CD
:102C4000165C146E26511758156E260E14C0DBFF45
:102C5000270E15C0DBFF280E12CFDBFF290E13CF86
:102C6000DBFF2D510C5D2E510D5910E32D510C5DE4
:102C7000146E0D512E55156ED950280FE96EDACF0E
:102C8000EAFF1450EE5E1550ED5A1BD02551275D1A
:102C9000166E28512655176E0C512D5D186E2E514B
:102CA0000D55196E1850165C146E19501758156E84
:102CB000D950280FE96EDACFEAFF1450EE5E1550B6
:102CC000ED5A260EDBCF14F0270EDBCF15F0280EC1
:102CD000DBCF16F0290EDBCF17F01450165C155021
:102CE00017580CE2280EDBCF08F0290EDBCF09F0D5
:102CF000260E08C0DBFF270E09C0DBFFD950260FC8
:102D0000E96EDACFEAFF180ED880EE54020EED54C9
:102D10000BE2180EF36E260EF3CFDBFF020EF36EFE
:102D2000270EF3CFDBFF3D853DA71BD0260EDBCF63
:102D300014F0270EDBCF15F0280EDB50141803E13A
:102D4000290EDB5015180DE0D950260FE96EDACFA9
:102D5000EAFF180EEE1802E1020EED1802E0FE0E78
:102D6000DB80240EDBCF14F0250EDBCF15F0260E12
:102D7000DBCF16F0270EDBCF17F01450165C155082
:102D800017580CE2260EDBCF08F0270EDBCF09F038
:102D9000240E08C0DBFF250E09C0DBFF240EDBCFAD
:102DA000E6FF250EDBCFE6FF40CFE6FF0CCFE6FFC8
:102DB0000DCFE6FFE66A160EE66E0F0EE66E65ECC8
:102DC00029F0146E080EE15E1450260EDBCF16F0CB
:102DD000270EDBCF17F0240EDB50165C146E250E89
:102DE000DB501758156E240E14C0DBFF250E15C0DE
:102DF000DBFFD950240FE96EDACFEAFFEE50ED1079
:102E000027E0240EDBCFE6FF250EDBCFE6FF40CF29
:102E1000E6FF25CFE6FF26CFE6FFE66A0F010C515D
:102E2000275D146E28510D55156E166A176A160E19
:102E300014260F0E1522000E1622172214C0E6FFCC
:102E400015C0E6FF65EC29F0186E080EE15E18501B
:102E5000260EDBCF08F0270EDBCF09F008500F015C
:102E60000C2709500D2327510C5D28510D590AE3F9
:102E70002551275D146E28512655156E14500C5F90
:102E800015500D5BD950260FE96EDACFEAFFEE50F0
:102E9000ED1004E1FE0EDB50030B26E0D950260FA7
:102EA000E96EDACFEAFFEE50ED1002E0FE0EDB86AF
:102EB000FD0EDBA008D00F01236BF20E006F9E0EFB
:102EC000016F026B036B17EC58F006500F010025E1
:102ED000336F07500121346F08500221356F0950BC
:102EE0000321366F3C893CD0FD0EDBA21FD03C0E87
:102EF000E96E0F0EEA6EEF50070BE82AF36EF350FF
:102F0000070BF36EF46EF80EEF14F310EF6EF4503F
:102F10000F010407000E055B065B075B010EF36EF5
:102F2000260EF3CFDBFF270EDB6A1AD00F013CA978
:102F300017D0DBB006D02307D89003330233013318
:102F4000003317EC58F006500F010025336F07507F
:102F50000121346F08500221356F09500321366F6B
:102F6000020E10CFDBFF030E11CFDBFF040E0ECFDE
:102F7000DBFF050E0FCFDBFF060E04CFDBFF070ED6
:102F800005CFDBFF080E06CFDBFF090E07CFDBFF07
:102F90000A0E08CFDBFF0B0E09CFDBFF0C0E0ACFAA
:102FA000DBFF0D0E0BCFDBFF0F0EDB9CDB9E0E0E4F
:102FB000DB90DB92DB94DB96FE0EDB50E76E0F0EB0
:102FC000E7CFDBFF140EDB6A150EDB6A260EDBCFC4
:102FD00014F0270EDBCF15F0000114500F01042769
:102FE000000115500F010523000E06230723FE0ED6
:102FF000DBA213D022A30BD0D950060FE96EDACF93
:10300000EAFFEE06000EEE5AEE5AEE5A06D0042BF8
:10301000000E0523062307232283FE0EDBA013D018
:1030200022A10BD0D950060FE96EDACFEAFFEE06E7
:10303000000EEE5AEE5AEE5A06D0042B000E05236F
:1030400006230723228131512F5D3251305919E374
:103050002751295D166E2A512855176E31512F5D63
:10306000186E30513255196E1850165C146E195086
:103070001758156E100E14C0DBFF110E15C0DBFFC4
:103080000FD02F51315D146E32513055156E14062C
:10309000000E155A100E14C0DBFF110E15C0DBFF19
:1030A000B4EC3AF0F3CF14F0F4CF15F0400E145E08
:1030B000000E155A14C0DEFF15C0DDFFDECF14F080
:1030C000DDCF15F00001800E151402E0DE6ADD6A26
:1030D000100EDBCF14F0110EDBCF15F0DECF16F0A3
:1030E000DDCF17F01450165C155017580AE2D9CFEF
:1030F000E9FFDACFEAFF100EEECFDBFF110EEDCFC6
:10310000DBFFD950020FE66E000EDA20E66EAAEC65
:103110001CF0E552E552D950260FE96EDACFEAFFEE
:10312000140EEE26000EED220E0EDB88DB9ADB8CF1
:10313000DB9EFE0EDBA237D0D950260FE96EDACF28
:10314000EAFF040EEE26000EED22020EF36E160EBE
:10315000F3CFDBFF040EF36E170EF3CFDBFF020E8F
:10316000F36E180EF3CFDBFF140EF36E190EF3CFD0
:10317000DBFF010E146ED9500E0FE96EDACFEAFFB5
:10318000EF50F00BE842E842E842E84214240F0B0B
:10319000F36EF46EF346F346F346F3460F0EEF1468
:1031A000F310EF6EF4501A0E00C2DBFF1B0E01C2CB
:1031B000DBFF1C0E02C2DBFF1D0E03C2DBFF1E0E77
:1031C00016CFDBFF1F0E17CFDBFF200E18CFDBFF64
:1031D000210E19CFDBFF220EDB6A060EF36E230EE3
:1031E000F3CFDBFF260EDBCF08F0270EDBCF09F095
:1031F000240E08C0DBFF250E09C0DBFF240EDBCF49
:10320000E6FF250EDBCFE6FFF9EC37F0E552E5529D
:10321000240EF3CFDBFF250EF4CFDBFF0C0EE66EA2
:10322000E66AD9501A0FE66E000EDA20E66E76ECEA
:1032300038F0E552E552E552E552F3CF14F0F4CF01
:1032400015F0141E151E120E14C0DBFF130E15C050
:10325000DBFFEE0EE66E0E0EE66E93EC3CF0E552F2
:10326000E552260EDBCFE6FF270EDBCFE6FF060E8C
:10327000E66E160EE66E0F0EE66ED9EC4EF0146E8C
:10328000050EE15E1450140EE66EE66AD950020F88
:10329000E66E000EDA20E66ED7EC3FF0E552E5521E
:1032A000E552E552FE0EDBA20FD0040EE66EE66A92
:1032B000D950160FE66E000EDA20E66ED7EC3FF01E
:1032C000E552E552E552E552020EE66E0F0EE66E4D
:1032D000B6EC3CF0E552E552260EDBCFE6FF270EBA
:1032E000DBCFE6FF3AEC3DF0E552E552F3CFDEFFEF
:1032F000F4CFDDFF120EE66E0F0EE66E93EC3CF09F
:10330000E552E552020EE66EE66AD9CFE6FFDACF65
:10331000E6FFD7EC3FF0E552E552E552E55238ECD6
:103320003CF02A0EE15C02E2E16AE552E16EE55210
:10333000E7CFD9FF1200D9CFE6FFE1CFD9FF060EC4
:10334000E126FD0EDBCFE9FFFE0EDBCFEAFF020E2A
:10335000E926000EEA22EE50ED1002E1000EEED258
:10336000DE52FE0EDD6EFB0EDBCFE9FFFC0EDBCF87
:10337000EAFF020EE926000EEA22EECF1AF0EFCFA6
:103380001BF0FB0EDBCFE9FFFC0EDBCFEAFF1A5090
:10339000EE24186E1B50EE20196EFD0EDBCFE9FFF8
:1033A000FE0EDBCFEAFF1850EE24166E1950EE2009
:1033B000176EFD0EDBCFE9FFFE0EDBCFEAFF020E3C
:1033C000E926000EEA221650EE18146E1750EE1879
:1033D000156E020E14C0DBFF030E15C0DBFFDF6AA3
:1033E000DF50146E156A090E145C000E155872E257
:1033F000DFCFE6FF46EC00F0E5520D0E0F013B5D1E
:1034000002E166D029D0040E3B5D19E1FD0EDBCF51
:10341000E9FFFE0EDBCFEAFF020EE926000EEA22EC
:10342000EECF14F0EFCF15F014503E1902E1155015
:103430003F1903E1010EDFCFDBFF4AD00DD03ECFB5
:1034400014F03FCF15F0020EDB50141803E1030E09
:10345000DB50151801E03CD095EC00F0FD0EDBCF01
:10346000E9FFFE0EDBCFEAFF020EE926000EEA229C
:10347000EECF14F0EFCF15F00F011051141802E148
:103480001151151825E1FD0EDBCFE9FFFE0EDBCF54
:10349000EAFFEECF16F0EFCF17F00E51161802E14B
:1034A0000F51171815E1FB0EDBCFE9FFFC0EDBCF48
:1034B000EAFFEE50161909E1EE50171906E1EE5039
:1034C000181903E1EE50191900E102E1010E36D29C
:1034D000DF2A86D7010EDB50FE0843E0010EDBCF6A
:1034E000E6FF46EC00F0E55295EC00F0010EDB50F3
:1034F000FE0837E0020EDBCF3EFF030EDBCF3FFFBF
:103500000A0EE66EE66AFB0EDBCFE6FFFC0EDBCFB3
:10351000E6FF160EE66E0F0EE66E90EC56F0146E99
:10352000060EE15E1450FD0EDBCFE9FFFE0EDBCF91
:10353000EAFFEECF0EFFEDCF0FFFFD0EDBCFE9FF71
:10354000FE0EDBCFEAFF020EE926000EEA22EECFE6
:1035500010FFEDCF11FF25CF0CFF26CF0DFF010E81
:10356000EDD1FD0EDBCFE9FFFE0EDBCFEAFF0D0E46
:10357000E926000EEA22EF50020B02E1000EDED136
:103580000201F951FA1102E0000ED8D1040EDB6AF3
:10359000050EDB6A040EDBCF14F0050EDBCF15F051
:1035A000030E145C000E155801E3CFD0040EDBCFE0
:1035B000E9FF050EDBCFEAFF140EEA02F3CFEAFFC4
:1035C000E902F3CFE9FFF450EA26C10EE926020E24
:1035D000EA22100EE926000EEA22EE50ED1001E17B
:1035E000B4D0040EDBCFE9FF050EDBCFEAFF140EEB
:1035F000EA02F3CFEAFFE902F3CFE9FFF450EA264B
:10360000C10EE926020EEA22100EE926000EEA2279
:10361000EECF14F0EFCF15F0FD0EDBCFE9FFFE0E7D
:10362000DBCFEAFF020EE926000EEA22EECF16F00B
:10363000EFCF17F01650141802E11750151801E0DB
:103640007ED0040EDBCFE9FF050EDBCFEAFF140EC0
:10365000EA02F3CFEAFFE902F3CFE9FFF450EA26EA
:10366000C10EE926020EEA220A0EE926000EEA221F
:10367000EECF14F0EFCF15F0FD0EDBCFE9FFFE0E1D
:10368000DBCFEAFFEECF16F0EFCF17F0165014188D
:1036900002E11750151801E052D0FB0EDBCFE9FF15
:1036A000FC0EDBCFEAFFEECF14F0EECF15F0EECF3D
:1036B00016F0EFCF17F0040EDBCFE9FF050EDBCFDE
:1036C000EAFF140EEA02F3CFEAFFE902F3CFE9FFC3
:1036D000F450EA26C10EE926020EEA22EE5000015D
:1036E000141809E1EE50151806E1EE50161803E122
:1036F000EE50171800E101E022D022EC58F006C08D
:1037000014F007C015F0040EDBCFE9FF050EDBCF88
:10371000EAFF140EEA02F3CFEAFFE902F3CFE9FF72
:10372000F450EA26C10EE926020EEA22120EE9261C
:10373000000EEA2214C0EEFF15C0EDFFFFD0040E0C
:10374000DB2A050E01E3DB2A25D7DF6ADF50146E82
:10375000156A090E145C000E155801E3EDD0DFCF99
:10376000E6FF46EC00F0E5520F013CA7E3D095ECF4
:1037700000F0FD0EDBCFE9FFFE0EDBCFEAFF020E0D
:10378000E926000EEA22EECF14F0EFCF15F0145028
:103790000F01101902E11550111901E0CBD00A0EEA
:1037A000E66EE66AFB0EDBCFE6FFFC0EDBCFE6FF44
:1037B000040EDBCFE9FF050EDBCFEAFF140EEA02B1
:1037C000F3CFEAFFE902F3CFE9FFF450EA26C10E96
:1037D000E926020EEA22E9CF14F0EACF15F014C070
:1037E000E6FF15C0E6FF90EC56F0166E060EE15EA1
:1037F0001650FD0EDBCFE9FFFE0EDBCFEAFFEECF6A
:1038000014F0EFCF15F0040EDBCFE9FF050EDBCF90
:10381000EAFF140EEA02F3CFEAFFE902F3CFE9FF71
:10382000F450EA26C10EE926020EEA220A0EE92623
:10383000000EEA2214C0EEFF15C0EDFFFD0EDBCF37
:10384000E9FFFE0EDBCFEAFF040EE926000EEA22B6
:10385000EECF14F0EECF15F0EECF16F0EFCF17F05D
:10386000040EDBCFE9FF050EDBCFEAFF140EEA0200
:10387000F3CFEAFFE902F3CFE9FFF450EA26C10EE5
:10388000E926020EEA220C0EE926000EEA2214C0F6
:10389000EEFF15C0EEFF16C0EEFF17C0EEFFFD0EE7
:1038A000DBCFE9FFFE0EDBCFEAFF020EE926000EBA
:1038B000EA22EECF14F0EFCF15F0040EDBCFE9FFD4
:1038C000050EDBCFEAFF140EEA02F3CFEAFFE902AE
:1038D000F3CFE9FFF450EA26C10EE926020EEA22F0
:1038E000100EE926000EEA2214C0EEFF15C0EDFF0F
:1038F00022EC58F006C014F007C015F0040EDBCF20
:10390000E9FF050EDBCFEAFF140EEA02F3CFEAFF70
:10391000E902F3CFE9FFF450EA26C10EE926020ED0
:10392000EA22120EE926000EEA2214C0EEFF15C0AC
:10393000EDFF04D0DF2A0AD7000E00D0146E060E69
:10394000E15C02E2E16AE552E16E1450E552E7CF34
:10395000D9FF1200D9CFE6FFE1CFD9FFFD0EDBCFB3
:10396000E9FFFE0EDBCFEAFFEECFE6FFEFCFE6FF8B
:10397000F9EC37F0E552E552F3CF14F0F4CF15F03F
:10398000FD0EDBCFE9FFFE0EDBCFEAFF14C0EEFF3A
:1039900015C0EDFFFD0EDBCFE9FFFE0EDBCFEAFF2A
:1039A000020EE926000EEA22EECFE6FFEFCFE6FF99
:1039B000F9EC37F0E552E552F3CF14F0F4CF15F0FF
:1039C000FD0EDBCFE9FFFE0EDBCFEAFF020EE9269C
:1039D000000EEA2214C0EEFF15C0EDFFFD0EDBCF96
:1039E000E9FFFE0EDBCFEAFF040EE926000EEA2215
:1039F000EECFE6FFEECFE6FFEECFE6FFEFCFE6FF3E
:103A000023EC38F0E552E552E552E55206C014F0D9
:103A100007C015F008C016F009C017F0FD0EDBCF87
:103A2000E9FFFE0EDBCFEAFF040EE926000EEA22D4
:103A300014C0EEFF15C0EEFF16C0EEFF17C0EEFF7C
:103A4000FD0EDBCFE9FFFE0EDBCFEAFF080EE92615
:103A5000000EEA22EECFE6FFEECFE6FFEECFE6FF66
:103A6000EFCFE6FF23EC38F0E552E552E552E552A0
:103A700006C014F007C015F008C016F009C017F012
:103A8000FD0EDBCFE9FFFE0EDBCFEAFF080EE926D5
:103A9000000EEA2214C0EEFF15C0EEFF16C0EEFFC6
:103AA00017C0EEFFFD0EDBCFE9FFFE0EDBCFEAFF16
:103AB0000E0EE926000EEA22EECFE6FFEFCFE6FF7C
:103AC000F9EC37F0E552E552F3CF14F0F4CF15F0EE
:103AD000FD0EDBCFE9FFFE0EDBCFEAFF0E0EE9267F
:103AE000000EEA2214C0EEFF15C0EDFFFD0EDBCF85
:103AF000E9FFFE0EDBCFEAFF100EE926000EEA22F8
:103B0000EECFE6FFEFCFE6FFF9EC37F0E552E552F6
:103B1000F3CF14F0F4CF15F0FD0EDBCFE9FFFE0E6E
:103B2000DBCFEAFF100EE926000EEA2214C0EEFFFA
:103B300015C0EDFFFD0EDBCFE9FFFE0EDBCFEAFF88
:103B4000120EE926000EEA22EECFE6FFEFCFE6FFE7
:103B5000F9EC37F0E552E552F3CF14F0F4CF15F05D
:103B6000FD0EDBCFE9FFFE0EDBCFEAFF120EE926EA
:103B7000000EEA2214C0EEFF15C0EDFFE552E7CFBC
:103B8000D9FF120095EC00F010CF3EFF11CF3FFFA0
:103B900025CF2BFF26CF2CFF25CF2DFF26CF2EFFA5
:103BA00027CF2FFF28CF30FF27CF31FF28CF32FF7D
:103BB0000F013C51080B02E0040E01D00D0E3B6FCB
:103BC0003C913C933C953C993C9B3C9D3C9F3D915A
:103BD0003D933D953D973D892291229322972299CD
:103BE00025CF0CFF26CF0DFF7DEC53F0F3CF04FF64
:103BF000F4CF05FF7DEC53F0F3CF06FFF4CF07FFC2
:103C00000F0120692169010E126F136B1200D9CFC9
:103C1000E6FFE1CFD9FF1A0EE126FD0EDBCFE9FF6B
:103C2000FE0EDBCFEAFF0D0EE926000EEA220E0E95
:103C3000EFCFDBFFFD0EDBCFE9FFFE0EDBCFEAFFB0
:103C4000080EE926000EEA220F0EEECFDBFF100E63
:103C5000EECFDBFF110EEECFDBFF120EEECFDBFF60
:103C6000FD0EDBCFE9FFFE0EDBCFEAFF040EE926F7
:103C7000000EEA22130EEECFDBFF140EEECFDBFFB9
:103C8000150EEECFDBFF160EEECFDBFF0F013C91E2
:103C90003C933C953CB913D017EC58F006C033FF69
:103CA00007C034FF08C035FF09C036FF740E0F018E
:103CB0003327350E3423060E3523000E36233B51B1
:103CC000050A57E0010A15E0FB0EDBCF08F0FC0EF9
:103CD000DBCF09F0170E08C0DBFF180E09C0DBFFB1
:103CE0000E0EDBA0CDD0170EDB2A180E01E2C8D0D5
:103CF000C6D00E0EDBA403D045DFC6EF27F0DBA84D
:103D000016D00F0EDBCF04FF100EDBCF05FF110E18
:103D1000DBCF06FF120EDBCF07FFE66A040EE66E6E
:103D200015EC15F0E552E5522DDFC6EF27F0DBA2CA
:103D30001DD0130EDBCF08FF140EDBCF09FF150ECD
:103D4000DBCF0AFF160EDBCF0BFF082B000E09237B
:103D50000A230B23010EE66E120EE66E15EC15F02B
:103D6000E552E5520F01060E3B6F01D00BDFC6EFA7
:103D700027F00E0EDBA402D0C6EF27F0DBA840D060
:103D8000D9500F0FE96EDACFEAFFEE50041909E1BE
:103D9000EE50051906E1EE50061903E1EE50071941
:103DA00000E12EE0130E04CFDBFF140E05CFDBFF86
:103DB000150E06CFDBFF160E07CFDBFF0F0EDBCF96
:103DC00004FF100EDBCF05FF110EDBCF06FF120E36
:103DD000DBCF07FF010EE66E040EE66E15EC15F064
:103DE000E552E552130EDBCF04FF140EDBCF05FFC7
:103DF000150EDBCF06FF160EDBCF07FFC6EF27F051
:103E00000E0EDBA23AD0130EDBCF08FF140EDBCF71
:103E100009FF150EDBCF0AFF160EDBCF0BFF082BB9
:103E2000000E09230A230B23FD0EDBCFE9FFFE0E54
:103E3000DBCFEAFF0E0EE926000EEA22EECF12FFDC
:103E4000EDCF13FF0E0EDBA80DD0010EE66E100EA7
:103E5000E66E15EC15F0E552E5520F01070E3B6FCB
:103E60003C990BD0010EE66E120EE66E15EC15F0C5
:103E7000E552E5520F01060E3B6FC6EF27F0DB2A35
:103E80000E0EDBA205D0170EDB2A180E01E3DB2A8B
:103E900031512F5D3251305919E32751295D166E8A
:103EA0002A512855176E31512F5D186E30513255F9
:103EB000196E1850165C146E19501758156E0C0EAA
:103EC00014C0DBFF0D0E15C0DBFF0FD02F51315D8D
:103ED000146E32513055156E1406000E155A0C0E24
:103EE00014C0DBFF0D0E15C0DBFFD950130FE96EB8
:103EF000DACFEAFF0851EE5C146E0951EE58156EE8
:103F00000A51EE58166E0B51EE58176E060E14C07D
:103F1000DBFF070E15C0DBFF080E16C0DBFF090E26
:103F200017C0DBFF060EDBCF08F0070EDBCF09F072
:103F30000A0E08C0DBFF0B0E09C0DBFF190EDB6A9F
:103F4000D950170FE96EDACFEAFFEE50ED1001E11C
:103F5000D0D0D9500C0FE96EDACFEAFFEE50ED1059
:103F600001E1C6D0D950060FE96EDACFEAFFD8904A
:103F7000030EEB50000A08E6000EEE5C000EEE5851
:103F8000000EEE58000EEE5829E30C0EDBCF14F0B5
:103F90000D0EDBCF15F0166A176A060EDBCF07F0A1
:103FA000070EDBCF08F0080EDBCF09F0090EDBCFE0
:103FB0000AF00A501718E8AE02D0173408D014508F
:103FC000075C155008581650095817500A5806E251
:103FD000010EF36E190EF3CFDBFF53D0170EDBCFBC
:103FE00014F0180EDBCF15F0166A176AD950060FB9
:103FF000E96EDACFEAFFEE501426EE501522EE50AD
:104000001622EE5017221734000E171809E6D88032
:10401000000E1454000E1554000E1654000E1754C2
:1040200030E20C0EDBCF1CF00D0EDBCF1DF0170EB7
:10403000DB501C5C186E180EDB501D58196E1A6A86
:104040001B6A19AE02D01A681B68D950060FE96EB8
:10405000DACFEAFF030EEBCFF3FF1B50F318E8AE05
:1040600002D0F33408D0EE50185CEE501958EE50E0
:104070001A58EE501B5805E3010EF36E190EF3CFDC
:10408000DBFF0C0EDBCF14F00D0EDBCF15F0166A44
:10409000176AD950060FE96EDACFEAFF030EEB502C
:1040A0001718E8AE02D0173408D01450EE5C155043
:1040B000EE581650EE581750EE581AE2170EDBCF96
:1040C0001AF0180EDBCF1BF00A0EDB501A24186E04
:1040D0000B0EDB501B20196E193404E21850000837
:1040E000000E195405E2010EF36E190EF3CFDBFF3B
:1040F00052D0060EDBCF14F0070EDBCF15F0080E02
:10410000DBCF16F0090EDBCF17F014501510161088
:10411000171006E1010EF36E190EF3CFDBFF3BD053
:10412000D950060FE96EDACFEAFFD890030EEB50B4
:10413000000A08E6000EEE5C000EEE58000EEE5887
:10414000000EEE5828E30C0EDBCF14F00D0EDBCF83
:1041500015F0166A176A060EDBCF07F0070EDBCFE5
:1041600008F0080EDBCF09F0090EDBCF0AF00A5089
:104170001718E8AE02D0173408D01450075C155059
:1041800008581650095817500A5805E2010EF36EE8
:10419000190EF3CFDBFF190EDB500DE10E0EDBB471
:1041A00008D0010EE66E100EE66E15EC15F0E55225
:1041B000E552C6EF27F00E0EDB50060B03E0E2DC03
:1041C000C6EF27F00E0EDBB802D0C6EF27F03B514A
:1041D0000C0A01E1BCD20B0A4DE00F0A4BE0010AC8
:1041E00049E0020A47E0010A45E00C0A01E0C5D2B5
:1041F000D9500F0FE96EDACFEAFFEE50041909E14A
:10420000EE50051906E1EE50061903E1EE500719CC
:1042100000E12EE0130E04CFDBFF140E05CFDBFF11
:10422000150E06CFDBFF160E07CFDBFF0F0EDBCF21
:1042300004FF100EDBCF05FF110EDBCF06FF120EC1
:10424000DBCF07FF010EE66E040EE66E15EC15F0EF
:10425000E552E552130EDBCF04FF140EDBCF05FF52
:10426000150EDBCF06FF160EDBCF07FFC6EF27F0DC
:10427000070E3B6F0C512B5D146E2C510D55156EB6
:10428000040E14C0DBFF050E15C0DBFF040EDBCFF0
:1042900014F0050EDBCF15F00001800E151410E0B0
:1042A0000F012551275D146E28512655156ED950E2
:1042B000040FE96EDACFEAFF1450EE261550ED2216
:1042C000040EDBCF14F0050EDBCF15F0166A176A6B
:1042D000040EE96E0F0EEA6EEE501426EE50152213
:1042E000EE501622EE50172214C0DFFF010E15C04B
:1042F000DBFF020E16C0DBFF030E17C0DBFF0F0E45
:10430000DBCF18F0100EDBCF19F0110EDBCF1AF057
:10431000120EDBCF1BF0D9CFE9FFDACFEAFF18503E
:10432000EE5C146E1950EE58156E1A50EE58166E5B
:104330001B50EE58176E0001800E171409E0E66A54
:10434000100EE66E15EC15F0E552E552C6EF27F0BB
:104350000F012D510C5D186E0D512E55196E1A6AF4
:104360001B6A19AE02D01A681B681850045D146EDF
:1043700019500559156E1A500659166E1B500759DB
:10438000176E14C0DFFF010E15C0DBFF020E16C052
:10439000DBFF030E17C0DBFF2D510C5D2E510D59B5
:1043A00014E22551275D146E28512655156E166AA4
:1043B000176AD9CFE9FFDACFEAFF1450EE5E155045
:1043C000EE5A1650EE5A1750EE5A0F0EDBCF18F079
:1043D000100EDBCF19F0110EDBCF1AF0120EDBCF6F
:1043E0001BF0D9CFE9FFDACFEAFFEE50185C146E6C
:1043F000EE501958156EEE501A58166EEE501B58A6
:10440000176E14C0DFFF010E15C0DBFF020E16C0D1
:10441000DBFF030E17C0DBFFDECF07F0DECF08F0B7
:10442000DECF09F0DDCF0AF0DD52DD520A34000E96
:104430000A1809E6D880000E0754000E0854000E32
:104440000954000E0A5401E3A2D02551275D146ED1
:1044500028512655156E166A176AD9CFE9FFDACFAB
:10446000EAFFEE50145CEE501558EE501658EE5020
:10447000175801E28CD0229722993D91040E2DCF3E
:10448000DBFF050E2ECFDBFFD9CFE9FFDACFEAFF46
:10449000EE502D27EE502E23040EDBCF14F0050E28
:1044A000DBCF15F014500C5D15500D591BE32D5149
:1044B0000C5D2E510D5915E20C512D5D146E2E51CF
:1044C0000D55156E000114500F0104270001155001
:1044D0000F010523000E062307232DCF0CFF2ECF3F
:1044E0000DFF36D02551275D166E28512655176EC3
:1044F0000C511624146E0D511720156E040E14C0A5
:10450000DBFF050E15C0DBFF040EDBCF14F0050E3C
:10451000DBCF15F02D51145C2E51155819E2040E05
:10452000DB502D5D0001146E050EDB500F012E597E
:104530000001156E14500F010427000115500F01E2
:104540000523000E062307232DCF0CFF2ECF0DFFD2
:1045500027512D5D28512E590AE32551275D146EF0
:1045600028512655156E14502D5F15502E5B27517E
:104570000C5D28510D590AE32551275D146E285111
:104580002655156E14500C5F15500D5B3ED00C5126
:104590002D1902E10D512E1938E022A735D022A99C
:1045A00032D02D510C5D146E0D512E55156E166ABC
:1045B000176A15AE02D0166817681450045F1550BC
:1045C000055B1650065B1750075B2D510C5D2E5195
:1045D0000D5914E22551275D146E28512655156E8C
:1045E000166A176A15AE02D0166817681450045F71
:1045F0001550055B1650065B1750075B2DCF0CFF5F
:104600002ECF0DFF3D85228922872B512D1902E1E6
:104610002C512E1919E13DB702D03C9915D0D95033
:104620000F0FE96EDACFEAFF0451EE1809E10551E8
:10463000EE1806E10651EE1803E10751EE1800E10D
:1046400003E13C993D972291125113110EE1FD0EA9
:10465000DBCFE9FFFE0EDBCFEAFF0E0EE926000EF0
:10466000EA22EE50ED1001E03D83FD0EDBCFE9FFC5
:10467000FE0EDBCFEAFF0E0EE926000EEA22EECF99
:1046800012FFEDCF13FF080E3B5D29E1D9500F0F4C
:10469000E96EDACFEAFF0451EE1809E10551EE1890
:1046A00006E10651EE1803E10751EE1800E116E1AC
:1046B00017EC58F006C033FF07C034FF08C035FFC1
:1046C00009C036FFBA0E0F0133271A0E3423030E2A
:1046D0003523000E36233C89090E3B6F37D0090E77
:1046E0003B5D1BE10E0EDBB017D00F0EDBCF04FFDE
:1046F000100EDBCF05FF110EDBCF06FF120EDBCF56
:1047000007FFE66A140EE66E15EC15F0E552E55269
:10471000C2EC1DF0C6EF27F019D00A0E3B5D16E182
:10472000D9500F0FE96EDACFEAFF0451EE1809E114
:104730000551EE1806E10651EE1803E10751EE1897
:1047400000E102E1C2EC1DF0C6EF27F017D0D9500E
:104750000F0FE96EDACFEAFF0451EE1809E10551B7
:10476000EE1806E10651EE1803E10751EE1800E1DC
:1047700002E1C2EC1DF0C6EF27F000D00E0EDBAA5E
:1047800002D0C6EF27F00B0E3B5D02E1C6EF27F02B
:104790000A0E3B5D02E1C6EF27F00C0E3B5D02E125
:1047A000C6EF27F0D950FB0FE96EFF0EDA20EA6E54
:1047B000EE50ED1001E131D30A0EDBCF14F00B0EF9
:1047C000DBCF15F0153404E214500008000E155428
:1047D00001E250D1FD0EDBCFE9FFFE0EDBCFEAFF99
:1047E0000C0EE926000EEA22EF50F00BE842E842F8
:1047F000E842E842040DF350166E176A0A0EDB50C9
:10480000165C146E0B0EDB501758156E14C0E6FFC5
:1048100015C0E6FF8BEC4FF0E552E5520A0EDBCFF8
:1048200014F00B0EDBCF15F0D950FB0FE96EFF0E25
:10483000DA20EA6E1450EE261550ED22FB0EDBCF87
:1048400014F0FC0EDBCF15F00C0EDBCF16F00D0EC6
:10485000DBCF17F01450165C155017580CE20C0EF5
:10486000DBCF08F00D0EDBCF09F0FB0E08C0DBFF3D
:10487000FC0E09C0DBFFFB0EDBCF14F0FC0EDBCF20
:1048800015F0000114500F010827000115500F0109
:104890000923000E0A230B23FB0EDB502F250001FA
:1048A000146EFC0EDB500F0130210001156E0F015C
:1048B0001450295D15502A595CE22F51295D146E60
:1048C0002A513055156E010E1426000E1522040EC5
:1048D00014C0DBFF050E15C0DBFF040EDBCFE6FFC7
:1048E000050EDBCFE6FFE66AE668E66840CFE6FF46
:1048F0002FCFE6FF30CFE6FF65EC29F0146E080EEF
:10490000E15E1450FB0EDBCF16F0FC0EDBCF17F090
:10491000040EDB50165C146E050EDB501758156E36
:1049200014C0E6FF15C0E6FFE66AE668E66840CF19
:10493000E6FF27CFE6FF28CFE6FF65EC29F0186EEB
:10494000080EE15E1850FB0EDBCF16F0FC0EDBCF3D
:1049500017F0040EDB50165C146E050EDB50175872
:10496000156E0F01275114242F6F28511520306F19
:1049700020D0FB0EDBCFE6FFFC0EDBCFE6FFE66AC6
:10498000E668E66840CFE6FF2FCFE6FF30CFE6FFD0
:1049900065EC29F0146E080EE15E1450FB0EDBCFBF
:1049A00008F0FC0EDBCF09F008500F012F2709504B
:1049B0003023201D01E1211D5CE0FB0EDBCF08F060
:1049C000FC0EDBCF09F00850205F0950215B145129
:1049D0002025146E15512121156E040E14C0DBFF25
:1049E000050E15C0DBFF040EDBCF14F0050EDBCF88
:1049F00015F00001800E151404E00F0120692169F3
:104A000038D00F01213504E220510008000E215555
:104A100030E3040EDBCF14F0050EDBCF15F0000100
:104A200014500F010827000115500F010923000E33
:104A30000A230B23040EDBCF08F0050EDBCF09F0B1
:104A400008502F27095030232F51295D30512A5902
:104A50000EE22751295D146E2A512855156E010E5C
:104A60001426000E152214502F5F1550305B20695C
:104A70002169D3D10A0EDBCF14F00B0EDBCF15F07A
:104A8000153404E214500008000E155401E3C5D19A
:104A90000A0EDBCF16F00B0EDBCF17F0FB0EDB5050
:104AA0001624146EFC0EDB501720156E0C0EDBCF97
:104AB00018F00D0EDBCF19F01450185C1550195872
:104AC00014E20C0EDBCF16F00D0EDBCF17F00A0E42
:104AD000DB50165C146E0B0EDB501758156EFB0E78
:104AE00014C0DBFFFC0E15C0DBFFFD0EDBCFE9FFC2
:104AF000FE0EDBCFEAFF0C0EE926000EEA22EF5095
:104B0000F00BE842E842E842E842040DF350E66E5A
:104B1000E66A8BEC4FF0E552E5520A0EDB500F01CE
:104B20002F250001166E0B0EDB500F013021000106
:104B3000176EFB0EDB501624146EFC0EDB50172094
:104B4000156E0F011450295D15502A5901E395D0B7
:104B50002F51295D166E2A513055176E010E1626FB
:104B6000000E17220A0EDB50165C146E0B0EDB5083
:104B70001758156E040E14C0DBFF050E15C0DBFFC1
:104B8000040EDBCF14F0050EDBCF15F00001800E14
:104B9000151441E1040EDBCFE6FF050EDBCFE6FF87
:104BA000E66AE668E66840CFE6FF0A0EDB500F01D2
:104BB0002F250001146E0B0EDB500F013021000178
:104BC000156E14C0E6FF15C0E6FF7FDB166E080EFB
:104BD000E15E1650FB0EDBCF16F0FC0EDBCF17F0BC
:104BE000040EDB50165C146E050EDB501758156E64
:104BF00014C0E6FF15C0E6FFE66AE668E66840CF47
:104C0000E6FF27CFE6FF28CFE6FF5FDB186E080E32
:104C1000E15E185031D0FB0EDBCFE6FFFC0EDBCFA0
:104C2000E6FFE66AE668E66840CFE6FF0A0EDB507C
:104C30000F012F250001166E0B0EDB500F013021E6
:104C40000001176E0F012751295D186E2A51285552
:104C5000196E010E1826000E19221850165C146EDB
:104C600019501758156E14C0E6FF15C0E6FF2DDB6E
:104C70001A6E080EE15E1A501FD0FB0EDBCFE6FF66
:104C8000FC0EDBCFE6FFE66AE668E66840CFE6FFAB
:104C90000A0EDB502F250001146E0B0EDB500F01A6
:104CA00030210001156E14C0E6FF15C0E6FF0DDBD4
:104CB000166E080EE15E16500F01201D01E1211D48
:104CC0000DE10A0EDBCF20FF0B0EDBCF21FFFB0E29
:104CD000DBCF14FFFC0EDBCF15FF9FD00A0EDBCF1E
:104CE00014F00B0EDBCF15F02051145C2151155838
:104CF0004CE2FB0EDBCF16F0FC0EDBCF17F00A0EFA
:104D0000DB501624146E0B0EDB501720156E20514D
:104D10001425186E21511521196E1450185C155068
:104D2000195813E3FB0EDBCF1CF0FC0EDBCF1DF09C
:104D30000A0EDB501C241A6E0B0EDB501D201B6E5E
:104D400020511A5C21511B5807E2FB0EDBCF14FFE8
:104D5000FC0EDBCF15FF12D020511425146E21510B
:104D60001521156E0A0EDB500001145C0F01146F43
:104D70000B0EDB50000115580F01156F0A0EDBCF2B
:104D800020FF0B0EDBCF21FF48D0FB0EDBCF16F050
:104D9000FC0EDBCF17F00A0EDB501624146E0B0E40
:104DA000DB501720156E20511425186E2151152146
:104DB000196E1450185C155019582FE20A0EDBCFEB
:104DC00014F00B0EDBCF15F020511425166E215177
:104DD0001521176E1450165C155017581EE3FB0E64
:104DE000DBCF1AF0FC0EDBCF1BF00A0EDB501A24CF
:104DF000186E0B0EDB501B20196E2051185C166EBE
:104E000021511958176E1451165C146E155117580C
:104E1000156E1450142715501523D950170FE96E2D
:104E2000DACFEAFFEE50ED1023E0070E3B5D04E021
:104E30002FCF31FF30CF32FF3CAF0BD0010EE66EEB
:104E4000100EE66E15EC15F0E552E55295EC00F00B
:104E50000FD03C8F3CBD0CD03C8D22EC58F006C0EE
:104E600039FF07C03AFF0F0E0F013927000E3A2312
:104E70000E0EDBA08BD008CF14F009CF15F00ACFAF
:104E800016F00BCF17F0142A000E15221622172247
:104E9000170EDBCF18F0180EDBCF19F01A6A1B6A59
:104EA000D950130FE96EDACFEAFFEE501826EE5014
:104EB0001922EE501A22EE501B221450181809E144
:104EC0001550191806E116501A1803E117501B184F
:104ED00000E15CE10F01082B000E09230A230B23DC
:104EE0003B51090A40E0010A1EE00F0A0EE0010AE8
:104EF00001E043D00C0E3B6F010EE66E110EE66E24
:104F000015EC15F0E552E55241D00B0E3B6F22EC4B
:104F100058F006C039FF07C03AFF1F0E0F013927AE
:104F2000000E3A232BD0D9500F0FE96EDACFEAFFEB
:104F30000451EE1809E10551EE1806E10651EE188C
:104F400003E10751EE1800E10BE1E66A100EE66E90
:104F500015EC15F0E552E552C2EC1DF017D002D069
:104F60000A0E3B6F0BD0E66A100EE66E15EC15F0DC
:104F7000E552E552C2EC1DF009D000D0010EE66EFC
:104F8000100EE66E15EC15F0E552E5521A0EE15CD6
:104F900002E2E16AE552E16EE552E7CFD9FF120085
:104FA000D9CFE6FFE1CFD9FF060EE126FE0EDBCF1B
:104FB000E6FF46EC00F0E552D950FC0FE96EFF0E1B
:104FC000DA20EA6EEE50ED1007E1010EF36EFC0EF2
:104FD000F3CFDBFFFD0EDB6A0F012551295D146E57
:104FE0002A512655156E1406000E155A14C0DEFF00
:104FF00015C0DDFFFA0EDBCF16F0FB0EDBCF17F08E
:10500000FC0EDB501624146EFD0EDB501720156EBF
:10501000DECF18F0DDCF19F01450185C1550195878
:1050200002E2000E46D195EC00F0F90EDB50030BC6
:1050300003E1F90EDB80DB82FA0EDBCF08F0FB0E1A
:10504000DBCF09F0040E08C0DBFF050E09C0DBFF53
:10505000FA0EDBCF16F0FB0EDBCF17F0FC0EDB50A9
:105060001624146EFD0EDB501720156ED9CFE9FF04
:10507000DACFEAFF1450EE5E1550ED5AF90EDBA2BE
:1050800020D0DBA011D0DECF14F0DDCF15F0D8900A
:1050900015321432D950040FE96EDACFEAFF1450FA
:1050A000EE261550ED220DD0DECF14F0DDCF15F039
:1050B000D950040FE96EDACFEAFF1450EE261550EE
:1050C000ED22040EDB500F0125250001146E050EA4
:1050D000DB500F0126210001156E010E1426000E73
:1050E000152214C0DEFF15C0DDFF020E2FCFDBFF3F
:1050F000030E30CFDBFF0F01201D01E1211D2DE04C
:1051000020511425146E21511521156ED950020F0E
:10511000E96EDACFEAFF1450EE261550ED22020EAA
:10512000DBCF14F0030EDBCF15F01450295D1550C2
:105130002A5913E22751295D146E2A512855156EFC
:10514000010E1426000E1522D950020FE96EDACF97
:10515000EAFF1450EE5E1550ED5A020EDBCF14F04C
:10516000030EDBCF15F01450315D1550325918E2A3
:10517000DECF14F0DDCF15F01450315D15503259EB
:105180000EE2F90EDBA403D0000E93D008D0DECFE0
:1051900031FFDDCF32FFDECF2FFFDDCF30FF2BD051
:1051A000020EDBCF14F0030EDBCF15F03151145C8F
:1051B0003251155818E2DECF14F0DDCF15F014503F
:1051C000275D155028590EE2F90EDBA403D0000E1E
:1051D00070D008D0DECF31FFDDCF32FFDECF2FFF22
:1051E000DDCF30FF08D0DECF31FFDDCF32FFDECFA5
:1051F0002FFFDDCF30FF020EDBCF14F0030EDBCF2D
:1052000015F00F013151145C3251155835E2F90E89
:10521000DB50040B31E0020EDBCF08F0030EDBCFD6
:1052200009F02751085C146E28510958156E14C0F6
:10523000E6FF15C0E6FF40CFE6FF27CFE6FF28CF09
:10524000E6FF40CFE6FFDECFE6FFDDCFE6FF3DD84D
:10525000166E080EE15E16500F0131512F5D32516E
:1052600030590AE2DE50275D146EDD502859156E64
:1052700014502F5F1550305BDECF27FFDDCF28FFA6
:1052800025CF0CFF26CF0DFF25CF2DFF26CF2EFFDC
:1052900025CF2BFF26CF2CFF070E3B5D08E1010E2B
:1052A000E66E100EE66E15EC15F0E552E552010EB5
:1052B00000D0146E060EE15C02E2E16AE552E16E96
:1052C0001450E552E7CFD9FF1200D9CFE6FFE1CF66
:1052D000D9FFF90EDB504AE0010A01E093D0FC0E41
:1052E000DB501CE0010A01E040D0F70EDBCFE6FF07
:1052F000F80EDBCFE6FFFA0EDBCFE6FFFB0EDBCFCF
:10530000E6FFFD0EDBCFE6FFFE0EDBCFE6FF90EC07
:1053100056F0146E060EE15E145027D0D950FD0FE2
:10532000E96EFF0EDA20EA6EEE52EF50800B0AE1D2
:10533000FD0EDBCFE6FFFE0EDBCFE6FF93EC3CF08D
:10534000E552E552F70EDBCFE6FFF80EDBCFE6FFC6
:10535000FA0EDBCFE6FFFB0EDBCFE6FFD7EC3FF02C
:10536000E552E552E552E55200D04CD0FC0EDB5040
:105370002AE0010A01E045D0D950FA0FE96EFF0E8C
:10538000DA20EA6EEE52EF50800B0AE1FA0EDBCF24
:10539000E6FFFB0EDBCFE6FFB6EC3CF0E552E55254
:1053A000F70EDBCFE6FFF80EDBCFE6FFFD0EDBCF1F
:1053B000E6FFFE0EDBCFE6FF7AEC3FF0E552E5526A
:1053C000E552E5521ED0F70EDBCFE6FFF80EDBCF3D
:1053D000E6FFFA0EDBCFE6FFFB0EDBCFE6FFFD0EAE
:1053E000DBCFE6FFFE0EDBCFE6FF3CEC3EF0146EBB
:1053F000060EE15E145070EC3FF0000901E1FBD7AE
:1054000000D000D0E552E7CFD9FF1200D9CFE6FF98
:10541000E1CFD9FF120EE126FC0EDB501FE0010A9E
:1054200001E0AAD0F70EDBCFE6FFF80EDBCFE6FFF8
:10543000F90EDBCFE6FFFA0EDBCFE6FFFB0EDBCF8C
:10544000E6FFFD0EDBCFE6FFFE0EDBCFE6FFBBEC9B
:1054500056F0146E070EE15E14508ED0D950FD0F39
:10546000E96EFF0EDA20EA6EEE52EF50800B0AE191
:10547000FD0EDBCFE6FFFE0EDBCFE6FF93EC3CF04C
:10548000E552E552100EF36EF3CFDBFF110EDB6A2F
:10549000D950F70FE96EFF0EDA20EA6EEE50ED10EC
:1054A0006AE0100EDBCF14F0110EDBCF15F0F70E13
:1054B000DBCF16F0F80EDBCF17F01450165C15504A
:1054C00017580CE2F70EDBCF08F0F80EDBCF09F02F
:1054D000100E08C0DBFF110E09C0DBFF100EDBCF82
:1054E000E6FF110EDBCFE6FFF90EDBCFE6FFFA0E8B
:1054F000DBCFE6FFFB0EDBCFE6FFD9CFE6FFDACF4F
:10550000E6FFBBEC56F0146E070EE15E1450100E71
:10551000DBCFE6FF110EDBCFE6FFD9CFE6FFDACF18
:10552000E6FFD7EC3FF0E552E552E552E552100EAA
:10553000DBCF14F0110EDBCF15F0166AD950F90F3E
:10554000E96EFF0EDA20EA6E1450EE261550EE22B8
:105550001650EE22100EDBCF14F0110EDBCF15F03B
:10556000D950F70FE96EFF0EDA20EA6E1450EE5EA6
:105570001550ED5A8DD700D0120EE15C02E2E16ABF
:0C558000E552E16EE552E7CFD9FF1200C2
:04558C00D9CFE6FF8E
:10559000E1CFD9FFE652DF6A0A0EDF5C06E2DFCF19
:1055A000E6FFE0D8E552DF2AF7D70001F583E552A0
:1055B000E552E7CFD9FF12000201FD691200D9CFF1
:1055C000E6FFE1CFD9FF030EE126D950010FE96EC6
:1055D000DACFEAFF600EEE6E000EED6EDF6A0A0EA5
:1055E000DF5C01E3B1D0010EDBCFE9FF020EDBCFC0
:1055F000EAFF0C0EE926000EEA22EECF14F0EFCF00
:1056000015F0166A176A145015101610171001E0DD
:1056100090D0010EDBCFE9FF020EDBCFEAFF0C0ECC
:10562000E926000EEA22FD0EDBCFEEFFFE0EDBCFF9
:10563000EDFFD950FD0FE96EFF0EDA20EA6EEE5055
:10564000ED1024E10001000ED880F655200EF7552C
:1056500005E3000EF65D100EF75903E2F66B100E2F
:10566000F76FF6C014F0F7C015F0F62B000EF72315
:10567000010EDBCFE9FF020EDBCFEAFF0C0EE926BD
:10568000000EEA2214C0EEFF15C0EDFFD950FB0F4B
:10569000E96EFF0EDA20EA6EEE50ED101EE00A0E03
:1056A000E66EE66AFB0EDBCFE6FFFC0EDBCFE6FF25
:1056B000010EDBCFE9FF020EDBCFEAFFE9CF14F0EA
:1056C000EACF15F014C0E6FF15C0E6FF90EC56F0E7
:1056D000166E060EE15E165018D00A0EE66EE66AE9
:1056E000E668010EDBCFE9FF020EDBCFEAFFE9CF70
:1056F00014F0EACF15F014C0E6FF15C0E6FFDEECAB
:1057000056F0166E050EE15E1650010EDBCFE9FF76
:10571000020EDBCFEAFF0A0EE926000EEA22F90E9E
:10572000DBCFEEFFFA0EDBCFEDFFDFCFECF0DF508B
:105730000DD0D950010FE96EDACFEAFF0E0EEE263A
:10574000000EEF22DF2A4BD7FF0E00D0146E030E9F
:10575000E15C02E2E16AE552E16E1450E552E7CF06
:10576000D9FF1200D9CFE6FFE1CFD9FFFE0EDB5003
:10577000FF0801E120D0FE0EDB500E0DF3CFE9FF54
:10578000F4CFEAFF600EE926000EEA220C0EE926AD
:10579000000EEA22EE6AED6AFE0EDB500E0DF3CF2C
:1057A000E9FFF4CFEAFF600EE926000EEA22EE6A76
:1057B000EE6AEE6AEE6AE552E7CFD9FF1200D9CF62
:1057C000E6FFE1CFD9FF080EE76EFD0EDBCF14F048
:1057D000FE0EDBCF15F0E7501426000E1522166AD8
:1057E000176AE00E14260E0E1522000E162217223E
:1057F0000E0E1426000E152216221722140E142641
:10580000000E15221622172214C0E6FF15C0E6FF6F
:1058100093EC3CF0E552E552FD0EDBCFF1F0FE0ECD
:10582000DBCFF2F0E552E7CFD9FF1200D9CFE6FF88
:10583000E1CFD9FF080EE76EFD0EDBCF14F0FE0EB0
:10584000DBCF15F0E7501426000E152214C0E6FF3A
:1058500015C0E6FF8BEC4FF0E552E552FD0EDBCFB5
:10586000F3F0FE0EDBCFF4F0E552E7CFD9FF1200E4
:10587000D9CFE6FFE1CFD9FF5AEC3AF0000903E1B6
:10588000F36AF46A31D0FE0EDB500201FD5D0CE0DC
:10589000FE0EDBCFFDF20001ED6BEE6B000EE66E4F
:1058A000E66A8DDFE552E552FE0EDBCFECF0C00E6E
:1058B000186E050E196E1A6A1B6AEDC01CF0EEC058
:1058C0001DF01E6A1F6A1C50185C146E1D5019587A
:1058D000156E1E501A58166E1F501B58176E14C0A6
:1058E000F3FF15C0F4FF00D0E552E7CFD9FF120057
:1058F000D9CFE6FFE1CFD9FFF1C014F0F2C015F027
:10590000166A176AC00E145C050E1558000E16585C
:10591000000E175802E3000E15D0FE0EDBCFE6FF97
:10592000CAEC3FF0E5520001F12B000EF223F151D9
:10593000ED5DF251EE5904E2F1C0EDF0F2C0EEF08F
:10594000010E00D0E552E7CFD9FF1200D9CFE6FF14
:10595000E1CFD9FF020EE126C00E186E050E196EBA
:105960001A6A1B6AF1C01CF0F2C01DF01E6A1F6AA1
:105970001C50185C146E1D501958156E1E501A5884
:10598000166E1F501B58176E14C0DEFF15C0DDFFCA
:10599000DECF14F0DDCF15F0FB0EDBCF16F0FC0EE2
:1059A000DBCF17F01650145C175015580AE2D9CF08
:1059B000E9FFDACFEAFFFB0EEECFDBFFFC0EEDCF07
:1059C000DBFFFB0EDBCF08F0FC0EDBCF09F008504D
:1059D0000001F1270950F223F151ED5DF251EE592A
:1059E00004E2F1C0EDF0F2C0EEF0FB0EDBCFE6FF1B
:1059F000FC0EDBCFE6FFFD0EDBCFE6FFFE0EDBCFBE
:105A0000E6FFD7EC3FF0E552E552E552E552FB0EDA
:105A1000DBCF14F0FC0EDBCF15F014C0F3FF15C084
:105A2000F4FF020EE15C03E200D0E16AE552E16EB0
:105A3000E552E7CFD9FF1200D9CFE6FFE1CFD9FF7A
:105A4000020EE126C00E186E050E196E1A6A1B6A48
:105A5000F1C01CF0F2C01DF01E6A1F6A1C50185CD9
:105A6000146E1D501958156E1E501A58166E1F5080
:105A70001B58176E14C0DEFF15C0DDFFDECF14F01B
:105A8000DDCF15F0FA0EDBCF16F0FB0EDBCF17F0F3
:105A90001650145C175015580AE2D9CFE9FFDACF37
:105AA000EAFFFA0EEECFDBFFFB0EEDCFDBFFFA0EC7
