:020000040000FA
:0600000063EF0CF012009A
:06002A000100F7180000C0
:08003000000100004300000084
:08003800D9CFE6FFE1CFD9FFAB
:10004000020EE1260F0EC112070EB46E060E896E67
:100050008A6A030E8B6E380E926E010E936E380E06
:10006000946E140E6F6E0001FB6B0001FC6B0001BF
:10007000FD6B36EC0AF01A0EE66E010EE66E16EC1B
:100080000AF0E552E552F40EE66E4CEC0CF0E55247
:100090000101E80E006F030E016F026B036B08C1D4
:1000A000E6FF00C1E6FF01C1E6FF02C1E6FF03C1B2
:1000B000E6FF50D9F56E050EE15EF55092DA640E5A
:1000C000E66E4CEC0CF0E55280EC0AF06FBE02D00C
:1000D0009FEC0AF0F1EC04F0060E0001FB5D01E27A
:1000E000F5D06D50020B01E0F1D0400EE66E600ECF
:1000F000E66E000EE66E36EC04F0E552E552E5528F
:10010000000901E1E3D08B7000016051330A01E185
:1001100078D0010A22E0030A0FE0010A01E0C6D00C
:100120000001E15108E1F40EE66E180EE66EB3EC44
:1001300004F0E552E552BAD00001E1510DE10001B1
:10014000100EE26F010EE36F0001060EE66F000174
:10015000E76B0001010EE16FA9D00101006B016B9B
:10016000026B036BDE6ADD6ADECF14F0DDCF15F0C3
:10017000D890155004E6060E145C000E15583FE2A8
:10018000DECFE9FFDDCFEAFF010EE926000EEA220D
:10019000600EE926000EEA22EF50D00F146E156AA9
:1001A000166A176A14AE03D015681668176800C17E
:1001B00004F001C105F002C106F003C107F00A0E08
:1001C000096E0A6A0B6A0C6AF0EC0BF00050000131
:1001D00014240101006F0150000115200101016F7D
:1001E0000250000116200101026F03500001172088
:1001F0000101036FDF2A010E01E3DB2AB5D7086B8B
:1002000055D00101006B016B026B036BDE6ADD6A86
:10021000DECF14F0DDCF15F0D890155004E6060EB1
:10022000145C000E15583FE2DECFE9FFDDCFEAFF98
:10023000010EE926000EEA22600EE926000EEA22EF
:10024000EF50D00F146E156A166A176A14AE03D0F9
:1002500015681668176800C104F001C105F002C1F5
:1002600006F003C107F00A0E096E0A6A0B6A0C6AEF
:10027000F0EC0BF00050000114240101006F01505C
:10028000000115200101016F02500001162001013B
:10029000026F0350000117200101036FDF2A010ED6
:1002A00001E3DB2AB5D7010E086F00D008C1E6FFD5
:1002B00000C1E6FF01C1E6FF02C1E6FF03C1E6FFA0
:1002C00049D8F56E050EE15EF5508BD980A608D0B1
:1002D0000101E80E046F030E056F066B076B06D075
:1002E00001010A0E046F056B066B076B80B825D001
:1002F00080BA09D004510027055101230651022379
:100300000751032308D00451005F0551015B0651DA
:10031000025B0751035B08C1E6FF00C1E6FF01C1B4
:10032000E6FF02C1E6FF03C1E6FF14D8F56E050E35
:10033000E15EF55056D980A8FED7C6D6F56E020EFE
:10034000E15C02E2E16AE552E16EF550E552E7CF89
:10035000D9FF1200D9CFE6FFE1CFD9FF0C0EE1267D
:10036000790E146ECC0E156EAB0E166E400E176E17
:10037000FB0EDBCF1CF0FC0EDBCF1DF0FD0EDBCF48
:100380001EF0FE0EDBCF1FF01CC004F01DC005F0F8
:100390001EC006F01FC007F06EEC08F005C018F094
:1003A00006C019F007C01AF008C01BF018C00AF008
:1003B00019C00BF01AC00CF01BC00DF014C005F0F2
:1003C00015C006F016C007F017C008F089EC08F059
:1003D00005C0DEFF06C0DEFF07C0DEFF08C0DDFF90
:1003E000DD52DD52DECF05F0DECF06F0DECF07F0C6
:1003F000DDCF08F0DD52DD52F6EC08F0040E04C04B
:10040000DBFF050E05C0DBFF060E06C0DBFF070E97
:1004100007C0DBFF14683F0E156E166A176AD950C5
:10042000040FE96EDACFEAFFEE501416EE501516FF
:10043000EE501616EE5017160A0E14C0DBFF0B0E08
:1004400015C0DBFF040EDBCF14F0050EDBCF15F07B
:10045000060EDBCF16F0070EDBCF17F00E0ED8908E
:100460001732163215321432E806F9E118683F0ED9
:10047000196E1A6A1B6A18501416195015161A505C
:1004800016161B501716080E14C0DBFF090E15C0F8
:10049000DBFFFA0EDB500CE1280EE66E200EE66E56
:1004A000E66AE66A4ED8E552E552E552E5520BD0CF
:1004B0000A0EE66E200EE66EE66AE66A42D8E5525D
:1004C000E552E552E5520A0EDBCF14F00B0EDBCFFE
:1004D00015F0000E1426400E1522166A176A14C075
:1004E000E6FF15C0E6FF16C0E6FF17C0E6FF29D8F5
:1004F000E552E552E552E552080EDBCF14F0090E45
:10050000DBCF15F0000E1426400E1522166A176A6E
:1005100014C0E6FF15C0E6FF16C0E6FF17C0E6FFF1
:1005200010D8E552E552E552E552F56E0C0EE15C4D
:1005300002E2E16AE552E16EF550E552E7CFD9FFFC
:100540001200D9CFE6FFE1CFD9FF030EE126010E5D
:10055000DB6A800EF36E020EF3CFDBFF8994DF6A55
:10056000100EDF5C31E2010EDBCF14F0020EDBCFA8
:1005700015F0166A176AD950FB0FE96EFF0EDA20E4
:10058000EA6EEE501416EE501516EE501616EE509A
:100590001716145015101610171002E0898001D09C
:1005A000899089928982010EDBCF14F0020EDBCF95
:1005B00015F0D89015321432010E14C0DBFF020E74
:1005C00015C0DBFFDF2ACCD78984F56E030EE15C12
:1005D00002E2E16AE552E16EF550E552E7CFD9FF5C
:1005E0001200800EE66EE9EC09F0E552100EE66EA0
:1005F000010EE66E00C1E6FF01C1E6FF02C1E6FFA3
:1006000003C1E6FF060EE66E26D8F56E070EE15E24
:10061000F550090EE66E010EE66E16EC0AF0E55294
:10062000E552C00EE66EE9EC09F0E5520101085111
:1006300009E1210EE66E010EE66E16EC0AF0E552B7
:10064000E55208D0320EE66E010EE66E16EC0AF0A8
:10065000E552E5521200D9CFE6FFE1CFD9FFE652CD
:10066000FE0EDBCF14F0156A14BE1568D950F80FD2
:10067000E96EFF0EDA20EA6E1450EE261550ED22D8
:10068000FE0EDB50DF6EDFCF14F0000EE76E1418A5
:10069000E8AE02D0143403D0E750D880145457E2A7
:1006A000F80EDB06F90E01E2DB06FA0EDBCF14F0E2
:1006B000FB0EDBCF15F0FC0EDBCF16F0FD0EDBCF13
:1006C00017F00A0E096E0A6A0B6A0C6A14C004F06D
:1006D00015C005F016C006F017C007F028EC0CF0A6
:1006E00000C014F001C015F002C016F003C017F0EE
:1006F000300E1426000E152216221722F80EDBCF1C
:10070000E9FFF90EDBCFEAFF14C0EFFFFA0EDBCFF3
:1007100004F0FB0EDBCF05F0FC0EDBCF06F0FD0E88
:10072000DBCF07F00A0E096E0A6A0B6A0C6A28EC26
:100730000CF0FA0E04C0DBFFFB0E05C0DBFFFC0E65
:1007400006C0DBFFFD0E07C0DBFFDF069CD7E552CE
:08075000E552E7CFD9FF1200CA
:08075800040120511F0B0108F0
:1007600001E05BD02051600BE842E842E842E842F9
:10077000E842010801E051D0245103E0240501E0E2
:100780004CD02151230A48E0010A40E0030A30E03E
:10079000010A25E0240A22E0070A1FE0010A1CE002
:1007A000030A11E0010A01E038D00101030E4E6F87
:1007B0000101F30E4F6F000E506F0001FC93010119
:1007C000080E536F2AD00101030E4E6F0101F30E84
:1007D000516F000E526F21D020D01FD01ED00101CA
:1007E000030E4E6F0101E80E516F000E526F15D0CF
:1007F0000101030E4E6F0101E80E4F6F000E506FA6
:100800000001FC930101070E536F07D00101030E95
:100810004E6F22C4EFF001D000D012000001E86B4F
:10082000C20EE96F010EEA6FEB6BEC6BED6B080E1D
:10083000EE6FE16BE06B1A0E726E1E0E736E0401AA
:10084000000E166F050E176F400E146F0401196F1E
:10085000080E1A6F050E1B6F880E186F0401480EE4
:100860001E6F050E1F6F400E1C6F1200D9CFE6FFE2
:10087000E1CFD9FF0001E06B040118BF30D0FC0EBE
:10088000DBCF14F01951D880145403E2FC0E19C4C4
:10089000DBFF0001E06BFC0EDB50E05D19E2E05194
:1008A000EA6A080FE96E050EEA22EF50E66EE051A3
:1008B000E76EFD0EDBCFE9FFFE0EDBCFEAFFE75070
:1008C000E926000EEA22E552E750EF6EE02BE3D76F
:1008D0000401400E196F1817187D880E18130001B7
:1008E000E05100D0E552E7CFD9FF1200D9CFE6FFA3
:1008F000E1CFD9FFE6520001E15101E02FD0DF6ADC
:10090000DF2ADF50146E156AFF0E141801E115502E
:1009100001E10BD0FD0EDBCFE9FFDB2AFE0EDBCFC2
:10092000EAFF01E3DB2AEF50EBE1DF50146E156ABA
:10093000D950FD0FE96EFF0EDA20EA6E1450EE5E1C
:100940001550ED5AFD0EDBCFE2F0FE0EDBCFE3F0EB
:10095000DFCFE6F00001E76B010EE16FE552E552F3
:10096000E7CFD9FF1200D9CFE6FFE1CFD9FFE6529A
:100970000001E15101E030D0DF6ADF2ADF50146E60
:10098000156AFF0E141801E1155001E10CD0FD0E9F
:10099000DBCFF6FFDB2AFE0EDBCFF7FF01E3DB2A1E
:1009A0000800F550EAE1DF50146E156AD950FD0FCA
:1009B000E96EFF0EDA20EA6E1450EE5E1550ED5A25
:1009C000FD0EDBCFE2F0FE0EDBCFE3F0DFCFE6F093
:1009D0000001010EE76FE16FE552E552E7CFD9FF65
:1009E0001200D9CFE6FFE1CFD9FFE65204011CBFC8
:1009F0006BD0030E0001E15D01E1E16BE15101E12A
:100A000063D0020EE15D06E104011D6B0001030EDF
:100A1000E16F54D0E10552E1400E146E156AE651C3
:100A2000145C000E155803E2400EDF6E02D0E6C0E3
:100A3000DFFFDFCF1DF4DF50E65DE66F480EE46FA9
:100A4000050EE56FE70515E1DF5012E0E2C0F6FFA5
:100A5000E3C0F7FF0800F550E4C0E9FFE5C0EAFF96
:100A6000EF6EE42B000EE523E22BE323DF06ECD749
:100A700013D0DF5011E0E2C0E9FFE3C0EAFFEF501E
:100A8000E4C0E9FFE5C0EAFFEF6EE42B000EE523CA
:100A9000E22BE323DF06EDD7E65110E104011D51FF
:100AA000146E156A400E141801E1155004E100019E
:100AB000020EE16F03D00001030EE16F400E04014E
:100AC0001C171C7D880E1C13E552E552E7CFD9FF99
:020AD000120012
:0E0AD20004012051600BE842E842E842E8428D
:100AE000E842000901E055D02151070A51E00B0A04
:100AF0004FE0070A40E0010A2CE00B0A28E0020A56
:100B000026E0030A22E0080A12E0010A0EE00F0ABA
:100B10000AE0030A01E03CD00101010E4E6F000122
:100B2000040EFB6F36D036D834D090D832D00101C5
:100B3000010E4E6F0101FD0E4F6F000E506F000150
:100B4000FC930101010E536F24D0A8D822D0F4D811
:100B500020D00101010E4E6F0401245101014F6F9D
:100B6000506BFE0E4F27000E50230001FC93010135
:100B7000010E536F0ED00101010E4E6F040124517E
:100B8000EA6AFE0FE96E000EEA2222C4EFFF01D0EE
:100B900000D01200800E0401205D57E12351030AAA
:100BA00034E0010A10E0030A01E04DD00101010E1A
:100BB0004E6F0101740E4F6F160E506F120E010131
:100BC000536F546B40D00101010E4E6F040122514E
:100BD000F66EF76AD890F636F736350EF626170E0B
:100BE000F7220900F5CF4FF10A00F5CF50F1020EC0
:100BF0000101F76A4F25F66E5051F7220900F5CF33
:100C000053F10A00F5CF54F11ED00101010E4E6FD1
:100C100004012251F66EF76AD890F636F736390E8F
:100C2000F626170EF7220900F5CF4FF10A00F5CF8F
:100C300050F14FC1F6FF50C1F7FF0800F550010118
:100C4000536F546B00D00001FC8312000101010EB0
:100C50004E6F0F0EE66E710EE66E0F0EE66E25EC11
:100C60000BF0E552E552E552010EE66EFE0EE66E21
:100C7000000EE66E25EC0BF0E552E552E55222C47B
:100C8000FDF00401225104E10001050EFB6F05D0C7
:100C90000001060EFB6F0EEC04F012000401286B3D
:100CA000296B040120511F0B020A14E0030A0EE015
:100CB000010A01E033D00101010E4E6F04012881C9
:100CC0000001FCA102D00401288328D00101010EFB
:100CD0004E6F24D00101010E4E6F040124510F0B01
:100CE000080DF350156A000F146E040E15222451DE
:100CF000800B01E0010E040DF35001011424516F2B
:100D0000000E1520526F51C1E9FF52C1EAFFEF50AA
:100D1000040B03E00401010E286F00D001014E0511
:100D20000AE10101280E4F6F040E506F0001FC9381
:100D30000101020E536F12000401220510E120513F
:100D40001F0B00090CE10101010E4E6F030E04019F
:100D5000215D03E10001FC8102D00001FC9104014E
:100D600022513AE120511F0B020836E124510F0BAA
:100D7000000932E00101010E4E6F040124510F0BF6
:100D8000080DF350156A000F146E040E152224513D
:100D9000800B01E0010E040DF35001011424516F8A
:100DA000000E1520526F030E0401215D07E1840E31
:100DB00051C1E9FF52C1EAFFEF6E0ED024AF06D059
:100DC00051C1E9FF52C1EAFFEF6A06D0880E51C156
:0A0DD000E9FF52C1EAFFEF6E1200C6
:060DDA006C5002E0000E67
:100DE00001D0010E00090BE0040100513C0BE84268
:100DF000E8420D0802E10CD801D040D808D06C5070
:100E000002E0000E01D0010E040901E047D81200F3
:100E1000D9CFE6FFE1CFD9FFE65201014D6B4E6B12
:100E2000536B546B69EC05F0DF6ADF50146E156A82
:100E3000010E145C000E15581BE201014E5101E039
:100E400017D0F76ADF34FE0BF736F66E3F0EF62644
:100E5000170EF7220900F5CF14F00800F5CF15F0B2
:100E600004D015C0FAFF1450F96EFBDFDF2ADDD77E
:100E7000E1D8E552E552E7CFD9FF1200020E010199
:100E80004D5D0AE198D8040100BD03D0C80E006F83
:100E900002D0880E006F01D013D91200040E000199
:100EA000FB5D0AE122C46EFF6E50000803E2050EEE
:100EB000FB6F02D0030EFB6F01014D050AE10BD859
:100EC000040104BD03D0C80E046F02D0880E046F65
:100ED00001D0F6D81200D9CFE6FFE1CFD9FF020E3C
:100EE000E1260101080E535D000E545905E253C17D
:100EF000DEFF54C1DDFF03D0080EDE6EDD6A0401A3
:100F000004930491010EDB500413DFCF05F4000EAF
:100F1000DB500101535F010EDB50545B280E516F13
:100F2000040E526F0001FCA31ED0D9CFE9FFDACF27
:100F3000EAFFEE50ED1016E04FC1F6FF50C1F7FF8B
:100F40000800F55051C1E9FF52C1EAFFEF6E0101FF
:100F5000512B000E52234F2B5023DF06010E01E2CE
:100F6000DB06E3D71CD0D9CFE9FFDACFEAFFEE509A
:100F7000ED1015E04FC1E9FF50C1EAFFEF5051C13C
:100F8000E9FF52C1EAFFEF6E0101512B000E52231F
:100F90004F2B5023DF06010E01E2DB06E4D7F56E8E
:100FA000020EE15C02E2E16AE552E16EF550E552C3
:100FB000E7CFD9FF1200D9CFE6FFE1CFD9FF020E6C
:100FC000E126030E04010015E76E010EE7CFDBFFFB
:100FD00001C4DFFFDE5001015327DD505423280EEA
:100FE0004F6F040E506FD9CFE9FFDACFEAFFEE5012
:100FF000ED1014E04FC1E9FF50C1EAFFEF5051C1BD
:10100000E9FF52C1EAFFEF6E512B000E52234F2B26
:101010005023DF06010E01E2DB06E5D7F56E020E76
:10102000E15C02E2E16AE552E16EF550E552E7CF9C
:10103000D9FF120001014E510CE10401080E016FAD
:10104000200E026F040E036F840E006F0401046F04
:1010500035D0040120AF22D0010153510401265D97
:10106000010154510401275904E226C453F127C455
:1010700054F131DF0101010E4D6F0401080E016FC3
:10108000200E026F040E036F800E006F0401280E05
:10109000066F040E076FC80E046F10D00101020E18
:1010A0004D6F0401056BC80E046F0401080E016F3B
:1010B000280E026F040E036FC80E006F6D981200A9
:1010C00001014D6B0401080E016F200E026F040E2A
:0C10D000036F880E006F0401046B120017
:0410DC000F9E0CD087
:1010E0000F9E07AE09D0046C051E061E071EE86A97
:1010F0000522062207220F8E07C001F006C000F06D
:1011000005C013F004C012F09E0E026E036A49EF90
:1011100009F00F6A85EC09F09DEC09F00FB62DEF90
:1011200009F00FA205D00FB82DEF09F034EF09F048
:101130000FAA05D00FB02DEF09F034EF09F00FB072
:1011400002D00FA802D040EF09F0036A0D50082426
:10115000026EE86A03227E0E025EE86A035A126A91
:10116000136A006A016A0C500702F4CF01F0F3CF52
:1011700000F00B500702F3501326F4500022000E2B
:1011800001220C500602F3501326F4500022000EE8
:1011900001220A500702F3501226F4501322000EC7
:1011A000002201220B500602F3501226F4501322A3
:1011B000000E002201220C500502F3501226F450BA
:1011C0001322000E002201220A500602F4501226B9
:1011D000000E1322002201220B500502F4501226A9
:1011E000000E13220022012249EF09F00F6A85EC5C
:1011F00009F00FB600EF09F00FA20FD00FB407D01F
:101200007F0E076EFF0E066E056E046E25D0800EF3
:10121000076E01D0076A000EF6D70FB0FBD7046A3D
:101220009F0E0860EBD77E0E0864F4D79E0E085C14
:1012300007E0D8900732063205320432082AF6D782
:101240000FA40AD0046C051E061E071EE86A0522BC
:101250000622072207AEDED712007F0E086EFF0EB1
:10126000076E066E056E12007F0E0FBEFF0E086E33
:1012700002D07F0E086E800E076E066A056AF3D7ED
:101280000FAE04D0800E086E076AF7D7086A076AA7
:10129000F4D70150001013101210F8E003BEF0D77D
:1012A00001BE0CD002500310EBE0D890123613367A
:1012B000003601360206D8A00306F2D70350D4E167
:1012C0000228D2E012AE11D07F0E121402E113A058
:1012D0000CD0132AE86A0022012207E3D8800132E9
:1012E00000321332022A0228BFE00250C9E013C0C4
:1012F00005F000C006F00134076E0230086E0732B8
:10130000089E0FBE088E33EF09F00736083602E359
:101310000F840F7E06E10F80086A076A066A056A75
:101320001200082803E0D88007321200D890073254
:1013300002E10F8212000F8612000C360D3602E316
:101340000F8C0F7E06E10F880D6A0C6A0B6A0A6A21
:1013500012000D2803E0D8800C321200D8900C3215
:06136000EAE10F8A120011
:0A136600D9CFE6FFE1CFD9FFFE0E5C
:10137000DB50F00B8A6EFD0EDB5002E18A8401D057
:101380008A9400008A86010EE66E6FEC0CF0E5523E
:101390008A96E552E7CFD9FF1200D9CFE6FFE1CF19
:1013A000D9FFE66AFE0EDBCFE6FFDDDFE552E55250
:1013B000E66AFE0EDB38F00BE66ED5DFE552E5524D
:1013C000320EE66E6FEC0CF0E552E552E7CFD9FF36
:1013D0001200D9CFE6FFE1CFD9FF010EE66EFE0E77
:1013E000DBCFE6FFC0DFE552E552010EE66EFE0EF2
:1013F000DB38F00BE66EB7DFE552E552FE0EDB5050
:10140000030B06E0020EE66E4CEC0CF0E55205D044
:10141000320EE66E6FEC0CF0E552E552E7CFD9FFE5
:101420001200010EE66ED5DFE5521200D9CFE6FFBD
:10143000E1CFD9FFFD0EDBCFE9FFFE0EDBCFEAFFE8
:10144000EF5010E0FD0EDBCFE9FFFE0EDBCFEAFF31
:10145000EF50E66EA2DFE552FD0EDB2AFE0E01E341
:10146000DB2AE8D7E552E7CFD9FF1200140EE66E6B
:101470004CEC0CF0E552010EE66E300EE66E73DFBA
:10148000E552E552050EE66E4CEC0CF0E552010E0D
:10149000E66E300EE66E67DFE552E552010EE66E4F
:1014A0004CEC0CF0E552010EE66E300EE66E5BDFA2
:1014B000E552E552010EE66E4CEC0CF0E552010EE1
:1014C000E66E200EE66E4FDFE552E552010EE66E47
:1014D0004CEC0CF0E5522E0EE66E7BDFE552080E6A
:1014E000E66E77DFE5520D0EE66E73DFE552060E0F
:1014F000E66E6FDFE552010EE66E6BDFE55212001D
:101500006DA60FD802D06DB613D80001FB0508E117
:101510006DBA06D0686A696A69806988020EFB6FD5
:1015200012006D6A696A6D860001010EFB6F120080
:101530006D6A696A0001FB6B120098EF0AF0000106
:10154000FB5101E13AD06850040B04E06950040BF0
:1015500001E038D86DB231D06850010B04E0695019
:10156000010B01E050D86850100B04E06950100BDB
:1015700001E024D86850400B04E06950400B01E0C2
:1015800037D86850200B04E06950200B01E032D8B6
:101590006850020B04E06950020B01E032D8030EE0
:1015A0000001FB5D01E209D06850080B06E06950BC
:1015B000080B03E0EDEC06F0689612006984689869
:1015C0006D8212006D926994689412000001FCA172
:1015D0000ED0F8DF6D840101080E556F070E566FAF
:1015E0005507000E565B55515611FAE16D941200E5
:1015F000689C120070A003D060EC08F07090689AAC
:101600001200689212006A6A686A9F0E6B6E7B0E07
:10161000696E6E6A0F0EE66E710EE66E0F0EE66E66
:1016200014D8E552E552E552160E706E68A602D047
:101630006896FCD76D9860EC08F00001FC91000101
:10164000FD6B0001030EFB6F1200D9CFE6FFE1CF67
:10165000D9FFFD0EDBCFE9FFFE0EDBCFEAFFFC0E6C
:10166000DB5004E0EE6AFC0EDB06F9D7E552E7CF6B
:04167000D9FF12008C
:0C1674001201000202000008D8040A0065
:10168000000001020001090243000201008032094A
:1016900004000001020201000524001001042402DC
:1016A0000205240600010524010001070582030844
:1016B000000209040100020A0000000705030240BD
:1016C0000000070583024000000403090434034DB1
:1016D000006900630072006F0063006800690070B9
:1016E00000200054006500630068006E006F006C0D
:1016F000006F0067007900200049006E0063002E33
:101700000034034300440043002000520053002DE6
:1017100000320033003200200045006D0075006C7F
:10172000006100740069006F006E002000440065D5
:10173000006D006F0086168616C916CD1601175863
:0117400007A1
:0E1742002A0EF66E000EF76E000EF86E010114
:101750000900F550486F0900F550496F03E14867EB
:1017600001D03DD00900F550436F0900F550446F9A
:101770000900F550456F09000900F550E96E0900B0
:10178000F550EA6E090009000900F550466F09009E
:10179000F550476F09000900F6CF4AF1F7CF4BF13A
:1017A000F8CF4CF143C1F6FF44C1F7FF45C1F8FF44
:1017B0000101465302E1475307E00900F550EE6E80
:1017C0004607F8E24707F9D74AC1F6FF4BC1F7FFD2
:1017D0004CC1F8FF01014807000E495BBFD712005A
:1017E00004500902F3CF00F0F4CF01F00A02F350E5
:1017F0000126000EF420026E04500B02F350022664
:10180000000EF420036E04500C02F3500326055022
:101810000902F3500126F4500222000E0322055063
:101820000A02F3500226F450032205500B02F35033
:10183000032606500902F3500226F45003220650F4
:101840000A02F350032607500902F3500326120040
:10185000036A026A016A006A200EE76ED8900436B5
:10186000053606360736003601360236033609508D
:10187000005C0A5001580B5002580C50035809E301
:101880000950005E0A50015A0B50025A0C50035A7C
:08189000042AE72EE4D7120040
:08189800FF0EE350216EEF0E7C
:1018A00001D0F30EE76EE72E53EF0CF00C0E206E16
:1018B000E76AE72E59EF0CF0202E58EF0CF0212E9E
:0618C00051EF0CF01200D4
:0A18C60013EE00F023EE00F0F86AC4
:0E18D0000F9CA1EC0BF01CEC00F0FDD71200F9
:0218DE00FF0EFB
:1018E000E350E84E1200000000D000D000D0E82EF7
:0418F000FAD7120011
:0318F4004F4B0057
:0918F7000A0000000A00000000D4
:1019000046726571203D2020202020202020487A2A
:10191000005374617274210053696E6520576176BB
:10192000652020202020202000547269616E676CA1
:0A1930006520202020202020200048
:020000040030CA
:0100000024DB
:010001000EF0
:010002002ECF
:010003001EDE
:01000500807A
:010006008178
:00000001FF
