:1000000000308A006C280000FF00030E8301A1006D
:100010007F08A0000A08A8008A01A00E0408A20018
:100020007708A3007808A4007908A5007A08A6003C
:100030007B08A700831383120B1E20288B183328FC
:10004000220884002308F7002408F8002508F90096
:100050002608FA002708FB0028088A00210E8300E2
:10006000FF0E7F0E09008A1148282F3084000008F7
:10007000031947280630F800F701F70B3D28F80B65
:100080003C287B30F700F70B4328800B3A280034DC
:100090000530AD00063085000230AE00FA30AF000A
:1000A0003520AE0B4E288501860101308500803059
:1000B00086000230AE00FA30AF003520AE0B5B2870
:1000C0000130AD02AD08031966284A288601692867
:1000D00048288B108A11202884011F30830583163D
:1000E0001F08C0399F009B01073083129F00183002
:1000F000650001306600850186010B16C0308B0457
:100100008316011385150030831285190130003ADA
:1001100003198D28831682288312AA012A08023C1B
:10012000031CB7280430AB002A08F80003199C28E8
:100130000310AB0CF80B98282B088500A9018B1B2A
:10014000A9178B13C830AF003520A91B8B17831656
:10015000051600308312051A0130003A031DB2283B
:10016000B728B5282B0BB528B728AA0A8E288501F1
:100170008316051600308312051A0130003A031960
:10018000D72880308600A9018B1BA9178B13C83094
:10019000AF003520A91B8B1786018316051600308A
:1001A0008312051A0130003A0319D7288D288316C7
:0401B000822863003E
:02400E00623F0F
:00000001FF
;PIC16F88
