:020000040000FA
:0600000068EF09F0120098
:06002A000100FE120000BF
:08003000000100005500000072
:08003800D9CFE6FFE1CFD9FFAB
:10004000020EE126070EC16EBB0EC06E1D0EC26E03
:10005000070EB46E89688A6A8B6E8C6A9268936A9E
:10006000B80E946EF00E956E9668140E6F6E0001C9
:10007000F86B0001F96B0001FA6B0001E26BE36BB6
:100080004DEC07F0130EE66E010EE66E2DEC07F058
:10009000E552E55297EC07F06FBE02D0B6EC07F0E0
:1000A000060E0001F85D01E2B6D16D50020B01E0D1
:1000B000B2D1400EE66E600EE66E000EE66E49ECC2
:1000C00006F0E552E552E5520001E46FE56BE451BC
:1000D000E51101E12FD18B706051380A01E1FFD0A9
:1000E0000F0A01E1A8D0010A01E192D0030A60E001
:1000F000010A58E0070A48E0010A2DE0030A12E06D
:10010000010A01E017D104010CBF0BD0030EE66E0B
:10011000000EE66E010EE66ED5EC05F0E552E552F6
:10012000E55208D18B728BA204D00101310E2C6FE5
:1001300003D00101300E2C6F04010CBF0BD0010E57
:10014000E66E2C0EE66E010EE66ED5EC05F0E5527D
:10015000E552E552EFD08B748BA404D00101310E2F
:100160002C6F03D00101300E2C6F04010CBF0BD09B
:10017000010EE66E2C0EE66E010EE66ED5EC05F075
:10018000E552E552E552D6D061C0E6FF00EC07F03B
:10019000E552630EE66E000EE66E2DEC07F0E552BA
:1001A000E552C8D028EC07F00001E26BE36BC2D047
:1001B000070EE66E3DD9E552F3CFE0F0F4CFE1F063
:1001C000090EE66E010EE66EE0C014F0E1C015F017
:1001D000166A176A14C0E6FF15C0E6FF16C0E6FFF0
:1001E00017C0E6FF040EE66E57D9F56E070EE15E06
:1001F000F55004010CBF0BD00F0EE66E030EE66E39
:10020000010EE66ED5EC05F0E552E552E55292D0CE
:1002100061C08CFF83CF2CF104010CBF0BD0010E09
:10022000E66E2C0EE66E010EE66ED5EC05F0E5529C
:10023000E552E5527FD0DE6ADD6ADECF14F0DDCF15
:1002400015F0D890155004E6080E145C000E1558F1
:1002500037E2DFCFE6FFECD8E552F3CFE0F0F4CFA2
:10026000E1F0040E066E076ADECF0BF0DDCF0CF076
:1002700000EC09F004C014F005C015F02E0E142691
:10028000010E152214C0E6FF15C0E6FFE0C016F00F
:10029000E1C017F0186A196A16C0E6FF17C0E6FF3A
:1002A00018C0E6FF19C0E6FF040EE66EF5D8F56E3D
:1002B000070EE15EF550DF2A010E01E3DB2ABDD710
:1002C00004010CBF0BD0200EE66E2E0EE66E010E62
:1002D000E66ED5EC05F0E552E552E5522BD0E22B67
:1002E000000EE323220EE66E010EE66EE2C014F06D
:1002F000E3C015F0166A176A14C0E6FF15C0E6FFE2
:1003000016C0E6FF17C0E6FF060EE66EC5D8F56E0E
:10031000070EE15EF55004010CBF0BD0110EE66E26
:100320001A0EE66E010EE66ED5EC05F0E552E552CA
:10033000E55200D0400EE66E600EE66E000EE66EF0
:1003400089EC06F0E552E552E5520001E46FE56BF9
:10035000E451E51160E08B706051350A2DE0040A2C
:1003600012E0010A01E057D0040114BF0BD0030EC4
:10037000E66E000EE66E010EE66E0FEC06F0E5523C
:10038000E552E55248D08B728BA204D00101310EA8
:100390002C6F03D00101300E2C6F040114BF0BD061
:1003A000010EE66E2C0EE66E010EE66E0FEC06F008
:1003B000E552E552E5522FD0E66A3AD8E552F3CF3E
:1003C000E0F0F4CFE1F0090EE66E010EE66EE0C05B
:1003D00014F0E1C015F0166A176A14C0E6FF15C0E4
:1003E000E6FF16C0E6FF17C0E6FF040EE66E54D81F
:1003F000F56E070EE15EF550040114BF0BD00F0E31
:10040000E66E030EE66E010EE66E0FEC06F0E552A8
:10041000E552E55200D03ED6F56E020EE15C02E2F6
:10042000E16AE552E16EF550E552E7CFD9FF1200DF
:10043000D9CFE6FFE1CFD9FF020EE126FE0EDB5059
:10044000040DF328C26EC282C2B2FED7C450166E2B
:10045000176A16C017F0166AC35000011624146EEE
:10046000000E1720156E14C0DEFF15C0DDFFDECFB5
:1004700014F0DDCF15F014C0F3FF15C0F4FFF56ED6
:10048000020EE15C03E200D0E16AE552E16EF55054
:10049000E552E7CFD9FF1200D9CFE6FFE1CFD9FF70
:1004A000E652FE0EDBCF14F0156A14BE1568D95063
:1004B000F80FE96EFF0EDA20EA6E1450EE261550A2
:1004C000ED22FE0EDB50DF6EDFCF14F0000EE76E84
:1004D0001418E8AE02D0143403D0E750D880145476
:1004E00057E2F80EDB06F90E01E2DB06FA0EDBCF6F
:1004F00014F0FB0EDBCF15F0FC0EDBCF16F0FD0E7B
:10050000DBCF17F00A0E096E0A6A0B6A0C6A14C078
:1005100004F015C005F016C006F017C007F02DEC6A
:1005200009F000C014F001C015F002C016F003C0BD
:1005300017F0300E1426000E152216221722F80E80
:10054000DBCFE9FFF90EDBCFEAFF14C0EFFFFA0EB5
:10055000DBCF04F0FB0EDBCF05F0FC0EDBCF06F0AB
:10056000FD0EDBCF07F00A0E096E0A6A0B6A0C6AF1
:100570002DEC09F0FA0E04C0DBFFFB0E05C0DBFF1B
:10058000FC0E06C0DBFFFD0E07C0DBFFDF069CD7BD
:0A059000E552E552E7CFD9FF120053
:06059A0004011851600B82
:1005A000E842E842E842E842E842000901E055D06A
:1005B0001951070A51E00B0A4FE0070A40E0010A0F
:1005C0002CE00B0A28E0020A26E0030A22E0080ACF
:1005D00012E0010A0EE00F0A0AE0030A01E03CD033
:1005E0000001010EF16F0001040EF86F36D036D80D
:1005F00034D090D832D00001010EF16F0001FA0E14
:10060000F26F000EF36F0001F9930001010EF66F17
:1006100024D0A8D822D0F4D820D00001010EF16F48
:1006200004011C510001F26FF36BFB0EF227000E68
:10063000F3230001F9930001010EF66F0ED00001C3
:10064000010EF16F04011C51EA6AFB0FE96E000E06
:10065000EA221AC4EFFF01D000D01200800E04017C
:10066000185D57E11B51030A34E0010A10E0030A48
:1006700001E04DD00001010EF16F0001A20EF26FFA
:10068000100EF36F120E0001F66FF76B40D00001F1
:10069000010EF16F04011A51F66EF76AD890F63622
:1006A000F736570EF626110EF7220900F5CFF2F0B5
:1006B0000A00F5CFF3F0020E0001F76AF225F66E9C
:1006C000F351F7220900F5CFF6F00A00F5CFF7F065
:1006D0001ED00001010EF16F04011A51F66EF76A87
:1006E000D890F636F7365B0EF626110EF722090083
:1006F000F5CFF2F00A00F5CFF3F0F2C0F6FFF3C049
:10070000F7FF0800F5500001F66FF76B00D000010D
:10071000F98312000001010EF16F0F0EE66E710EEB
:10072000E66E0F0EE66E3CEC08F0E552E552E5523F
:10073000010EE66EFB0EE66E000EE66E3CEC08F077
:10074000E552E552E5521AC4FAF004011A5104E1E7
:100750000001050EF86F05D00001060EF86FAEEC33
:1007600005F012000401206B216B040118511F0BCE
:10077000020A14E0030A0EE0010A01E033D000018E
:10078000010EF16F040120810001F9A102D00401E2
:10079000208328D00001010EF16F24D00001010E4A
:1007A000F16F04011C510F0B080DF350156A000F77
:1007B000146E040E15221C51800B01E0010E040D75
:1007C000F35000011424F46F000E1520F56FF4C0EF
:1007D000E9FFF5C0EAFFEF50040B03E00401010E4E
:1007E000206F00D00001F1050AE10001200EF26F38
:1007F000040EF36F0001F9930001020EF66F120070
:1008000004011A0510E118511F0B00090CE1000149
:10081000010EF16F030E0401195D03E10001F9817E
:1008200002D00001F99104011A513AE118511F0B4D
:10083000020836E11C510F0B000932E00001010EE5
:10084000F16F04011C510F0B080DF350156A000FD6
:10085000146E040E15221C51800B01E0010E040DD4
:10086000F35000011424F46F000E1520F56F030EF1
:100870000401195D07E1840EF4C0E9FFF5C0EAFF49
:10088000EF6E0ED01CAF06D0F4C0E9FFF5C0EAFF52
:10089000EF6A06D0880EF4C0E9FFF5C0EAFFEF6EFC
:0208A000120044
:0E08A2006C5002E0000E01D0010E00090BE0C8
:1008B000040100513C0BE842E8420D0802E10CD86B
:1008C00001D01CD808D06C5002E0000E01D0010EFF
:1008D000040901E023D81200D9CFE6FFE1CFD9FF08
:1008E000E6520001F06BF16BF66BF76BCDEC02F0AA
:1008F000E1D8E552E552E7CFD9FF1200020E000120
:10090000F05D0AE198D8040100BD03D0C80E006F65
:1009100002D0880E006F01D013D91200040E00011E
:10092000F85D0AE11AC46EFF6E50000803E2050E7E
:10093000F86F02D0030EF86F0001F0050AE10BD842
:10094000040104BD03D0C80E046F02D0880E046FEA
:1009500001D0F6D81200D9CFE6FFE1CFD9FF020EC1
:10096000E1260001080EF65D000EF75905E2F6C01B
:10097000DEFFF7C0DDFF03D0080EDE6EDD6A040186
:1009800004930491010EDB500413DFCF05F4000E35
:10099000DB500001F65F010EDB50F75B200EF46FB9
:1009A000040EF56F0001F9A31ED0D9CFE9FFDACF0D
:1009B000EAFFEE50ED1016E0F2C0F6FFF3C0F7FFCD
:1009C0000800F550F4C0E9FFF5C0EAFFEF6E000142
:1009D000F42B000EF523F22BF323DF06010E01E2C8
:1009E000DB06E3D71CD0D9CFE9FFDACFEAFFEE5020
:1009F000ED1015E0F2C0E9FFF3C0EAFFEF50F4C0DC
:100A0000E9FFF5C0EAFFEF6E0001F42B000EF523BD
:100A1000F22BF323DF06010E01E2DB06E4D7F56ECD
:100A2000020EE15C02E2E16AE552E16EF550E55248
:100A3000E7CFD9FF1200D9CFE6FFE1CFD9FF020EF1
:100A4000E126030E04010015E76E010EE7CFDBFF80
:100A500001C4DFFFDE500001F627DD50F723200E32
:100A6000F26F040EF36FD9CFE9FFDACFEAFFEE5051
:100A7000ED1014E0F2C0E9FFF3C0EAFFEF50F4C05C
:100A8000E9FFF5C0EAFFEF6EF42B000EF523F22B21
:100A9000F323DF06010E01E2DB06E5D7F56E020E59
:100AA000E15C02E2E16AE552E16EF550E552E7CF22
:100AB000D9FF12000001F1510CE10401080E016F91
:100AC000180E026F040E036F840E006F0401046F92
:100AD00035D0040118AF22D00001F65104011E5D8B
:100AE0000001F75104011F5904E21EC4F6F01FC4AF
:100AF000F7F031DF0001010EF06F0401080E016F05
:100B0000180E026F040E036F800E006F0401200E9A
:100B1000066F040E076FC80E046F10D00001020E9E
:100B2000F06F0401056BC80E046F0401080E016F1D
:100B3000200E026F040E036FC80E006F6D98120036
:100B40000001F06B0401080E016F180E026F040E15
:0C0B5000036F880E006F0401046B12009C
:040B5C000001FC6B2D
:100B6000FD6B1E0E716E726E0401400E096F000E59
:100B70000A6F050E0B6F880E086F0401400E0E6F92
:100B8000050E0F6F400E0C6F0401200E116F800ECA
:100B9000126F050E136F880E106F0401A00E166FF2
:100BA000050E176F400E146F1200D9CFE6FFE1CF8C
:100BB000D9FFE652FC0EDB50400805E2400EF36E12
:100BC000FC0EF3CFDBFFDF6AFC0EDB50DF5C19E2CB
:100BD000DF50E76EFD0EDBCFE9FFFE0EDBCFEAFF55
:100BE000E750E926000EEA22EF50E66EDF50EA6A8F
:100BF000400FE96E050EEA22E552E750EF6EDF2A5C
:100C0000E3D7FC0EDBCF0DF4400E04010C170C7D76
:100C1000880E0C13E552E552E7CFD9FF1200D9CF69
:100C2000E6FFE1CFD9FFE652FC0EDB50200805E2DB
:100C3000200EF36EFC0EF3CFDBFFDF6AFC0EDB5001
:100C4000DF5C19E2DF50E76EFD0EDBCFE9FFFE0E41
:100C5000DBCFEAFFE750E926000EEA22EF50E66E0E
:100C6000DF50EA6AA00FE96E050EEA22E552E7506E
:100C7000EF6EDF2AE3D7FC0EDBCF15F4400E040144
:100C80001417147D880E1413E552E552E7CFD9FFEF
:100C90001200D9CFE6FFE1CFD9FF0001FC6B0401C0
:100CA00008BF30D0FC0EDBCF14F00951D8801454AB
:100CB00003E2FC0E09C4DBFF0001FC6BFC0EDB5001
:100CC000FC5D19E2FC51EA6A000FE96E050EEA22AA
:100CD000EF50E66EFC51E76EFD0EDBCFE9FFFE0E36
:100CE000DBCFEAFFE750E926000EEA22E552E750A3
:100CF000EF6EFC2BE3D70401400E096F0817087D47
:100D0000880E08130001FC5100D0E552E7CFD9FF4F
:100D10001200D9CFE6FFE1CFD9FF0001FD6B04013E
:100D200010BF31D0FC0EDBCF14F01151D880145419
:100D300003E2FC0E11C4DBFF0001FD6BFC0EDB5077
:100D4000FD5D19E2FD51EA6A800FE96E050EEA22A7
:100D5000EF50E66EFD51E76EFD0EDBCFE9FFFE0EB4
:100D6000DBCFEAFFE750E926000EEA22E552E75022
:100D7000EF6EFD2BE3D70401200E116F400E10170C
:100D8000107D880E10130001FD5100D0E552E7CF11
:040D9000D9FF120075
:0C0D9400D9CFE6FFE1CFD9FFFE0EDB5007
:100DA000F00B8A6EFD0EDB5002E18A8401D08A943A
:100DB00000008A86010EE66E74EC09F0E5528A9610
:100DC000E552E7CFD9FF1200D9CFE6FFE1CFD9FF37
:100DD000E66AFE0EDBCFE6FFDDDFE552E552E66AAE
:100DE000FE0EDB38F00BE66ED5DFE552E552320E33
:100DF000E66E74EC09F0E552E552E7CFD9FF120038
:100E0000D9CFE6FFE1CFD9FF010EE66EFE0EDBCFB4
:100E1000E6FFC0DFE552E552010EE66EFE0EDB385E
:100E2000F00BE66EB7DFE552E552FE0EDB50030B2A
:100E300006E0020EE66E51EC09F0E55205D0320EE6
:100E4000E66E74EC09F0E552E552E7CFD9FF1200E7
:100E5000010EE66ED5DFE5521200D9CFE6FFE1CFF5
:100E6000D9FFFD0EDBCFE9FFFE0EDBCFEAFFEF502F
:100E700010E0FD0EDBCFE9FFFE0EDBCFEAFFEF5007
:100E8000E66EA2DFE552FD0EDB2AFE0E01E3DB2A51
:100E9000E8D7E552E7CFD9FF1200140EE66E51EC09
:100EA00009F0E552010EE66E300EE66E73DFE55294
:100EB000E552050EE66E51EC09F0E552010EE66EC4
:100EC000300EE66E67DFE552E552010EE66E51EC3C
:100ED00009F0E552010EE66E300EE66E5BDFE5527C
:100EE000E552010EE66E51EC09F0E552010EE66E98
:100EF000200EE66E4FDFE552E552010EE66E51EC34
:100F000009F0E5522E0EE66E7BDFE552080EE66E26
:100F100077DFE5520D0EE66E73DFE552060EE66EE4
:0E0F20006FDFE552010EE66E6BDFE552120048
:020F2E006DA6AE
:100F30000FD802D06DB613D80001F80508E16DBADC
:100F400006D0686A696A69806988020EF86F1200C3
:100F50006D6A696A6D860001010EF86F12006D6A94
:100F6000696A0001F86B1200AFEF07F00001F85159
:100F700001E13AD06850040B04E06950040B01E031
:100F800038D86DB231D06850010B04E06950010BC4
:100F900001E050D86850100B04E06950100B01E0DC
:100FA00024D86850400B04E06950400B01E037D86A
:100FB0006850200B04E06950200B01E032D86850E3
:100FC000020B04E06950020B01E032D8030E00016D
:100FD000F85D01E209D06850080B06E06950080B83
:100FE00003E051EC04F068961200698468986D8201
:100FF00012006D926994689412000001F9A10ED05C
:10100000F8DF6D840001080EFE6F070EFF6FFE070C
:10101000000EFF5BFE51FF11FAE16D941200689C17
:10102000120070A003D0A0EC05F07090689A120036
:10103000689212006A6A686A9F0E6B6E7B0E696E18
:101040006E6A0F0EE66E710EE66E0F0EE66E14D827
:10105000E552E552E552160E706E68A602D068960B
:10106000FCD76D98A0EC05F00001F9910001FA6B36
:101070000001030EF86F1200D9CFE6FFE1CFD9FFD0
:10108000FD0EDBCFE9FFFE0EDBCFEAFFFC0EDB50EF
:1010900004E0EE6AFC0EDB06F9D7E552E7CFD9FF94
:0210A00012003C
:0E10A2001201000200000008B9094800000019
:1010B0000102000109023700020100803209040028
:1010C0000002000000000705010240002007058122
:1010D0000240002009040100020000000007050290
:1010E0000320002007058203200020040309042AAE
:1010F000034D006900630072006F006300680069BF
:101100000070002000440065007300690067006EF5
:101110000020004C00610062003E03470065006E45
:10112000006500720061006C00200049002F004F34
:10113000002000440065006D006F0020004700653E
:10114000006E006500720069006300200043006CBF
:1011500000610073007300B410B410EB10EF1019AD
:01116000117D
:0E1162002A0EF66E000EF76E000EF86E0001FB
:101170000900F550EB6F0900F550EC6F03E1EB67E8
:1011800001D03DD00900F550E66F0900F550E76F3A
:101190000900F550E86F09000900F550E96E0900F3
:1011A000F550EA6E090009000900F550E96F0900E1
:1011B000F550EA6F09000900F6CFEDF0F7CFEEF039
:1011C000F8CFEFF0E6C0F6FFE7C0F7FFE8C0F8FFA2
:1011D0000001E95302E1EA5307E00900F550EE6E21
:1011E000E907F8E2EA07F9D7EDC0F6FFEEC0F7FF2E
:1011F000EFC0F8FF0001EB07000EEC5BBFD7120059
:1012000007C013F006C012F006500B02F4CF05F031
:10121000F3CF04F007500C02F4CF07F0F3CF06F041
:101220000B02F3500526F4500622E86A07221250FA
:101230000C02F3500526F4500622E86A07220CAE91
:1012400026EF09F01250065E1350075A13AE000C39
:0A1250000B50065E0C50075A000C0C
:06125A00036A026A016A4A
:10126000006A200EE76ED89004360536063607363B
:1012700000360136023603360950005C0A50015828
:101280000B5002580C50035809E30950005E0A50F5
:10129000015A0B50025A0C50035A042AE72EE4D785
:0212A00012003A
:0E12A200FF0EE3501B6EEF0E01D0F30EE76E51
:1012B000E72E58EF09F00C0E1A6EE76AE72E5EEF84
:1012C00009F01A2E5DEF09F01B2E56EF09F01200FF
:1012D00013EE00F023EE00F0F86A0F9CB1EC08F07A
:0812E0001CEC00F0FDD7120028
:0812E800FF0EE350E84E120076
:0E12F000000000D000D000D0E82EFAD7120087
:0212FE004F4B54
:1013000000506F74203D20202020202020200D0A36
:10131000005374617274210057656C636F6D6520B2
:10132000202020202020200D0A0020002020202026
:1013300020202020202020202020202020202020AD
:10134000202020202020202020202020202020209D
:031350002020005A
:00000001FF
