:020000040000fa
:080000000002040000000000f2
:020000040000fa
:100400000f8720000e7f24000e01880000000000ee
:100410000c000700a0362100010020001100070099
:10042000000020000000e000020032000000020096
:1004300000000000180d0200000000000040da007b
:100440000000fe004440a900a00920000000e000d8
:100450000300320000002000a00188004440a800f2
:100460000000060091018800800078000000eb0089
:1004700015003700e280400032a0b4009101ba00bc
:10048000e280400032a0b4009102ba00e280400055
:1004900032a0b4000002eb00472bde00f507b200eb
:1004a000602ce10004003a000059eb008301e900f0
:1004b000fdff3e00040037006128e100010032002a
:1004c0000082eb00040007001101ba000200e00006
:1004d000e8ff3a00000006003159ba008301e90044
:1004e0000c0032002159ba008301e90008003200f3
:1004f0000400e00003003a00e280400032a0b400b3
:10050000f5ff370011d9ba008301e900faff3a007c
:100510008100e800e180400032a0b4000000060045
:100520000040da000000fe000a00fa0080017800b6
:10053000e20f500028003e0070438000e10f5000a1
:1005400008003200802320000000e0000500320097
:10055000042320002523200046232000800178006a
:10056000040037000422200025222000462220001b
:1005700083222000144090000004e00004003500b5
:100580008009eb00144090000074a0001042980015
:10059000154090000028a30003003a001540900089
:1005a0000024a000904298008001eb000700370073
:1005b000154090000008a300fdff320063c07800e2
:1005c0000000fb00000b78008301e800828f5100df
:1005d000f7ff3a000800370030002000b0bf9f004e
:1005e000c3bf9f00d1bf9f00e2bf9f006a8057003a
:1005f00000c0da006fb99700020078000080fa00ae
:1006000000000600811f78000100e00002003d00ac
:1006100060001000e08018000300e00002003d00d0
:1006200060011100e0811900050007004f00e000a3
:1006300002003b0060001000e0801800000006008f
:10064000020007000400be00000006006022b8009f
:10065000060220000000d0008180d2000482d20077
:100660008582d2000000a0000202520083825a005c
:10067000030031000202420083824a000000a10010
:100680000603e900f3ff3a0000000600889fbe0061
:100690000004be00060037000804e8000000fb006c
:1006a0008900780014000700e10f400004003200c8
:1006b000184078000004e000f7ff3a000000eb006b
:1006c0004f04be0000000600881f7800018520004e
:1006d000eeff07000004780001852000a000200044
:1006e00005000700080078004f04780000000600ad
:1006f0000185200000003700889fbe0000017800bf
:1007000001047800b10090000118a3003d00320000
:100710000198a30003003a00180090000000e000d8
:1007200038003a000190a00031049800820478005b
:10073000f90fb200180090000000e00002003a003b
:1007400028009000000c7800ea8f540006003a0060
:10075000380090000078a30003003a008800780079
:10076000d0002000e4ff070098009000580090009f
:10077000808f50000b0032000100e8001004980048
:100780001800780009587800000c780011c0b300f8
:10079000c086200001487800ea8f5400060032002d
:1007a0001900370088007800094078001900070018
:1007b0008004780014003700380090000088a300ff
:1007c0001100320018019000a8009000480090002d
:1007d00055ff070098009000810f50000400320080
:1007e000380090000003b300300498008084eb00d0
:1007f0000000eb001004980028009000000c780026
:10080000010037008084eb00090078004f04be002f
:10081000000006000200fa00889fbe00a0ff9f00b3
:1008200001047800b1009000810478000904b2004e
:10083000020032000000fb00360037000118a30060
:1008400005003a000103b300310498001904980030
:100850000080eb002f003700580090000000e000ff
:1008600006003a004800900012002000e680570081
:100870002dff07001904980024003700280090007d
:100880000000e00008003a00808620002004980064
:10089000000c7800200020005004980010049800fc
:1008a0000130a0003104980018019000a8009000c9
:1008b000480090001cff070028009000000c780002
:1008c0000080eb001004980018007800aff8970043
:1008d00001587800000c78002ff89700ea4f50007c
:1008e0000a003a00380090000088a3000700320098
:1008f00018019000a8009000480090000aff07002f
:1009000019049800a8009000010c7800aff8970037
:100910000100fb004f04be000080fa00000006004a
:020000040000fa
:0200000401f009
:04000000ffff0000fe
:020000040000fa
:0200000401f009
:04000400ffff0000fa
:020000040000fa
:0200000401f009
:04000800ffff0000f6
:020000040000fa
:0200000401f009
:04000c00f9ff0000f8
:020000040000fa
:0200000401f009
:040010009bff000052
:020000040000fa
:0200000401f009
:040014007fff00006a
:020000040000fa
:0200000401f009
:04001800ffff0000e6
:020000040000fa
:0200000401f009
:04001c00dfff000002
:020000040000fa
:1000080090020000900200009002000090020000a0
:100018009002000090020000900200009002000090
:10002800900200009002000090020000cc0d000039
:10003800900200009002000090020000e00d000015
:10004800f40d000090020000900200004a0d00002c
:1000580090020000900d0000900200009002000045
:100068009002000090020000900200009002000040
:10007800a40d000090020000900200009002000011
:10008800900200009002000090020000080e00009c
:100098001c0e0000b80d00007c0d0000900200004e
:1000a8009002000090020000900200009002000000
:1000b80090020000900200009002000090020000f0
:1000c80090020000900200009002000090020000e0
:1000d80090020000900200009002000090020000d0
:1000e80090020000900200009002000090020000c0
:1000f80090020000900200009002000090020000b0
:10010800900200009002000090020000900200009f
:10011800900200009002000090020000900200008f
:10012800900200009002000090020000900200007f
:10013800900200009002000090020000900200006f
:10014800900200009002000090020000900200005f
:10015800900200009002000090020000900200004f
:10016800900200009002000090020000900200003f
:10017800900200009002000090020000900200002f
:10018800900200009002000090020000900200001f
:10019800900200009002000090020000900200000f
:1001a80090020000900200009002000090020000ff
:1001b80090020000900200009002000090020000ef
:1001c80090020000900200009002000090020000df
:1001d80090020000900200009002000090020000cf
:1001e80090020000900200009002000090020000bf
:0801f8009002000090020000db
:020000040000fa
:10020800900200009002000090020000900200009e
:10021800900200009002000090020000900200008e
:10022800900200009002000090020000cc0d000037
:10023800900200009002000090020000e00d000013
:10024800f40d000090020000900200004a0d00002a
:1002580090020000900d0000900200009002000043
:10026800900200009002000090020000900200003e
:10027800a40d00009002000090020000900200000f
:10028800900200009002000090020000080e00009a
:100298001c0e0000b80d00007c0d0000900200004c
:1002a80090020000900200009002000090020000fe
:1002b80090020000900200009002000090020000ee
:1002c80090020000900200009002000090020000de
:1002d80090020000900200009002000090020000ce
:1002e80090020000900200009002000090020000be
:1002f80090020000900200009002000090020000ae
:10030800900200009002000090020000900200009d
:10031800900200009002000090020000900200008d
:10032800900200009002000090020000900200007d
:10033800900200009002000090020000900200006d
:10034800900200009002000090020000900200005d
:10035800900200009002000090020000900200004d
:10036800900200009002000090020000900200003d
:10037800900200009002000090020000900200002d
:10038800900200009002000090020000900200001d
:10039800900200009002000090020000900200000d
:1003a80090020000900200009002000090020000fd
:1003b80090020000900200009002000090020000ed
:1003c80090020000900200009002000090020000dd
:1003d80090020000900200009002000090020000cd
:1003e80090020000900200009002000090020000bd
:0803f8009002000090020000d9
:020000040000fa
:100920000a5b0000215d00005541000052540000a8
:10093000312000004f760000657200005275000003
:100940006e450000727200005b2100005d00000037
:100950000a5b0000215d0000554100005254000078
:100960003120000046720000616d0000696e0000d9
:1009700067450000727200005b2100005d0000000e
:100980000a5b0000215d0000554100005254000048
:10099000312000005061000072690000747900008d
:1009a00045720000725b0000215d0000000a00003b
:1009b0005b2100005d5500004152000054320000f0
:1009c000204f00007665000072520000756e000036
:1009d00045720000725b0000215d0000000a00000b
:1009e0005b2100005d5500004152000054320000c0
:1009f00020460000726100006d6900006e67000013
:100a000045720000725b0000215d0000000a0000da
:100a10005b2100005d55000041520000543200008f
:100a200020500000617200006974000079450000e8
:100a3000727200005b2100005d0000006177000021
:100a40006161000077610000616100006161000088
:040a50000d00000095
:020000040000fa
:100a54000800fa00000f7800110798001e009000ab
:100a64006101b9000080eb008080eb0002014000ce
:100a7400838148002207980033079800c0012000b2
:100a8400010020002e019000be019000800f510053
:100a9400818f590041013e002e009000be0090005d
:100aa400006001001c003700250037002e003700cd
:100ab4003700370040003700490037005200370044
:100ac4005b003700640037006d00370076003700a4
:100ad4007f00370088003700910037009a00370004
:100ae400a3003700ac003700b5003700be00370064
:100af400c7003700d0003700d9003700e2003700c4
:100b0400eb003700f4003700fd0037000601370022
:100b14000f013700180137001e0078007f40600085
:100b24007f416000116820009140780000ceb3003e
:100b340000c060000240700081e6b7001701370072
:100b44001e0078007f4060007f4160002168200023
:100b54009140780000ceb30000c0600002407000f5
:100b640082e6b7000d0137001e0078007f40600068
:100b74007f416000616820009140780000ceb3009e
:100b840000c060000240700086e6b7000301370031
:100b94001e0078007f4060007f4160007168200083
:100ba4009140780000ceb30000c0600002407000a5
:100bb40087e6b700f90037001e0078007f40600028
:100bc4007f416000816820009140780000ceb3002e
:100bd40000c060000240700088e6b700ef003700f4
:100be4001e0078007f4060007f4160009168200013
:100bf4009140780000ceb30000c060000240700055
:100c040089e6b700e50037001e0078007f406000e9
:100c14007f416000e16820009140780000ceb3007d
:100c240000c06000024070008ee6b700db003700b1
:100c34001e0078007f4060007f416000f168200062
:100c44009140780000ceb30000c060000240700004
:100c54008fe6b700d10037001e0078007f406000a7
:100c64007f416000416920009140780000ceb300cc
:100c740000c060000240700094e6b700c70037006f
:100c84001e0078007f4060007f41600051692000b1
:100c94009140780000ceb30000c0600002407000b4
:100ca40095e6b700bd0037001e0078007f40600065
:100cb4007f416000616920009140780000ceb3005c
:100cc40000c060000240700096e6b700b300370031
:100cd4001e0078007f4060007f4160008169200031
:100ce4009140780000ceb30000c060000240700064
:100cf40098e6b700a90037001e0078007f40600026
:100d04007f416000a16920009140780000ceb300cb
:100d140000c06000024070009ae6b7009f003700f0
:100d24001e0078007f4060007f416000c1692000a0
:100d34009140780000ceb30000c060000240700013
:100d44009ce6b700950037001e0078007f406000e5
:100d54007f416000d16920009140780000ceb3004b
:100d640000c06000024070009de6b7008b003700b1
:100d74001e0078007f4060007f416000e169200030
:100d84009140780000ceb30000c0600002407000c3
:100d94009ee6b700810037001e0078007f406000a7
:100da4007f416000016a20009140780000ceb300ca
:100db40000c0600002407000a0e6b7007700370072
:100dc4001e0078007f4060007f416000116a2000af
:100dd4009140780000ceb30000c060000240700073
:100de400a1e6b7006d0037001e0078007f40600068
:100df4007f416000216a20009140780000ceb3005a
:100e040000c0600002407000a2e6b7006300370033
:100e14001e0078007f4060007f416000416a20002e
:100e24009140780000ceb30000c060000240700022
:100e3400a4e6b700590037001e0078007f40600028
:100e44007f416000516a20009140780000ceb300d9
:100e540000c0600002407000a5e6b7004f003700f4
:100e64001e0078007f4060007f416000616a2000be
:100e74009140780000ceb30000c0600002407000d2
:100e8400a6e6b700450037001e0078007f406000ea
:100e94007f416000716a20009140780000ceb30069
:100ea40000c0600002407000a7e6b7003b003700b6
:100eb4001e0078007f4060007f416000816a20004e
:100ec4009140780000ceb30000c060000240700082
:100ed400a8e6b700310037001e0078007f406000ac
:100ee4007f416000916a20009140780000ceb300f9
:100ef40000c0600002407000a9e6b7002700370078
:100f04001e0078007f4060007f416000a16a2000dd
:100f14009140780000ceb30000c060000240700031
:100f2400aae6b7001d0037001e0078007f4060006d
:100f34007f416000c16a20009140780000ceb30078
:100f440000c0600002407000ace6b7001300370038
:100f54001e0078007f4060007f416000d16a20005d
:100f64009140780000ceb30000c0600002407000e1
:100f7400ade6b700090037001e0078007f4060002e
:100f84007f416000e16a20009140780000ceb30008
:100f940000c0600002407000aee6b7000080fa00b6
:100fa400000006000800fa00000f780011079800fe
:100fb4001e0078006101b9002207980033079800e9
:100fc400f0002000010020002e019000be019000de
:100fd400800f5100818f5900b2003e002e00900016
:100fe400be009000006001000f00370018003700b9
:100ff400210037002a003700330037003c00370057
:10100400450037004e0037005700370060003700b6
:1010140069003700720037007b0037008400370016
:101024008d003700960037001e0090007f4060005e
:101034007f416000016c20009140780000ceb30035
:1010440000c0600002407000c0e6b70095003700a1
:101054001e0090007f4060007f416000116c200002
:101064009140780000ceb30000c0600002407000e0
:10107400c1e6b7008b0037001e0090007f4060007f
:101084007f416000216c20009140780000ceb300c5
:1010940000c0600002407000c2e6b7008100370063
:1010a4001e0090007f4060007f416000316c200092
:1010b4009140780000ceb30000c060000240700090
:1010c400c3e6b700770037001e0090007f40600041
:1010d4007f416000416c20009140780000ceb30055
:1010e40000c0600002407000c4e6b7006d00370025
:1010f4001e0090007f4060007f416000516c200022
:101104009140780000ceb30000c06000024070003f
:10111400c5e6b700630037001e0090007f40600002
:101124007f416000616c20009140780000ceb300e4
:1011340000c0600002407000c6e6b70059003700e6
:101144001e0090007f4060007f416000716c2000b1
:101154009140780000ceb30000c0600002407000ef
:10116400c7e6b7004f0037001e0090007f406000c4
:101174007f416000816c20009140780000ceb30074
:1011840000c0600002407000c8e6b70045003700a8
:101194001e0090007f4060007f416000916c200041
:1011a4009140780000ceb30000c06000024070009f
:1011b400c9e6b7003b0037001e0090007f40600086
:1011c4007f416000a16c20009140780000ceb30004
:1011d40000c0600002407000cae6b700310037006a
:1011e4001e0090007f4060007f416000b16c2000d1
:1011f4009140780000ceb30000c06000024070004f
:10120400cbe6b700270037001e0090007f40600047
:101214007f416000c16c20009140780000ceb30093
:1012240000c0600002407000cce6b7001d0037002b
:101234001e0090007f4060007f416000d16c200060
:101244009140780000ceb30000c0600002407000fe
:10125400cde6b700130037001e0090007f40600009
:101264007f416000e16c20009140780000ceb30023
:1012740000c0600002407000cee6b70009003700ed
:101284001e0090007f4060007f416000f16c2000f0
:101294009140780000ceb30000c0600002407000ae
:1012a400cfe6b7000080fa00000006000200fa0052
:1012b400000f780005e1a90005a1a90004c1a90057
:1012c4001e00780063406000634060004401dd005c
:1012d4004110200091407800f0ccb30000c06000c1
:1012e4000240700004e1b7000441a9000421a900f0
:1012f4000000eb000008880090002000100888001f
:101304000080fa00000006000200fa00000f7800d6
:1013140011e1a90011a1a90010c1a9001e007800c3
:1013240063406000634060004401dd00011120005f
:1013340091407800f0ccb30000c06000024070001f
:1013440010e1b7001061a9001021a9000000eb0012
:101354003008880090002000600888000080fa00af
:10136400000006000200fa00000f780013e1a90053
:1013740013a1a90012c1a9001e00780063406000f7
:10138400634060004401dd00211120009140780099
:10139400f0ccb30000c060000240700012e1b7005e
:1013a4001221a9000000eb005008880090002000e2
:1013b400700888000080fa00000006000200fa00ad
:1013c400000f78001fe1a9001fa1a9001ec1a900f8
:1013d4001e00780063406000634060004401dd004b
:1013e400e111200091407800f0ccb30000c060000f
:1013f400024070001ee1b7001e61a9001e21a90071
:101404000000eb00a008880090002000d0088800ad
:101414000080fa00000006000200fa00000f7800c5
:1014240021e1a90021a1a90020c1a9001e00780082
:1014340063406000634060004401dd00011220004d
:1014440091407800f0ccb30000c06000024070000e
:1014540020e1b7002021a9000000eb00c0088800ab
:1014640090002000e00888000080fa0000000600d8
:101474000200fa00000f780011e1a90011a1a900ef
:1014840010c1a9001e007800634060006340600042
:101494004401dd000111200091407800f0ccb3003c
:1014a40000c060000240700010e1b7001061a800a5
:1014b4001021a9000000eb00300888000000eb00b8
:1014c40050088800200120006008880020012000c6
:1014d400700888000080fa00000006000200fa008c
:1014e400000f78001fe1a9001fa1a9001ec1a900d7
:1014f4001e00780063406000634060004401dd002a
:10150400e111200091407800f0ccb30000c06000ed
:10151400024070001ee1b7001e61a8001e21a90050
:101524000000eb00a00888000000eb00c008880061
:1015340020012000d008880020012000e008880055
:101544000080fa00000006000200fa00000f780094
:101554001e00780067406000674060004401dd00c1
:10156400510a200091407800f0c8b30000c0600028
:1015740002407000a5e0b7008460a9009460a80050
:101584000080fa00000006000200fa00000f780054
:101594001e00780067406000674060004401dd0081
:1015a400710a200091407800f0c8b30000c06000c8
:1015b40002407000a7e0b70084e0a90094e0a8000e
:1015c4000080fa00000006000200fa00000f780014
:1015d4001e0078006740600067416000810a2000b7
:1015e4009140780080cfb30000c0600002407000da
:1015f400a8e0b7008500a9009500a8000080fa00c3
:10160400000006000200fa00000f78001e007800b7
:1016140067406000674060004401dd00110b20005a
:1016240091407800f0c8b30000c060000240700030
:10163400b1e0b7008760a9009760a8000080fa00b5
:10164400000006000200fa00000f78001e00780077
:101654006740600067416000210b200091407800e2
:1016640080cfb30000c0600002407000b2e0b70059
:101674008780a9009780a8000080fa000000060077
:101684000000fa009460a9000080fa00000006003f
:101694000000fa0094e0a9000080fa0000000600af
:1016a4000000fa009500a9000080fa00000006007e
:1016b4000000fa009760a9000080fa00000006000c
:1016c4000000fa009780a9000080fa0000000600dc
:1016d4000200fa00000f78000000eb000008880008
:1016e4001e0078001008880005e1a8000080fa00b8
:1016f400000006000200fa00000f78000000eb0072
:10170400300888001e0078006008880011e1a800f5
:101714000080fa00000006000200fa00000f7800c2
:101724000000eb00500888001e0078007008880054
:1017340013e1a8000080fa00000006000200fa008d
:10174400000f78000000eb00a00888001e0078005d
:10175400d00888001fe1a8000080fa0000000600fd
:101764000200fa00000f78000000eb00c0088800b7
:101774001e007800e008880021e1a8000080fa003b
:10178400000006000400fa00008fbe000000eb0019
:10179400400888000000eb00300888001e00be00ee
:1017a4004088de00cf80de00600888001e007800dc
:1017b400800078000080eb000080600070088800e2
:1017c40011e1a8000080fa00000006000400fa00fd
:1017d400008fbe000000eb00b00888000000eb00a2
:1017e400a00888001e00be004088de00cf80de0016
:1017f400d00888001e007800800078000080eb008c
:1018040000806000e00888001fe1a8000080fa0062
:10181400000006000000fa0005e1a9000080fa00bb
:10182400000006000000fa0011e1a9000080fa009f
:10183400000006000000fa0013e1a9000080fa008d
:10184400000006000000fa001fe1a9000080fa0071
:10185400000006000000fa0021e1a9000080fa005f
:10186400000006000000fa0011e1a9000080fa005f
:10187400000006000000fa001fe1a9000080fa0041
:10188400000006000000fa00000880000080fa0052
:10189400000006000000fa00300880000080fa0012
:1018a400000006000000fa00500880000080fa00e2
:1018b400000006000000fa00a00880000080fa0082
:1018c400000006000000fa00c00880000080fa0052
:1018d400000006000800fa006000b800008fbe0097
:1018e4003008800001002000008fbe004008800006
:1018f40001002000c000dd000000200002002000e4
:10190400f3ff2f00000278008102780002007800c3
:101914008300780000016200018062006102b80067
:1019240024079800350798002e009000be00900010
:10193400c000dd0000002000200798003107980057
:101944002e009000be0090006112b8002407980099
:10195400350798002e019000be019000020070002f
:10196400838070001e01be00000041008180490098
:10197400008fbe001e00be000080fa0000000600ba
:101984000800fa006000b800008fbe00a0088000c4
:1019940001002000008fbe00b0088000010020007c
:1019a400c000dd000000200002002000f3ff2f0033
:1019b4000002780081027800020078008300780039
:1019c40000016200018062006102b80024079800ef
:1019d400350798002e009000be009000c000dd0086
:1019e4000000200020079800310798002e00900086
:1019f400be0090006112b8002407980035079800d3
:101a04002e019000be0190000200700083807000df
:101a14001e01be000000410081804900008fbe000d
:101a24001e00be000080fa00000006000400fa0058
:101a34000000eb00100798000040eb00004f780016
:101a440086000700e05128001efb07001e009000de
:101a54000000e800cf80de00f2ff2f00030020002a
:101a6400e7fa0700100798001e0090007c010700a9
:101a740030118000004f78001e00fb001bfb0700a4
:101a8400a000200001002000f2020700efff370051
:101a94003600f800809fbe00829fbe00849fbe0077
:101aa400869fbe003400f80000002000a0018800da
:101ab4000200fa000040eb00004f78003011800073
:101ac400004f78001e00fb000000e80007fb070041
:101ad4008560a9000080fa003400f9004f03be00bd
:101ae4004f02be004f01be004f00be003600f90099
:101af400004006003400f800881f78000800200029
:101b0400a80188004f0478000000fa0087c0a900eb
:101b14000080fa003400f900004006003400f800a8
:101b2400881f780008002000a80188004f0478006e
:101b34000000fa0085a0a9000080fa003400f90032
:101b4400004006003400f800881f780008002000d8
:101b5400a80188004f0478000000fa008680a900dc
:101b64000080fa003400f900004006003400f80058
:101b7400881f780008002000a80188004f0478001e
:101b84000000fa0087a0a9000080fa003400f900e0
:101b9400004006003400f800881f78000800200088
:101ba400a80188004f0478000000fa008460a900ae
:101bb4000080fa003400f900004006003400f80008
:101bc400881f780008002000a80188004f047800ce
:101bd4000000fa0084e0a9000080fa003400f90053
:101be400004006003400f800881f78000800200038
:101bf400a80188004f0478000000fa008500a900bd
:101c04000080fa003400f900004006003400f800b7
:101c1400881f780008002000a80188004f0478007d
:101c24000000fa008760a9000080fa003400f9007f
:101c3400004006003400f800881f780008002000e7
:101c4400a80188004f0478000000fa008780a900ea
:101c54000080fa003400f900004006000000fa0099
:101c6400f901070000302000103a8800001020001d
:101c7400203a880060022000303a880030002000ba
:101c84000016880080fa2800401688008000eb00c7
:101c9400900020000a010700500020001c010700ea
:101ca4003100200020002000befc0700410120007c
:101cb4003000200066fb0700100020007bfd0700b9
:101cc4006ffe07000000eb008ffd070070fe0700a9
:101cd4000080eb0087fe070010002000a1fd070034
:101ce4006ffe070030002000fcfd070070fe0700b7
:101cf40073fe07000080eb008080eb00b3fe07005a
:101d04000000eb002a0007000000eb004000070081
:101d14000000eb00560007000000eb006c00070019
:101d2400210120000000eb009efc0700310120008f
:101d3400d00020009bfc070041012000e0002000af
:101d440098fc070051012000f000200095fc0700da
:101d54000000eb00760007000000eb0080000700a5
:101d64000000eb008a0007000000eb00940007006d
:101d7400110020000000eb006901070011002000a1
:101d84009000200032fb070011002000100020000a
:101d94007d01070021002000a00020002cfb07008b
:101da400a0010700c482a8000080fa000000060019
:101db4000200fa00000f78004118200091407800da
:101dc40080cfb30000c0600084e1b70085a1a90002
:101dd4001e00780061406000614060004301dd0046
:101de400411820009140780070cfb30000c060001b
:101df4000240700084e1b7000000eb00100c880082
:101e04000000eb00000c88000080fa0000000600cf
:101e14000200fa00000f7800a11820009140780019
:101e240080cfb30000c060008ae1b7008ba1a90095
:101e34001e00780061406000614060004301dd00e5
:101e4400a11820009140780070cfb30000c060005a
:101e5400024070008ae1b7000000eb00400c8800eb
:101e64000000eb00300c88000080fa00000006003f
:101e74000200fa00000f7800011920009140780058
:101e840080cfb30000c0600090e1b70091a1a90029
:101e94001e00780061406000614060004301dd0085
:101ea400011920009140780070cfb30000c0600099
:101eb4000240700090e1b7000000eb00700c880055
:101ec4000000eb00600c88000080fa0000000600af
:101ed4000200fa00000f7800611920009140780098
:101ee40080cfb30000c0600096e1b70097a1a900bd
:101ef4001e00780061406000614060004301dd0025
:101f0400611920009140780070cfb30000c06000d8
:101f14000240700096e1b7000000eb00a00c8800be
:101f24000000eb00900c88000080fa00000006001e
:101f34000200fa00000f78001e007800000c8800f0
:101f4400411820009140780080cfb30000c06000a9
:101f54006040b30084e1b7000080fa00000006008e
:101f64000200fa00000f78001e007800300c880090
:101f7400a11820009140780080cfb30000c0600019
:101f84006040b3008ae1b7000080fa000000060058
:101f94000200fa00000f78001e007800600c880030
:101fa400011920009140780080cfb30000c0600088
:101fb4006040b30090e1b7000080fa000000060022
:101fc4000200fa00000f78001e007800900c8800d0
:101fd400611920009140780080cfb30000c06000f8
:101fe4006040b30096e1b7000080fa0000000600ec
:101ff4000000fa0084c1bf0081cfb300014060003b
:1020040084e1b7000080fa00000006000000fa0036
:102014008ac1bf0081cfb300014060008ae1b700ec
:102024000080fa00000006000000fa0090c1bf0022
:1020340081cfb3000140600090e1b7000080fa0056
:10204400000006000000fa0096c1bf0081cfb30073
:102054000140600096e1b7000080fa00000006002d
:102064000200fa00000f78001e007800000c8800bf
:102074000080fa00000006000200fa00000f780059
:102084001e007800300c88000080fa000000060072
:102094000200fa00000f78001e007800600c88002f
:1020a4000080fa00000006000200fa00000f780029
:1020b4001e007800900c88000080fa0000000600e2
:1020c4000400fa00000f7800110798001e00900029
:1020d4006340600063416000112220009140780059
:1020e400c0cfb30000c060000240700021e2b7001e
:1020f4001e007800401188000000eb0010118800d9
:1021040021e2a8002342a8000080fa000000060093
:102114000200fa00000f78001e007800674060009b
:10212400674060004401dd00910a2000914078007e
:10213400f0c8b30000c0600002407000a9e0b7001e
:102144008560a9009560a8000080fa0000000600e0
:102154000000fa009560a9000080fa000000060063
:102164000400fa00000f7800110798001e00900088
:1021740063406000634160001123200091407800b7
:10218400c0cfb30000c060000240700031e2b7006d
:102194001e007800c01188000000eb009011880038
:1021a40031e2a8003342a8000080fa0000000600d3
:1021b4000200fa00000f78001e00780067406000fb
:1021c40067416000310b20009140780080cfb3005c
:1021d40000c0600002407000b3e0b70087c0a900ef
:1021e40097c0a8000080fa00000006000000fa0072
:1021f4009560a9000080fa00000006000000fa00c3
:1022040022c2bf00624060000004e000030032000c
:10221400004928002bf907002222a90022c2bf008e
:10222400644060000004e00003003200804a28009b
:1022340024f907002242a90022c2bf0068406000be
:102244000004e00003003200004c28001df90700e0
:102254002262a9000080fa00000006000000fa00d3
:1022640032c2bf00624060000004e000030032009c
:10227400704d280013f907003222a90032c2bf00b2
:10228400644060000004e00003003200f04e2800c7
:102294000cf907003242a90032c2bf006840600056
:1022a4000004e000030032007050280005f9070024
:1022b4003262a9000080fa00000006000400fa005f
:1022c400000f7800110798008400a9001e00780010
:1022d4006140600061416000210820009140780065
:1022e400e0cfb30000c060000240700082e0b7009d
:1022f4001e0090006740600067416000410a2000b2
:102304009140780080cfb30000c0600002407000ac
:10231400a4e0b7009400a8000080fa0000000600c2
:102324000400fa00000f7800110798008680a900c5
:102334001e00780061406000614060000041400080
:102344002108200091407800d0cfb30000c0600085
:102354000240700082e0b7001e00900067406000f9
:1023640067416000e10a20009140780080cfb3000b
:1023740000c0600002407000aee0b7009680a80084
:102384000080fa00000006000400fa00000f780044
:102394001107980087a0a9001e0078006140600022
:1023a400614060004201dd00210820009140780076
:1023b400b0cfb30000c060000240700082e0b700fc
:1023c4001e00900067406000674060004401dd002b
:1023d400210b200091407800f0c8b30000c06000d9
:1023e40002407000b2e0b70097a0a8000080fa0095
:1023f400000006000000fa009400a9000080fa0022
:10240400000006000000fa009680a9000080fa008f
:10241400000006000000fa0097a0a9000080fa005e
:10242400000006000000fa004460a90042c0bf009a
:102434007f40600042e0b70081e0a90083e0a9008a
:102444000080fa00000006000000fa004460a900c1
:1024540042c0bf0001ceb3000140700042e0b700ab
:1024640081e0a90083e0a9000080fa0000000600d2
:102474000200fa00000f780021e3a90021a3a900bb
:102484002143a9001132200091407800c0cfb3004d
:1024940000c0600021e3b70020c3bf007f4060009c
:1024a40020e3b7002063a9002043a9002023a9004a
:1024b4002003a90023c3bf007f40600023e3b700cb
:1024c4002343a9003132200091407800c0cfb300eb
:1024d40000c0600023e3b70022e3a90021322000fa
:1024e4009140780030ccb30000c0600022e3b70014
:1024f4002223a9002203a90025e3a90051322000c8
:102504009140780000ceb30000c060000024a00019
:1025140025e3b70050c0b30024e3b70071322000b4
:102524009140780090cfb30000c0600027e3b7006b
:102534002703a900613220009140780090cfb300b6
:1025440000c0600026e3b7002603a90029e3a90020
:10255400913220009140780000ceb30000c06000aa
:1025640029e3b70028e3a9008132200091407800d4
:1025740000ceb30000c0600028e3b7001e0078005e
:10258400601988000080fa00000006000200fa00ca
:10259400000f78001e007800b5ff07002143a80053
:1025a40060c0b30024e3b7000080fa000000060016
:1025b4000200fa00000f780021e3a9001e00780051
:1025c4004019880021e3a8002023a800400120002e
:1025d40001002000080007002023a90020c3bf0039
:1025e400614060000004e000fcff3200001880003d
:1025f4000080fa00000006000800fa002007980096
:10260400310798006000b800008fbe000500370055
:10261400000000001e00be0061004000e080480091
:10262400008fbe002e009000be0090004309dd0024
:10263400cd01de00830171004301dd001e00be00f8
:10264400800f5100818f5900f1ff31000080fa00a2
:10265400000006000800fa002007980031079800df
:102664006000b800008fbe00070037001000200093
:1026740001002000e0ff07001e00be0061004000d2
:10268400e0804800008fbe00ae00900000052000ee
:10269400000ab8002e0090006000b900050178001f
:1026a40000014100be009000000520000088b90030
:1026b40000014100820278001e00be00800f52001b
:1026c400818f5a00e9ff31000080fa000000060003
:020000040000fa
:1026d40000080000420000000200000001000000a9
:1026e40000000000000000000000000000000000e6
:1026f40000000000000000000000000000000000d6
:1027040000000000000000000000000000000000c5
:1027140000000000000000000000000000000000b5
:1027240000000000000000000000000000000000a5
:102734000000000042080000260000000200000023
:1027440044086a00080000006a080900000000004c
:10275400020068000800000068080600020100008a
:10276400000000000000000000000600020200005b
:1027740000000000680800000600000000000000df
:102784006e080000020000000200000001000000ca
:042794000000000041
:00000001FF
