:020000040000FA
:060000004EEF0FF01200AC
:0A0006000100F01E0000AE00000033
:0400100002000000EA
:0C001400D9CFE6FFE1CFD9FFFD0EDBCF16
:1000200000F0DB06FE0EDBCF01F001E2DB06005044
:10003000011006E0010EE66EEAEC0EF0E552EED796
:10004000E552E7CFD9FF1200D9CFE6FFE1CFD9FFC4
:10005000FD0EDBCF00F0DB06FE0EDBCF01F001E290
:10006000DB060050011006E0010EE66E5CEC0FF0BE
:10007000E552EED7E552E7CFD9FF1200D9CFE6FF20
:10008000E1CFD9FF8296FD0EDBCF00F0FE0EDBCF75
:1000900001F001C000F0016A0050816E82948284F8
:1000A000FD0EDB50816E829482848286E552E7CF1A
:1000B000D9FF1200D9CFE6FFE1CFD9FFFD0EDBCF8C
:1000C00000F0FE0EDBCF01F001C000F0016A00502D
:1000D000816E82948284FD0EDB50816E82948284D4
:1000E000E552E7CFD9FF1200D9CFE6FFE1CFD9FF24
:1000F000140EE126928A948292988088949082903D
:10010000C80EE66EE66AA0DFE552E5528F0EE66E97
:1001100001EC0FF0E55275EC0FF0900EE66E010E5B
:10012000E66E92DFE552E55270EC0FF0000901E057
:10013000FBD767EC0FF0040EF3CFDBFF050EF4CF17
:10014000DBFF92889480929A808A94928292C80E61
:10015000E66EE66A79DFE552E552870EE66E01EC5F
:100160000FF0E55275EC0FF0900EE66E010EE66EA4
:100170006BDFE552E55270EC0FF0000901E0FBD7B0
:1001800067EC0FF0F3CFDEFFF4CFDDFF928A9482AD
:100190009298808894908290C80EE66EE66A54DF4A
:1001A000E552E5528F0EE66E01EC0FF0E55275EC6C
:1001B0000FF0900EE66E010EE66E46DFE552E55258
:1001C00070EC0FF0000901E0FBD767EC0FF0060EB2
:1001D000F3CFDBFF070EF4CFDBFF92889480929A77
:1001E000808A94928292C80EE66EE66A2DDFE5520E
:1001F000E552870EE66E01EC0FF0E55275EC0FF05C
:10020000900EE66E010EE66E1FDFE552E55270ECD1
:100210000FF0000901E0FBD767EC0FF0020EF3CFFF
:10022000DBFF030EF4CFDBFF020EDBCF04F0030E87
:10023000DBCF05F0DE50045C026EDD500558036E26
:10024000033404E202500008000E03540DE2020ED3
:10025000DBCF06F0030EDBCF07F0DE50065C006E4E
:10026000DD500758016E10D0020EDBCF08F0030EF0
:10027000DBCF09F0DE50085C006EDD500958016EDE
:10028000006C011E000E0122013404E2005003083C
:10029000000E015401E22ED7060EDBCF0EF0070E42
:1002A000DBCF0FF0040EDB500E5C0C6E050EDB5046
:1002B0000F580D6E0D3404E20C500008000E0D5462
:1002C0000FE2060EDBCF10F0070EDBCF11F0040EAD
:1002D000DB50105C0A6E050EDB5011580B6E12D00D
:1002E000060EDBCF12F0070EDBCF13F0040EDB504F
:1002F000125C0A6E050EDB5013580B6E0A6C0B1E57
:10030000000E0B220B3404E20A500308000E0B54BB
:1003100001E2F0D6060EDBCF02F0070EDBCF03F0D2
:10032000040EDB500224006E050EDB500320016E2C
:10033000020E2D6E2E6A00C028F001C029F045EC97
:100340000DF028C000F029C001F0FB0EDBCFE9FF63
:10035000FC0EDBCFEAFF00C0EEFF01C0EDFF020E96
:10036000DBCF02F0030EDBCF03F0DE500224006E81
:10037000DD500320016E020E2D6E2E6A00C028F0A3
:1003800001C029F045EC0DF028C000F029C001F0B3
:10039000FD0EDBCFE9FFFE0EDBCFEAFF00C0EEFF74
:1003A00001C0EDFF8C0EF36E0A0EF3CFDBFF0B0ED8
:1003B000DB6A870EF36E100EF3CFDBFF110EDB6AE4
:1003C000A80EF36E080EF3CFDBFF020EF36E090EDC
:1003D000F3CFDBFF2A0EF36E0E0EF3CFDBFF030E1F
:1003E000F36E0F0EF3CFDBFFFD0EDBCFE9FFFE0E4A
:1003F000DBCFEAFFEECF00F0EFCF01F00A0EDBCF4C
:1004000002F00B0EDBCF03F001500318E8AE02D070
:10041000033404D00250005C035001582EE2FB0E5E
:10042000DBCFE9FFFC0EDBCFEAFFEECF04F0EFCF2E
:1004300005F0100EDBCF06F0110EDBCF07F00550F4
:100440000718E8AE02D0073404D00650045C075009
:10045000055813E2FD0EDBCFE9FFFE0EDBCFEAFF0E
:10046000EE6AED6AFB0EDBCFE9FFFC0EDBCFEAFFA5
:10047000EE6AED6AF36AF46A29D1080EDBCF02F066
:10048000090EDBCF03F00A0EDB50025C006E0B0E90
:10049000DB500358016E0C0E00C0DBFF0D0E01C0D7
:1004A000DBFF0E0EDBCF02F00F0EDBCF03F0100EE2
:1004B000DB50025C006E110EDB500358016E120E11
:1004C00000C0DBFF130E01C0DBFFF00E046E056AF7
:1004D000066A076A0C0EDBCF0EF00D0EDBCF0FF0B5
:1004E000106A116A0FAE02D010681168FD0EDBCFE2
:1004F000E9FFFE0EDBCFEAFFEECF0CF0EFCF0DF001
:100500000A0EDB500C5C086E0B0EDB500D58096EAA
:100510000A6A0B6A09AE02D00A680B68F00E2B6EED
:100520002C6A2D6A2E6A08C026F009C027F00AC07E
:1005300028F00BC029F039EC0EF022C008F023C0DF
:1005400009F024C00AF025C00BF008C026F009C04D
:1005500027F00AC028F00BC029F00EC02BF00FC006
:100560002CF010C02DF011C02EF06BEC0DF02650C9
:10057000045C006E27500558016E28500658026E24
:1005800029500758036EFD0EDBCFE9FFFE0EDBCFCF
:10059000EAFF00C0EEFF01C0EDFF400E046E010E49
:1005A000056E066A076A120EDBCF0EF0130EDBCF64
:1005B0000FF0106A116A0FAE02D010681168FB0EBE
:1005C000DBCFE9FFFC0EDBCFEAFFEECF0CF0EFCF85
:1005D0000DF0100EDB500C5C086E110EDB500D5848
:1005E000096E0A6A0B6A09AE02D00A680B68400EEF
:1005F0002B6E010E2C6E2D6A2E6A08C026F009C0E3
:1006000027F00AC028F00BC029F039EC0EF022C008
:1006100008F023C009F024C00AF025C00BF008C080
:1006200026F009C027F00AC028F00BC029F00EC040
:100630002BF00FC02CF010C02DF011C02EF06BEC81
:100640000DF02650045C006E27500558016E2850AE
:100650000658026E29500758036EFB0EDBCFE9FFE8
:10066000FC0EDBCFEAFF00C0EEFF01C0EDFFFD0E88
:10067000DBCFE9FFFE0EDBCFEAFFEECF00F0EFCFDE
:1006800001F00001800E011408E0FD0EDBCFE9FF50
:10069000FE0EDBCFEAFFEE6AED6AFB0EDBCFE9FF71
:1006A000FC0EDBCFEAFFEECF00F0EFCF01F0800EC3
:1006B000011408E0FB0EDBCFE9FFFC0EDBCFEAFF05
:1006C000EE6AED6A010EF36EF46A00D0140EE15C7E
:1006D00002E2E16AE552E16EE552E7CFD9FF12008E
:1006E000D9CFE6FFE1CFD9FF020EE126DE6ADD6A4F
:1006F000FE0EDB50200DF3CF00F0F4CF01F0080E1A
:100700000F0B05E0D89001320032E806FBE1005003
:10071000006AE834E834E834F80B016ED9CFE9FF19
:10072000DACFEAFF0050EE260150ED22FD0EDB503D
:10073000400DF3CF00F0F4CF01F0080E0F0B05E0F1
:10074000D89001320032E806FBE1050ED890003661
:100750000136E804FBE1D9CFE9FFDACFEAFF005028
:10076000EE260150ED22FC0EDB50200DF3CF00F001
:10077000F4CF01F0080E0F0B05E0D89001320032E3
:10078000E806FBE1D9CFE9FFDACFEAFF0050EE2619
:100790000150ED22DECF00F0DDCF01F000C0F3FF0D
:1007A00001C0F4FF020EE15C03E200D0E16AE55211
:1007B000E16EE552E7CFD9FF1200D9CFE6FFE1CFD6
:1007C000D9FF020EE126DE6ADD6AFD0EDBCF04F002
:1007D000FE0EDBCF05F0000E0416F80E0516066AB5
:1007E000076AF90EDBCF1CF0FA0EDBCF1DF01E6A94
:1007F0001F6A1DAE02D01E681F68F70EDBCF18F00F
:10080000F80EDBCF19F01A6A1B6A19AE02D01A680B
:100810001B68FB0EDBCF10F0FC0EDBCF11F0000EDF
:100820001016F80E1116126A136AFD0EDBCF14F0C3
:10083000FE0EDBCF15F0000E1416F80E1516166A14
:10084000176A1450105C0C6E155011580D6E16502E
:1008500012580E6E175013580F6E0CC026F00DC0B4
:1008600027F00EC028F00FC029F018C02BF019C0D7
:100870002CF01AC02DF01BC02EF039EC0EF022C067
:1008800008F023C009F024C00AF025C00BF008C00E
:1008900026F009C027F00AC028F00BC029F01CC0C0
:1008A0002BF01DC02CF01EC02DF01FC02EF06BECE5
:1008B0000DF004502624006E05502720016E0650CE
:1008C0002820026E07502920036E006AF80E0116D8
:1008D000026A036AD9CFE9FFDACFEAFF0050EE26B9
:1008E0000150ED22FD0EDBCF04F0FE0EDBCF05F054
:1008F000E00E0416070E0516066A076AF90EDBCF2E
:100900001CF0FA0EDBCF1DF01E6A1F6A1DAE02D06E
:100910001E681F68F70EDBCF18F0F80EDBCF19F05A
:100920001A6A1B6A19AE02D01A681B68FB0EDBCF6D
:1009300010F0FC0EDBCF11F0E00E1016070E1116B2
:10094000126A136AFD0EDBCF14F0FE0EDBCF15F03A
:10095000E00E1416070E1516166A176A1450105C6E
:100960000C6E155011580D6E165012580E6E175011
:1009700013580F6E0CC026F00DC027F00EC028F0E3
:100980000FC029F018C02BF019C02CF01AC02DF0A0
:100990001BC02EF039EC0EF022C008F023C009F085
:1009A00024C00AF025C00BF008C026F009C027F0CB
:1009B0000AC028F00BC029F01CC02BF01DC02CF081
:1009C0001EC02DF01FC02EF06BEC0DF0045026243D
:1009D000006E05502720016E06502820026E075039
:1009E0002920036EE00E0016070E0116026A036A44
:1009F000D9CFE9FFDACFEAFF0050EE260150ED2211
:100A00001F0EE76EFD0EDBCF04F0FE0EDBCF05F010
:100A1000E7500416056A066A076AF90EDBCF1CF078
:100A2000FA0EDBCF1DF01E6A1F6A1DAE02D01E68D3
:100A30001F68F70EDBCF18F0F80EDBCF19F01A6A3B
:100A40001B6A19AE02D01A681B681F0EE76EFB0EF8
:100A5000DBCF10F0FC0EDBCF11F0E7501016116A5F
:100A6000126A136A1F0EE76EFD0EDBCF14F0FE0E46
:100A7000DBCF15F0E7501416156A166A176A145082
:100A8000105C0C6E155011580D6E165012580E6EEB
:100A9000175013580F6E0CC026F00DC027F00EC073
:100AA00028F00FC029F018C02BF019C02CF01AC084
:100AB0002DF01BC02EF039EC0EF022C008F023C040
:100AC00009F024C00AF025C00BF008C026F009C0C8
:100AD00027F00AC028F00BC029F01CC02BF01DC065
:100AE0002CF01EC02DF01FC02EF06BEC0DF004504A
:100AF0002624006E05502720016E06502820026E25
:100B000007502920036E1F0E0016016A026A036A4D
:100B1000D9CFE9FFDACFEAFF0050EE260150ED22EF
:100B2000DECF00F0DDCF01F000C0F3FF01C0F4FF25
:100B3000020EE15C03E200D0E16AE552E16EE552AB
:100B4000E7CFD9FF12000B0EE66E040EE66ED90E4B
:100B5000E66E71EC0EF0E552E552E552946A936A46
:100B600082848286000E0001886F896B866F876B96
:100B70008C6F8D6B8A6F8B6B8288010EE66EE66AD6
:100B80000AEC00F0E552E5528298050EE66EE66A40
:100B90000AEC00F0E552E55282880A0EE66EE66A3B
:100BA0000AEC00F0E552E552E30EE66EE66A3EEC32
:100BB00000F0E552E552080EE66E300EE66E5AEC95
:100BC00000F0E552E552E70EE66EE66A3EEC00F014
:100BD000E552E552120EE66EE66A5AEC00F0E55276
:100BE000E552EF0EE66EE66A3EEC00F0E552E552A5
:100BF000310EE66E120EE66E5AEC00F0E552E5524A
:100C0000010EE66EE66A3EEC00F0E552E552E66A59
:100C1000010EE66E5AEC00F0E552E552020EE66E69
:100C2000E66A3EEC00F0E552E552E66A070EE66E33
:100C30005AEC00F0E552E552030EE66EE66A3EEC31
:100C400000F0E552E552300EE66E100EE66E5AECFC
:100C500000F0E552E552040EE66EE66A3EEC00F066
:100C6000E552E552000EE66EE66A5AEC00F0E552F7
:100C7000E552080EE66EE66A3EEC00F0E552E552FB
:100C8000070EE66E020EE66E5AEC00F0E552E552F3
:100C9000090EE66EE66A3EEC00F0E552E552000E03
:100CA000E66EE66A5AEC00F0E552E5520A0EE66E90
:100CB000E66A3EEC00F0E552E552000EE66EE66AAA
:100CC0005AEC00F0E552E5520C0EE66EE66A3EEC98
:100CD00000F0E552E552000EE66EE66A5AEC00F0CE
:100CE000E552E5520D0EE66EE66A3EEC00F0E55286
:100CF000E552000EE66EE66A5AEC00F0E552E55267
:100D00000F0EE66EE66A3EEC00F0E552E552000E8C
:100D1000E66EE66A5AEC00F0E552E552100EE66E19
:100D2000E66A3EEC00F0E552E552000EE66EE66A39
:100D30005AEC00F0E552E552110EE66EE66A3EEC22
:100D400000F0E552E552070EE66EE66A5AEC00F056
:100D5000E552E552120EE66EE66A3EEC00F0E55210
:100D6000E552000EE66EE66A5AEC00F0E552E552F6
:100D7000130EE66EE66A3EEC00F0E552E552000E18
:100D8000E66EE66A5AEC00F0E552E552C80EE66EF1
:100D9000E66A0AEC00F0E552E552100EE66EE66AED
:100DA0003EEC00F0E552E552900EE66E140EE66E53
:100DB0005AEC00F0E552E552110EE66EE66A3EECA2
:100DC00000F0E552E552270EE66E020EE66E5AEC92
:100DD00000F0E552E552320EE66EE66A0AEC00F0EB
:100DE000E552E552120EE66EE66A3EEC00F0E55280
:100DF000E5521C0EE66EE66A5AEC00F0E552E5524A
:100E0000320EE66EE66A0AEC00F0E552E552130E89
:100E1000E66EE66A3EEC00F0E552E552E66A0A0E3E
:100E2000E66E5AEC00F0E552E552290EE66EE66AEF
:100E30003EEC00F0E552E5520F0EE66EE66A5AEC23
:100E400000F0E552E5522B0EE66EE66A3EEC00F04D
:100E5000E552E5520D0EE66EE66A5AEC00F0E552F8
:100E6000E552320EE66EE66A0AEC00F0E552E55213
:100E7000200EE66EE66A3EEC00F0E552E552000E0A
:100E8000E66EE66A5AEC00F0E552E552210EE66E97
:100E9000E66A3EEC00F0E552E552000EE66EE66AC8
:100EA0005AEC00F0E552E552300EE66EE66A3EEC92
:100EB00000F0E552E552000EE66EE66A5AEC00F0EC
:100EC000E552E552310EE66EE66A3EEC00F0E55280
:100ED000E552030EE66E020EE66E5AEC00F0E552A5
:100EE000E552320EE66EE66A3EEC00F0E552E5525F
:100EF000010EE66EE66A5AEC00F0E552E552350E58
:100F0000E66EE66A3EEC00F0E552E552050EE66E4E
:100F1000020EE66E5AEC00F0E552E552360EE66E31
:100F2000E66A3EEC00F0E552E5520C0EE66E030E6A
:100F3000E66E5AEC00F0E552E552370EE66EE66AD0
:100F40003EEC00F0E552E552070EE66E060EE66E48
:100F50005AEC00F0E552E552380EE66EE66A3EECD9
:100F600000F0E552E552050EE66E040EE66E5AEC10
:100F700000F0E552E552390EE66EE66A3EEC00F00E
:100F8000E552E552070EE66EE66E5AEC00F0E552C9
:100F9000E5523C0EE66EE66A3EEC00F0E552E552A4
:100FA000020EE66E050EE66E5AEC00F0E552E552D2
:100FB0003D0EE66EE66A3EEC00F0E552E552080EA4
:100FC000E66E100EE66E5AEC00F0E552E552500E59
:100FD000E66EE66A3EEC00F0E552E552000EE66E83
:100FE000E66A5AEC00F0E552E552510EE66EE66A0A
:100FF0003EEC00F0E552E552EF0EE66EE66A5AEC82
:1010000000F0E552E552520EE66EE66A3EEC00F064
:10101000E552E552000EE66EE66A5AEC00F0E55243
:10102000E552530EE66EE66A3EEC00F0E552E552FC
:101030003F0EE66E010EE66E5AEC00F0E552E55208
:10104000600EE66EE66A3EEC00F0E552E552E66AB6
:10105000A70EE66E5AEC00F0E552E552610EE66E20
:10106000E66A3EEC00F0E552E552010EE66EE66AF5
:101070005AEC00F0E552E5526A0EE66EE66A3EEC86
:1010800000F0E552E552000EE66EE66A5AEC00F01A
:10109000E552E552800EE66EE66A3EEC00F0E5525F
:1010A000E552000EE66EE66A5AEC00F0E552E552B3
:1010B000810EE66EE66A3EEC00F0E552E552000E67
:1010C000E66EE66A5AEC00F0E552E552820EE66EF4
:1010D000E66A3EEC00F0E552E552000EE66EE66A86
:1010E0005AEC00F0E552E552830EE66EE66A3EECFD
:1010F00000F0E552E552000EE66EE66A5AEC00F0AA
:10110000E552E552840EE66EE66A3EEC00F0E552EA
:10111000E552000EE66EE66A5AEC00F0E552E55242
:10112000850EE66EE66A3EEC00F0E552E552000EF2
:10113000E66EE66A5AEC00F0E552E552900EE66E75
:10114000E66A3EEC00F0E552E552100EE66EE66A05
:101150005AEC00F0E552E552920EE66EE66A3EEC7D
:1011600000F0E552E552E66A060EE66E5AEC00F033
:10117000E552E552930EE66EE66A3EEC00F0E5526B
:10118000E552030EE66EE66A5AEC00F0E552E552CF
:10119000950EE66EE66A3EEC00F0E552E552100E62
:1011A000E66E010EE66E5AEC00F0E552E552970E3F
:1011B000E66EE66A3EEC00F0E552E552000EE66EA1
:1011C000E66A5AEC00F0E552E552980EE66EE66AE1
:1011D0003EEC00F0E552E552000EE66EE66A5AEC8F
:1011E00000F0E552E552070EE66EE66A3EEC00F0CE
:1011F000E552E552330EE66E010EE66E5AEC00F053
:10120000E552E552220EE66EE66A3EEC00F0E5524B
:10121000E5521200D9CFE6FFE1CFD9FF500EE66EBE
:10122000E66A3EEC00F0E552E552FD0EDBCFE6FF4C
:10123000FE0EDBCFE6FF5AEC00F0E552E552510E10
:10124000E66EE66A3EEC00F0E552E552F90EDBCFC1
:1012500002F0FA0EDBCF03F0FD0EDB500224006E2D
:10126000FE0EDB500320016E0006000E015A00C086
:10127000E6FF01C0E6FF5AEC00F0E552E552520EDF
:10128000E66EE66A3EEC00F0E552E552FB0EDBCF7F
:10129000E6FFFC0EDBCFE6FF5AEC00F0E552E5522C
:1012A000530EE66EE66A3EEC00F0E552E552F70EAC
:1012B000DBCF02F0F80EDBCF03F0FB0EDB50022495
:1012C000006EFC0EDB500320016E0006000E015A7A
:1012D00000C0E6FF01C0E6FF5AEC00F0E552E5521F
:1012E000200EE66EE66A3EEC00F0E552E552FD0E99
:1012F000DBCFE6FFFE0EDBCFE6FF5AEC00F0E55257
:10130000E552210EE66EE66A3EEC00F0E552E5524B
:10131000FB0EDBCFE6FFFC0EDBCFE6FF5AEC00F066
:10132000E552E552220EE66EE66A3EEC00F0E5522A
:10133000E552E552E7CFD9FF1200D9CFE6FFE1CF62
:10134000D9FF200EE66EE66A3EEC00F0E552E5526B
:10135000FD0EDBCFE6FFFE0EDBCFE6FF5AEC00F022
:10136000E552E552210EE66EE66A3EEC00F0E552EB
:10137000E552FB0EDBCFE6FFFC0EDBCFE6FF5AECBF
:1013800000F0E552E552220EE66EE66A3EEC00F011
:10139000E552E552E552E7CFD9FF1200D9CFE6FF7B
:1013A000E1CFD9FF040EE126400EE66E010EE66E97
:1013B000F00EE66EE66A000EE66EE66AE66EE66A35
:1013C00029DF006E080EE15E0050DE6ADD6ADECFC6
:1013D00000F0DDCF01F0D890015004E6400E005C33
:1013E000010E015827E2020EDB6A030EDB6A020ED1
:1013F000DBCF00F0030EDBCF01F0D890015004E604
:10140000F00E005C000E015810E2FD0EDBCFE6FF8F
:10141000FE0EDBCFE6FF5AEC00F0E552E552020E7D
:10142000DB2A030E01E3DB2AE2D7DF2A010E01E308
:10143000DB2ACDD7040EE15C02E2E16AE552E16EFF
:10144000E552E7CFD9FF1200D9CFE6FFE1CFD9FFB0
:10145000080EE126020EE76EFD0EDBCFF6FFFE0E54
:10146000DBCFF7FFE750F626000EF7220900040E47
:10147000F5CFDBFF0A00050EF5CFDBFF040EE76EAC
:10148000FD0EDBCFF6FFFE0EDBCFF7FFE750F626B3
:10149000000EF7220900060EF5CFDBFF0A00070E4B
:1014A000F5CFDBFF060EDBCFE6FF070EDBCFE6FF57
:1014B000040EDBCFE6FF050EDBCFE6FFF90EDBCF38
:1014C000E6FFFA0EDBCFE6FFFB0EDBCFE6FFFC0EFE
:1014D000DBCFE6FF9FDE006E080EE15E0050D950C4
:1014E000FD0FE96EFF0EDA20EA6E060EEE26000E04
:1014F000ED22020EDB6A030EDB6A020EDBCF00F088
:10150000030EDBCF01F0060EDBCF02F0070EDBCFC0
:1015100003F001500318E8AE02D0033404D00250A7
:10152000005C035001583CE2DE6ADD6ADECF00F069
:10153000DDCF01F0040EDBCF02F0050EDBCF03F0B0
:1015400001500318E8AE02D0033404D00250005C0E
:10155000035001581FE2FD0EDBCFF6FFFE0EDBCF7E
:10156000F7FF0900F5CFE6FF0800F5CFE6FF5AECDC
:1015700000F0E552E552D950FD0FE96EFF0EDA207A
:10158000EA6E020EEE26000EEF22DF2A010E01E3C4
:10159000DB2ACCD7020EDB2A030E01E3DB2AADD710
:1015A000080EE15C02E2E16AE552E16EE552E7CF46
:1015B000D9FF1200D9CFE6FFE1CFD9FFFD0EDBCF77
:1015C00080F0FE0EDBCF81F0E552E7CFD9FF1200AD
:1015D000D9CFE6FFE1CFD9FFFD0EDBCF84F0FE0EC1
:1015E000DBCF85F0E552E7CFD9FF1200D9CFE6FF78
:1015F000E1CFD9FF120EE126010E0001F76A802526
:10160000F66E8151F7220800F550E66ED950040FAE
:10161000E96EDACFEAFFE552E750EE6EED6A020EB0
:10162000F76A8025F66E8151F7220800F550E66EC4
:10163000D950060FE96EDACFEAFFE552E750EE6EB9
:10164000ED6A8AC028F08BC029F0040EDBCF2DF0A4
:10165000050EDBCF2EF09FEC0DF000018651262405
:10166000006E87512720016E080E00C0DBFF090EB7
:1016700001C0DBFF8CC028F08DC029F0060EDBCF47
:101680002DF0070EDBCF2EF09FEC0DF000018851FE
:101690002624006E89512720016E0A0E00C0DBFF50
:1016A0000B0E01C0DBFF100E80C0DBFF110E81C0EE
:1016B000DBFF060EDBCFE6FF070EDBCFE6FF040EF7
:1016C000DBCFE6FF050EDBCFE6FF0A0EDBCFE6FF42
:1016D0000B0EDBCFE6FF080EDBCFE6FF090EDBCFFC
:1016E000E6FF98DD006E080EE15E0050D950100F45
:1016F000E96EDACFEAFF030EEE26000EED22FE0EB3
:10170000DB50F00BE8380F0B006E016AD950100F58
:10171000E96EDACFEAFF0050EE260150ED22FE0E10
:10172000DB500F0B026E036A02BE036802C028F092
:1017300003C029F0060EDBCF2DF0070EDBCF2EF015
:101740009FEC0DF026C000F027C001F0040ED890E9
:1017500000360136E806FBE1D950100FE96EDACF0A
:10176000EAFF0050EE260150ED220E0EDB6A0F0E4E
:10177000DB6A020EDB6A030EDB6A020EDBCF00F0CF
:10178000030EDBCF01F0060EDBCF02F0070EDBCF3E
:1017900003F001500318E8AE02D0033404D0025025
:1017A000005C0350015857E2DE6ADD6ADECF00F0CC
:1017B000DDCF01F0040EDBCF02F0050EDBCF03F02E
:1017C00001500318E8AE02D0033404D00250005C8C
:1017D0000350015831E2DECF00F0DDCF01F0070EFB
:1017E000D8800056000E0156100EDBCFF6FF110E0A
:1017F000DBCFF7FF0800F55000C0E7FFE75204E039
:10180000E8427F0BE706FCE1010B09E082C0E6FF3E
:1018100083C0E6FF5AEC00F0E552E55208D084C0E0
:10182000E6FF85C0E6FF5AEC00F0E552E552DF2AFC
:10183000010E01E3DB2ABAD7D950100FE96EDACFD7
:10184000EAFF100EEE26000EED22020EDB2A030E3A
:1018500001E3DB2A92D700018A2B000E8B23120EA4
:10186000E15C02E2E16AE552E16EE552E7CFD9FFC1
:101870001200D9CFE6FFE1CFD9FFFD0EDBCFE9FFA4
:10188000FE0EDBCFEAFFEF500EE0FD0EDBCFE9FFEF
:10189000DB2AFE0EDBCFEAFF01E3DB2AEF50E66E28
:1018A000A5DEE552EAD7E552E7CFD9FF1200D9CF3E
:1018B000E6FFE1CFD9FFFD0EDBCFF6FFFE0EDBCF5B
:1018C000F7FF0800F5500FE0FD0EDBCFF6FFDB2A37
:1018D000FE0EDBCFF7FF01E3DB2A0800F550E66ED2
:1018E00085DEE552E8D7E552E7CFD9FF1200D9CF20
:1018F000E6FFE1CFD9FFFB0EDBCFE6FFFC0EDBCF2F
:10190000E6FFFD0EDBCFE6FFFE0EDBCFE6FF15DDCB
:10191000E552E552E552E552F90EDBCFE6FFFA0E4D
:10192000DBCFE6FF5AEC00F0E552E552E552E7CF97
:04193000D9FF1200C9
:0C193400D9CFE6FFE1CFD9FF0C0EE12671
:101940000F0EC16E926E936A806A816A640EE66EB3
:101950002EEC0FF0E552A3EC05F0E668E668E8EC43
:101960000AF0E552E552E668E668CEEC09F0E55289
:10197000E552D3EC0EF0F3CF00F0F4CF01F01E0EE1
:101980002D6E2E6A00C028F001C029F045EC0DF044
:1019900024C000F025C001F00A0E0026000E01222E
:1019A000020E00C0DBFF030E01C0DBFFD3EC0EF024
:1019B000F3CF00F0F4CF01F0010ED89000360136DD
:1019C000E806FBE1040E00C0DBFF050E01C0DBFFF3
:1019D000D3EC0EF0F3CF00F0F4CF01F0010ED8906D
:1019E00000360136E806FBE1060E00C0DBFF070EFD
:1019F00001C0DBFF060EDBCFE6FF070EDBCFE6FF05
:101A0000E8EC0AF0E552E552D9500A0FE66E000EF6
:101A1000DA20E66ED950080FE66E000EDA20E66E88
:101A200074EC00F0E552E552E552E552F3CF00F0D8
:101A3000F4CF01F00050011001E1E6D7DE6ADD6A63
:101A4000DECF00F0DDCF01F0020EDBCF02F0030E9F
:101A5000DBCF03F001500318E8AE02D0033404D00A
:101A60000250005C0350015805E2DF2A010E01E339
:101A7000DB2AE6D77ED70C0EE15C02E2E16AE55292
:0A1A8000E16EE552E7CFD9FF120036
:061A8A00206A2EAE4EEFB3
:101A90000DF02D6C2E1EE86A2E22201E29AE56EF68
:101AA0000DF0286C291EE86A2922201E18EC0FF080
:101AB00029BE66EF0DF020AE000C286C291EE86AE6
:101AC0002922246C251EE86A2522000C20BE5DEF29
:101AD0000DF02188FF0C206AE86A2EAE78EF0DF039
:101AE0002B6C2C1E2D1E2E1E2C222D222E22201E53
:101AF00029AE83EF0DF0266C271E281E291E2722F3
:101B000028222922201EA8EC0EF029BE9AEF0DF003
:101B100020AE000C266C271E281E291EE86A2722EC
:101B200028222922226C231E241E251E2322242241
:101B30002522000C20BE8AEF0DF02188FF0C29C061
:101B400033F028C032F028502D02F4CF27F0F3CF25
:101B500026F029502E02F4CF29F0F3CF28F02D02E1
:101B6000F3502726F4502822E86A292232502E0208
:101B7000F3502726F4502822E86A29222EAEC5EF1A
:101B80000DF03250285E3350295A33AE000C2D50E0
:101B9000285E2E50295A000C28C032F028502D0201
:101BA000F4CF27F0F3CF26F029502E02F4CF29F0FE
:101BB000F3CF28F02D02F3502726F4502822E86AAC
:101BC000292232502E02F3502726F4502822E86AA8
:041BD0002922000CBA
:0C1BD400060EF66E000EF76E000EF86EA6
:101BE00000010900F550A96F0900F550AA6F03E143
:101BF000A96701D03DD00900F550A46F0900F55048
:101C0000A56F0900F550A66F09000900F550E96EAF
:101C10000900F550EA6E090009000900F550A76FA8
:101C20000900F550A86F09000900F6CFABF0F7CF17
:101C3000ACF0F8CFADF0A4C0F6FFA5C0F7FFA6C08A
:101C4000F8FF0001A75302E1A85307E00900F5508F
:101C5000EE6EA707F8E2A807F9D7ABC0F6FFACC055
:101C6000F7FFADC0F8FF0001A907000EAA5BBFD7C0
:021C7000120060
:0E1C720026502B02F3CF22F0F4CF23F02C02E9
:101C8000F3502326000EF420246E26502D02F3502C
:101C90002426000EF420256E26502E02F350252611
:101CA00027502B02F3502326F4502422000E252225
:101CB00027502C02F3502426F450252227502D02C1
:101CC000F350252628502B02F3502426F4502522C9
:101CD00028502C02F350252629502B02F35025269C
:021CE0001200F0
:0E1CE200D9CFE6FFDACFE6FFE1CFD9FFE2CFA0
:101CF000DAFFC26AC06AFC0EDB407F0B3C0BC26E8F
:101D0000FC0EDB38F00B300B006EFB0EDB500F0BC4
:101D10000010C16EFD0EDB50040DF350380B016E48
:101D2000FD0EDB380F0B070B006EFD0EDB50800B3A
:101D300000100110C06EFC0EDBAE03D09E9C9D8C8B
:101D4000F28CC280E552E5CFDAFFE7CFD9FF12006F
:101D5000256A246A236A226A200EE76ED890263606
:101D600027362836293622362336243625362B5078
:101D7000225C2C5023582D5024582E50255809E30E
:101D80002B50225E2C50235A2D50245A2E50255A67
:081D9000262AE72EE4D7120019
:081D9800FE0EE3CFAEF0FF0EDA
:101DA000E3CFAFF01200AFC029F0AEC028F0350E7F
:101DB0002D6E450E2E6ECCEC0DF0262AE86A2722F9
:101DC000279E27C0AFF026C0AEF0AEC0F3FFAFC075
:041DD000F4FF12000A
:0C1DD400FF0EE350356EEF0E01D0F30E51
:101DE000E76EE72EF1EF0EF00C0E346EE76AE72E89
:101DF000F7EF0EF0342EF6EF0EF0352EEFEF0EF07B
:021E00001200CE
:0E1E0200D9CFE6FFDACFE6FFE1CFD9FFE2CF7E
:101E1000DAFFC30EC214006EFD0EDB407F0B3C0BDD
:101E20000010C26EE552E5CFDAFFE7CFD9FF12000E
:101E3000256A246A100EE76ED89028362936243693
:101E400025362D50245C2E50255805E32D50245E58
:0C1E50002E50255A282AE72EF0D7120049
:041E5C00FF0EE35042
:101E6000356E480E01D04C0EE76EE72EFED7E76ABE
:0C1E7000E72EFED7352EF7D70000120039
:041E7C00000EF36EF3
:101E800000EE00F0020E01D81200EA6002D0EE6A05
:0C1E9000FCD7F350E9601200EE6AFCD7AA
:041E9C0011EE00F053
:101EA00021EE00F0F86A219CEAEC0DF077EC0FF0DF
:081EB0009AEC0CF0FBD71200C4
:081EB800FF0EE350E84E12009A
:0E1EC000000000D000D000D0E82EFAD71200AB
:021ECE00C450FE
:101ED000036E026AC3500210F36E03C0F4FF1200D7
:0A1EE000C250020B01E0010E1200D7
:041EEA00C28212009E
:021EEE001200E0
:021EF0000100EF
:020000040030CA
:0100010006F8
:010002000DF0
:0100030000FC
:010005008179
:010006008574
:010008000FE8
:01000900C036
:01000A000FE6
:01000B00E014
:01000C000FE4
:01000D0040B2
:00000001FF
