:1000000008308A00C62A00000A108A100A118207E6
:10001000413444342034733474346134723474346D
:100020000A3400340A108A100A1182070D3456343B
:100030004334433420343D342034253466340A3488
:1000400000340A108A100A1182070D3430347834D3
:10005000203425346C3464340A3400340A108A1095
:100060000A1182070D346434693473347434613492
:100070006E346334653420343D34203425346634A2
:100080000A340A3400342930840000080319552842
:100090000630F800F701F70B4B28F80B4A287B30A5
:1000A000F700F70B5128800B48288A150A12162BE7
:1000B0008E30F7002908F8002808F900FA01F8083E
:1000C000031D6C287908F800F9010830F702F808D8
:1000D000031D6C28F70174280310F81B7328F90D11
:1000E000F80DF7036C28F81300008A150A122E2B5E
:1000F00059080319E928E1005D080319E928E10717
:10010000031C83288A287F30E102031CE928031995
:10011000E9288E288130E1070318E9286108F700F3
:10012000F801F901FA015A08E500E5175B08E40057
:100130005C08E3001830E100E201631CB7286008A6
:10014000FA07031CA928F90A031DA928F80A0319AC
:10015000E2175F08F907031CB028F80A0319E21731
:100160005E08DB00DB175B08F8070318E217E20DF7
:10017000F80CF90CFA0CE50CE40CE30C0310E10BA1
:100180009C280130F7070318E928F81BCE28E50D55
:10019000FA0DF90DF80DF7030319E928E51FDF281B
:1001A000FA0A031DDF28F90A031DDF28F80A031DD8
:1001B000DF28F80CF90CFA0CF70A0319E9285A0899
:1001C000E2005E08E206E21FE728F817ED28F813C0
:1001D000ED28F701F801F901FA01000000342D08BB
:1001E000B6002E08B700B801AA1FF8283617B703C3
:1001F000AA17290803199B297F302902031C5729B4
:10020000A900B9010430BA000310AC0DAB0DAA0D62
:10021000B80DBA0B0429043029020318172903303A
:100220002902031D91290A303802031C9129033049
:10023000A902B90A65220310AC0DAB0DAA0DB80DC9
:100240004E220230BA000310B80CAA0CAB0CAC0C56
:10025000BA0B232965220430BA000310AD0CAE0C92
:10026000AF0CB00CBA0B2D294E2265222F08B0001E
:100270002E08AF002D08AE00AD014E2265222E08DB
:10028000B0002D08AF00AD01AE014E22B8190B2908
:10029000A908031D5029AC0AAB0AAA0AB80A912979
:1002A0000310AC0DAB0DAA0DB80DA9030B29A909BC
:1002B000A90A7F30A907B9010430BA000310AC0DB8
:1002C000AB0DAA0DB80DBA0B5E290430A907053095
:1002D0002902031C9D2965220310AC0DAB0DAA0D4C
:1002E000B80D0310AC0DAB0DAA0DB80D4E220310C6
:1002F000AC0DAB0DAA0DB80DB90A0330BA0003104E
:10030000B80CAA0CAB0CAC0CBA0B7F290330A902B9
:10031000381E67290310B80CAA0CAB0CAC0CA9034F
:100320006729A909A90A0330A907390AB702031CDA
:10033000B70101309E2902309E290030B200B61B61
:10034000AC29B71BAC29B7080319AC2920300C1E07
:10035000A7299900B70BA629361FB2292D300C1EEC
:10036000AF299900B61FBF29B71BBF29B7080319CA
:10037000BF2930300C1EBA299900B70BB629B61325
:100380003613321CCA293908B2003908B400360ABB
:10039000B407F429B21CCE29360AB900B6080319ED
:1003A0004C2A2E300C1ED22999003908B500B5030D
:1003B00036083502031CDE293608B500B5080319D6
:1003C000E72930300C1EE2299900B50BE1293908E4
:1003D000BA00360ABA0203186E2AA903360AB40014
:1003E0003908B4023408B2003808B10029080319EA
:1003F000FE29B3000310B10CB30BFA29340803191A
:100400004C2A303031070C1E032A99003208031D94
:10041000102AB60803194C2A2E300C1E0D2A9900FA
:10042000B203B40303194C2A290803191C2AB30088
:100430000310B10DB30B182A3108B8023808AD000B
:100440002A08AE002B08AF002C08B0000310AC0D3A
:10045000AB0DAA0DB80D0310AC0DAB0DAA0DB80D68
:100460003008AC07031C392AAB0F392AAA0F392AE6
:10047000B80A2F08AB07031C402AAA0F402AB80A63
:100480002E08AA070318B80A2D08B8070310AC0DE8
:10049000AB0DAA0DB80DF42900006E2A3008AC0788
:1004A000031C572AAB0F572AAA0F572AB80A2F083E
:1004B000AB07031C5E2AAA0F5E2AB80A2E08AA07F9
:1004C0000318B80A2D08B80700343808AD002A0808
:1004D000AE002B08AF002C08B00000340000003440
:1004E0005A08E1005E08E106E11F7B2A03110310B0
:1004F000DA1B0314AE2A5A08E1005D08E20059082D
:10050000E2020319892AE11FAE2A0308013A830097
:10051000AE2A5E08E2005A08E2020319952AE11F9A
:10052000AE2A0308013A8300AE2A5F08E2005B08A6
:10053000E2020319A12AE11FAE2A0308013A83004F
:10054000AE2A6008E2005C08E2020319AD2AE11F4E
:10055000AE2A0308013A8300AE2A0310003480302B
:100560008318E206E701E8015E08E6006208E60695
:100570005D0803199D2BE500F70061080319A62B00
:10058000E5020319432B0318C62A022B6208EB006D
:10059000EB176308EA006408E900E8010310EB0CBC
:1005A000EA0CE90CE80CE50BCD2AE61FDA2A671401
:1005B000BA2B67106510671660308400D02B671265
:1005C000E61BEC2A651CF72AEB0CEA0CE90CE80C9C
:1005D000F70A0319B52BF72AEB1BFA2A0310E80DCB
:1005E000E90DEA0DEB0DF7030319B52BEC2A67179C
:1005F000622B67135E08E600DE1F002BEB17AE2BA5
:10060000EB13AE2B6108E500F7005D08E5025E081C
:10061000EB00EB175F08EA006008E900E80103104F
:10062000EB0CEA0CE90CE80CE50B0E2BE61F1B2B80
:10063000E714BA2BE7106510E71664308400D02B5E
:10064000E712E61B2D2B651C382BEB0CEA0CE90C92
:10065000E80CF70A0319B52B382BEB1B3B2B0310C7
:10066000E80DE90DEA0DEB0DF7030319B52B2D2B62
:10067000E717622BE7136208E600E21F412BEB1736
:10068000AE2BEB13AE2B6208EB00EB176308EA000E
:100690006408E900E61F502BEB136715BA2B6711AE
:1006A000E801651060308400D02BE61B782B5E08D3
:1006B000E600651C622BEB0CEA0CE90CE80CF70A6F
:1006C0000319B52BE81F732BE90A031D732BEA0AE4
:1006D000031D732BEB0A031D732BEB0CEA0CE90CC7
:1006E000F70A0319B52B671BF92AE71B3A2B972B3F
:1006F0008030EB06EB1F802BBA2B6208E6008D2BB7
:100700005E08E600EB08031D8D2BEA08031D8D2B08
:10071000E908031D8D2BF701AE2BEB1B972B031064
:10072000E80DE90DEA0DEB0DF70B8D2BB52BE61F50
:100730009B2BEB17AE2BEB13AE2B6108F700620877
:10074000EB006308EA006408E900AE2B5D08F700DF
:100750005E08EB005F08EA006008E9006B08F8003B
:100760006A08F9006908FA00EF2BF701F801F901AE
:10077000FA01EF2BE801E909EA09EB09E809E80ABF
:10078000031DC92BE90A031DC92BEA0A031DC92B46
:10079000EB0A6718D92AE7181A2B67194F2B7D2BFC
:1007A0000008E907031CDA2BEA0A031DDA2BEB0A1F
:1007B0000319651484030008EA07031CE22BEB0A03
:1007C0000319651484030008801BE72B803AEB07AC
:1007D00003186514671ADF2AE71A202B552B00002F
:1007E00000345D080319B72CE90061080319B72C20
:1007F000E9020318FC2B012C7F30E9070318B72C02
:10080000072C8130E902031CB72C0319B72C6908A7
:10081000F700F801F901FA01E8015E08E700E717BF
:100820005F08E6006008E5001930E9006408E502A9
:1008300003182A2C0130E60203182A2CE7020318B9
:100840002A2CE80203182A2CE80AE70AE60A6408B8
:10085000E5075C2C6308E6020318452C0130E7022B
:100860000318452CE8020318452CE80AE70A630838
:10087000E6076408E507031C5C2CE60A031D5C2CF4
:10088000E70A031D5C2CE80A5C2C62088038E7024A
:1008900003185B2C0130E80203185B2CE80A62089D
:1008A0008038E7076308E607031C392CE70A031DB5
:1008B000392CE80A392C7A14E90B5F2C6A2C0310C6
:1008C000E50DE60DE70DE80D0310FA0DF90DF80D35
:1008D000EA0D162C6A1C722C0310F80CF90CFA0C99
:1008E000EA0C752CF7030319B72CEA1B9E2C031096
:1008F000E50DE60DE70DE80D6408E50203188A2C06
:100900000130E60203188A2CE70203188A2CE80259
:10091000031CAD2C6308E6020318952C0130E70296
:100920000318952CE802031CAD2C62088038E702FE
:1009300003189E2C0130E802031CAD2CFA0A031D9B
:10094000AD2CF90A031DAD2CF80A031DAD2CF70AD6
:100950000319B72CF80CF90CFA0C5E08E9006208D0
:10096000E906E91FB52CF817BB2CF813BB2CF701CF
:10097000F801F901FA01000000348E30F7005C083C
:10098000F8005B08F900FA01DC1FCC2CF809F90922
:10099000F90A031DCC2CF80AF808031DD92C790894
:1009A000F800F9010830F702F808031DD92CF70107
:1009B000E32C0310F81BE02CF90DF80DF703D92CEC
:1009C000DC1BE32CF813000000344708CB0046087A
:1009D000CA004508C9004408C8004B08DC004A08A2
:1009E000DB004908DA004808D900E001DF01DE0138
:1009F0007F30DD00702203190B2F483084007E30D9
:100A0000800083144B08E0004A08DF004908DE003C
:100A10004808DD00E401E301E2017F30E100AF229C
:100A20007708D9007808DA007908DB007A08DC005A
:100A300083104B08E0004A08DF004908DE00480840
:100A4000DD00E401E301E2017F30E100AF225C0858
:100A5000E0005B08DF005A08DE005908DD007A0874
:100A6000E4007908E3007808E2007708E100F12368
:100A70007A08CB007908CA007808C9007708C8004E
:100A80004B08DC004A08DB004908DA004808D900B6
:100A90004B08E0004A08DF004908DE004808DD0096
:100AA00078207A08D7007908D6007808D50077082A
:100AB000D400BC30DC002430DB006730DA007D304D
:100AC000D9005708E0005608DF005508DE0054083A
:100AD000DD0078207708D9007808DA007908DB0093
:100AE0007A08DC0083107A08E0007908DF007808D3
:100AF000DE007708DD00E330E400E430E30090300E
:100B0000E2008230E100AF227A08CF007908CE00FF
:100B10007808CD007708CC004F08DC004E08DB00D9
:100B20004D08DA004C08D9005708E0005608DF00ED
:100B30005508DE005408DD0078207708D9007808D1
:100B4000DA007908DB007A08DC0083107A08E0001C
:100B50007908DF007808DE007708DD001C30E4004B
:100B60008730E3005730E2008330E100AF227A089B
:100B7000CF007908CE007808CD007708CC004F0868
:100B8000DC004E08DB004D08DA004C08D90057089D
:100B9000E0005608DF005508DE005408DD0078202C
:100BA0007708D9007808DA007908DB007A08DC00D9
:100BB00083107A08E0007908DF007808DE00770803
:100BC000DD00AB30E400E130E3009E30E200833032
:100BD000E100AF227A08CF007908CE007808CD0076
:100BE0007708CC00DC01DB01DA017F30D90057083F
:100BF000E0005608DF005508DE005408DD007820CC
:100C00007708D9007808DA007908DB007A08DC0078
:100C100083107A08E0007908DF007808DE007708A2
:100C2000DD00B430E4002A30E3008230E200E1006D
:100C3000AF227A08D3007908D2007808D10077086B
:100C4000D0005308DC005208DB005108DA005008DD
:100C5000D9005708E0005608DF005508DE005408A8
:100C6000DD0078207708D9007808DA007908DB0001
:100C70007A08DC0083107A08E0007908DF00780841
:100C8000DE007708DD008030E4003E30E30006300F
:100C9000E2008330E100AF227A08D3007908D20065
:100CA0007808D1007708D0005308DC005208DB0038
:100CB0005108DA005008D9005708E0005608DF0054
:100CC0005508DE005408DD0078207708D900780840
:100CD000DA007908DB007A08DC0083107A08E0008B
:100CE0007908DF007808DE007708DD00AB30E4002B
:100CF000E130E3009E30E2008230E100AF227A086A
:100D0000D3007908D2007808D1007708D0004B08CA
:100D1000DC004A08DB004908DA004808D9004F081F
:100D2000E0004E08DF004D08DE004C08DD007820B2
:100D30007708D9007808DA007908DB007A08DC0047
:100D4000E0007908DF007808DE007708DD0053084E
:100D5000E4005208E3005108E2005008E100F123EA
:100D60007A08CF007908CE007808CD007708CC004B
:100D7000443084007E300002D800D81BC02ED12E13
:100D80005808003CDC01DB00DB1BDC03BD247708DA
:100D9000D0007808803AD1007908D2007A08D300D0
:100DA000DF2EDC015808DB00DB1BDC03BD247A08E6
:100DB000D3007908D2007808D1007708D000530812
:100DC000DC005208DB005108DA005008D900183066
:100DD000E0007230DF003130DE007E30DD00782050
:100DE00083104F08E0004E08DF004D08DE004C087D
:100DF000DD007A08E4007908E3007808E20077086B
:100E0000E100AF227A08CF007908CE007808CD0043
:100E10007708CC000F2FCF01CE01CD01CC014C08BB
:100E2000F7004D08F8004E08F9004F08FA000034AA
:100E30008E30F7005708F7025808F9005908F800F3
:100E4000F917F70803192F2F0310F908031D2B2F8B
:100E5000F80803192F2FF90CF80CF70B242FD81FC3
:100E6000362FF809F909F80A0319F90A00008A155A
:100E70000A121D280408B000AA1F482F2D300C1E8E
:100E80003F2F99008403A909AA09A90A0319AA0AEC
:100E90002A0EF038AC00AC07E23EAD00323EAF00A7
:100EA0002A080F39AD07AD07AF07E93EAE00AE0720
:100EB000AE07290E0F39AE07AF07AE0DAF0DAF0964
:100EC000AF0D29080F39AF07AC0D0730AB000A3062
:100ED000AF07AE03031C682FAE07AD03031C6C2FD6
:100EE000AD07AC03031C702FAC07AB03031C742FBE
:100EF0002B3084000730300584072F30040203199B
:100F0000952F0008F700031D8B2F301A932FB0196F
:100F10008D2F20308E2F0830B0003030F707770843
:100F20000C1E902F9900840A7D2F0008F7003030A6
:100F3000F70777080C1E9A2F99008A150A12962B2C
:101000004808E0004708DF004608DE004508DD002C
:101010001830E4007230E3003130E2007E30E1004D
:101020008A11F1238A157A08DA007908D90078083C
:10103000D8007708D7008A11182F8A157808D500AC
:1010400056104808CC004708CB004608CA0045089F
:10105000C9004808DC004708DB004608DA004508FC
:10106000D900E001DF01DE01DD018A1170228A155D
:10107000031C3F285614D509D50A8030CA06D00172
:10108000CF01CE01CD014D3084007F305507800067
:101090004C08E0004B08DF004A08DE004908DD008C
:1010A0001830E4007230E3003130E2007E30E100BD
:1010B0008A11F1238A157708D7007808D8007908B3
:1010C000D9007A08DA00DC015508DB00DB1BDC0301
:1010D0008A11BD248A1583145A08E0005908DF00DC
:1010E0005808DE005708DD007A08E4007908E300BC
:1010F0007808E2007708E1008A11AF228A157A08A1
:10110000CC007908CB007808CA007708C9007C3089
:10111000DC008830DB005930DA007230D9004C082E
:10112000E0004B08DF004A08DE004908DD008A11B4
:1011300078208A157708D7007808D8007908D90070
:101140007A08DA0083105A08E0005908DF005808CE
:10115000DE005708DD00E030E4009730E300263081
:10116000E2007530E1008A11AF228A157A08D400B6
:101170007908D3007808D2007708D1005408DC0041
:101180005308DB005208DA005108D9004C08E0008F
:101190004B08DF004A08DE004908DD008A1178208C
:1011A0008A157708D7007808D8007908D9007A0816
:1011B000DA0083105A08E0005908DF005808DE0002
:1011C0005708DD00C430E4001D30E3001E30E200AB
:1011D0007830E1008A11AF228A157A08D4007908A4
:1011E000D3007808D2007708D1005408DC005308F7
:1011F000DB005208DA005108D9004C08E0004B0827
:10120000DF004A08DE004908DD008A1178208A15CF
:101210007708D7007808D8007908D9007A08DA006A
:1012200083105A08E0005908DF005808DE0057080C
:10123000DD005E30E4005030E3006330E2007A30DD
:10124000E1008A11AF228A157A08D4007908D30008
:101250007808D2007708D1005408DC005308DB007E
:101260005208DA005108D9004C08E0004B08DF00B2
:101270004A08DE004908DD008A1178208A157708BF
:10128000D7007808D8007908D9007A08DA008310E6
:101290005A08E0005908DF005808DE005708DD0052
:1012A0001A30E400FE30E3007530E2007C30E100EB
:1012B0008A11AF228A157A08D4007908D3007808F9
:1012C000D2007708D1005408DC005308DB00520834
:1012D000DA005108D9004C08E0004B08DF004A084A
:1012E000DE004908DD008A1178208A157708D700CA
:1012F0007808D8007908D9007A08DA0083105A08EB
:10130000E0005908DF005808DE005708DD001830FB
:10131000E4007230E3003130E2007E30E1008A11F7
:10132000AF228A157A08D4007908D3007808D20051
:101330007708D1004C08DC004B08DB004A08DA00D3
:101340004908D9005408E0005308DF005208DE00C5
:101350005108DD008A1178208A158310E001DF0131
:10136000DE017F30DD007A08E4007908E3007808C8
:10137000E2007708E1008A11AF228A155008DC00EC
:101380004F08DB004E08DA004D08D9007A08E0006B
:101390007908DF007808DE007708DD008A11782000
:1013A0008A157A08D0007908CF007808CE0077082F
:1013B000CD00561CF329E001DF01DE017F30DD00A6
:1013C0005008E4004F08E3004E08E2004D08E10039
:1013D0008A11F1238A157A08D0007908CF0078089D
:1013E000CE007708CD004D08F7004E08F8004F08F2
:1013F000F9005008FA0000342B08AF002A08AE00AC
:101400002908AD002808AC001330B300F230B20058
:101410009930B1007F30B0002F08BB002E08BA0011
:101420002D08B9002C08B8003308BF003208BE00F0
:101430003108BD003008BC00DC01DB01DA01D90154
:101440003B08E0003A08DF003908DE003808DD001C
:101450008A1170228A1503182F2A031D5F2A3B0860
:10146000C7003A08C6003908C5003808C4008A1108
:10147000E5248A153F08DC003E08DB003D08DA0061
:101480003C08D9007A08E0007908DF007808DE001F
:101490007708DD008A1178208A157708C00078085F
:1014A000C1007908C2007A08C300C8004208C7001A
:1014B0004108C6004008C5000020982A982A38082C
:1014C000C0003908803AC1003A08C2003B08C30096
:1014D000C7004208C6004108C5004008C4008A1180
:1014E000E5248A153F08DC003E08DB003D08DA00F1
:1014F0003C08D9007A08E0007908DF007808DE00AF
:101500007708DD008A1178208A157708C1007808ED
:10151000C2007908C3007A08C400C8004308C700A5
:101520004208C6004108C50000208030F806982A0D
:101530007A08B7007908B6007808B5007708B400D3
:101540003708DC003608DB003508DA003408D9003B
:101550008F30E000C230DF005930DE008330DD0024
:101560008A1178208A157A08B7007908B6007808B9
:10157000B5007708B4003408F7003508F8003608DD
:10158000F9003708FA008A150A12772B84011F30F8
:101590008305063083169F00073083129F00A00149
:1015A000813083169900263098009030831298007D
:1015B000FF30A100A201A301A401A501A601A7017A
:1015C000FF30831685008600803087008312A100DB
:1015D000FF308316880009148914091580309F0094
:1015E00083121F083839C1389F00A80128088A11C2
:1015F00004208A15A80AF70077080C1EFD2A990016
:1016000009302802031DF62A3830F8001F08C739B0
:1016100078049F00A1112108831687008312871583
:101620000430A800FA30A9008A1143288A15A80BB3
:10163000122BA111210883168700831287111F1511
:101640001F19202B83161E088312A2001E08A30058
:101650002308A9002208A8008A1158288A157A08A8
:10166000DC007908DB007808DA007708D9006830F8
:10167000E000E830DF001F30DE007730DD008A1147
:1016800078208A157A08A7007908A6007808A500AE
:101690007708A400A80128088A1112208A15A80A30
:1016A000F70077080C1E522B990007302802031D03
:1016B0004B2B2708AC002608AB002508AA002408FD
:1016C000A900B001AF010130AE000630AD008A11B3
:1016D000EF208A150A300C1E6B2B99002708AB00EF
:1016E0002608AA002508A9002408A800FC297A08D1
:1016F000A7007908A6007808A5007708A400A8012B
:1017000028088A1121208A15A80AF70077080C1EDC
:10171000872B990004302802031D802B1030840091
:101720002308AA002208A9008A113A2F8A150A3034
:101730000C1E982B9900A80128088A112E208A15C2
:10174000A80AF70077080C1EA32B99000C3028027A
:10175000031D9C2B2708AC002608AB002508AA0017
:101760002408A900B001AF010130AE000630AD0081
:101770008A11EF208A150A300C1EBC2B99000A3002
:0A1780000C1EC02B9900042B63001F
:02400E00723FFF
:00000001FF
;PIC16F877A
