:020000040000FA
:020000000528D1
:040002000034003492
:08000800080003138316803089
:100010008700850127308600880189010313831238
:100020008501880189010313831620309800203050
:1000300099000313831290309800031383125E20FB
:10004000533099005E20543099005E204130990071
:100050005E20523099005E20543099005E200714D3
:10006000031383128C1E322807108C120313831281
:100070001819472898184F28031383121A08A0004C
:100080005E20200899005E2020089900572803135D
:1000900083121A085E2046309900981C32280313F8
:1000A0008312181218165E204F309900322803135D
:1000B00083125E20200899001A0832280313831641
:0A00C000981C602803138312080047
:02400E00B23FBF
:00000001FF
