:1000000000308A005F280000FF00030E8301A1007A
:100010007F08A0000A08A8008A01A00E0408A20018
:100020007708A3007808A4007908A5007A08A6003C
:100030007B08A700831383128C308400001C2228C5
:100040000C183B288C308400001D28280C193D28F2
:10005000220884002308F7002408F8002508F90086
:100060002608FA002708FB0028088A00210E8300D2
:10007000FF0E7F0E09008A1143288A113F280513BD
:100080000C118A112828B1308F00E0308E0005173E
:100090000C108A1128282B308400000803195D28D1
:1000A0000230F800F701F70B5328F80B522897306D
:1000B000F700F70B5928800B50288A119D288401DE
:1000C0001F30830583161F08C0399F009B0107302E
:1000D00083129F00703083168F008312A901AA013A
:1000E000193065006600703083168F001F08C03914
:1000F0009F00FE309B001F139F1383121F08383987
:1001000081389F00953090000A309700B1308F0001
:10011000E0308E00B7309600BC30950083160C1589
:100120000C14C03083128B040030F8001F08C7394C
:1001300078049F003230AB004B281F151F199E28F2
:100140001E08AA01A900A90DAA0DA90DAA0DFC302F
:10015000A9052A08023C0318B828FF3A031DB42851
:100160002908E73C0318B8280330AA00E830A900A2
:10017000E8302907AB002A08AC000318AC0A0330AA
:10018000AC07E0302B0795002C0896000318960A60
:08019000B130960794286300CA
:02400E00903FE1
:00000001FF
;PIC16F88
