:020000040000FA
:0600000025EF01F01200E3
:020006000000F8
:08000800D9CFE6FFE1CFD9FFDB
:10001000D950FB0FE96EFF0EDA20EA6EEFCF00F049
:10002000EE06000EEFCF01F0EE5AEFCF02F0EE5ADF
:10003000EFCF03F0EF5A005001100210031006E05A
:10004000100EE66E05EC01F0E552E2D7E552E7CF7F
:10005000D9FF1200D9CFE6FFE1CFD9FFFD0EDBCFEC
:1000600000F0DB06FE0EDBCF01F001E2DB06005004
:10007000011006E0100EE66E33EC01F0E552EED70B
:10008000E552E7CFD9FF1200D388D38AD38C9B8C5B
:10009000670EE66EE66A2C0EE66EC0EC00F0E552E6
:1000A000E552E552926A936A946880688168E80E26
:1000B000E66E030EE66EE66AE66AA6DFE552E552F4
:1000C000E552E552806A816AE80EE66E030EE66E3E
:1000D000E66AE66A99DFE552E552E552E552E5D770
:0200E00012000C
:0E00E200060EF66E000EF76E000EF86E0F01A1
:1000F0000900F550056F0900F550066F03E105672B
:1001000001D03DD00900F550006F0900F550016F96
:100110000900F550026F09000900F550E96E090069
:10012000F550EA6E090009000900F550036F090057
:10013000F550046F09000900F6CF07FFF7CF08FF5D
:10014000F8CF09FF00CFF6FF01CFF7FF02CFF8FF8E
:100150000F01035302E1045307E00900F550EE6E6E
:100160000307F8E20407F9D707CFF6FF08CFF7FF38
:1001700009CFF8FF0F010507000E065BBFD712007D
:10018000D9CFE6FFDACFE6FFE1CFD9FFE2CFDAFF42
:10019000AC6AAB6AFD0EDBB0AC88DBA202D0AC8CE3
:1001A000AB8CDBB4AC8EDBA602D0AB8801D0AB8AC3
:1001B000DBB8AC849E98DBBAAB86DBAC02D09D8A00
:1001C00001D09D9A9E9ADBAE02D09D8801D09D9869
:1001D000FB0EDB50AF6EFB0EFC0EDBCF01F001C05F
:1001E00000F0016A0050B06EAC8AAB8E949C948E85
:1001F000AC50100B04E0AC50800B01E1948CE55244
:0A020000E5CFDAFFE7CFD9FF1200C7
:06020A00FF0EE350066E3A
:10021000480E01D04C0EE76EE72EFED7E76AE72EB8
:0A022000FED7062EF7D700001200EB
:06022A00600EF36E00EE11
:1002300000F00F0E01D81200EA6002D0EE6AFCD77F
:0A024000F350E9601200EE6AFCD7EB
:06024A001EEE00F02EEE96
:1002500000F0F86A059C71EC00F03EEC01F044EC13
:0602600000F0FBD71200C4
:0A026600FF0EE350E84E1200000006
:0C02700000D000D000D0E82EFAD7120019
:02027C0012006E
:020000040030CA
:0100010008F6
:0100020019E4
:0100030000FC
:010005008971
:010006008574
:010008000FE8
:01000900C036
:01000A000FE6
:01000B00E014
:01000C000FE4
:01000D0040B2
:00000001FF
