:020000040000FA
:06000000DEEF13F0120018
:0600080004EF08F01200F5
:060018000CEF08F01200DD
:06100000DEEF13F0120008
:0610080022EF11F01200BE
:0610180029EF11F01200A7
:06102A000100DA270000BE
:08103000B800000001000000FF
:08103800D9CFE6FFE1CFD9FF9B
:10104000E652A09A6A6A686A706A010EE66EE66AFB
:10105000E66A710EE66E0F0EE66EB4EC13F00B6EE0
:10106000050EE15E0B50160E6F6E9F0E6B6E7B0EC3
:10107000696EDF6ADF500B6E0C6A080E0B5C000EA7
:101080000C5810E2DF50040DF3CFE9FFF4CFEAFF74
:10109000000EE926040EEA22EE6AEE6AEE6AEE6AB5
:1010A000DF2AE8D76D8C6E6A6D986D9C68A607D0B4
:1010B00068960001736B786B796B7A6BF7D70001D8
:1010C000010E8A6F8B6F8C6B8D6B806BDF6A020EEB
:1010D000DF5C26E2EA6ADF34FE0BEA36E96E6B0E6D
:1010E000E926000EEA22EE6AED6AEA6ADF34FE0BB8
:1010F000EA36E96E670EE926000EEA22EE6AED6A2C
:10110000DF50EA6A840FE96E000EEA22EF6ADF50D0
:10111000EA6A860FE96E000EEA22EF6ADF2AD7D765
:101120000001080E6B6F040E6C6F160E706E0401DA
:10113000200E026F040E036F080E016F840E006F05
:101140000001616B606BE552E552E7CFD9FF1200F9
:10115000D9CFE6FFE1CFD9FFE652000160510FE1A0
:101160006D6A696A160E6F6E9F0E6B6E7B0E696EEE
:101170006DB602D06D86FCD70001010E606F600570
:1011800008E16DBA06D0686A696A69806988020EEA
:10119000606F6850040B05E06950040B02E068942E
:1011A000C5D86DB256D06850010B08E06950010BEC
:1011B00005E042DF0001040E606F68906850100B7C
:1011C00005E06950100B02E09CD8689868AC19D013
:1011D00069AC0FD0010EE66EE66A000EE66EE66AB6
:1011E000730EE66EE66A21EC12F00B6E060EE15EFF
:1011F0000B50689C0001885101E08807885101E18B
:1012000048DB6850200B04E06950200B01E060D8F7
:101210006850020B13E06950020B10E0010EE66EFD
:10122000E66A000EE66EE66AE6687F0EE66E21EC80
:1012300012F00B6E060EE15E0B506A6A040E00019E
:10124000E76E6019E8AE02D0E73402D0E750605D87
:1012500002E2A19A38D069A635D0DF6A040EDF5CBD
:1012600031E268A62FD06CCF81F000018151780B5C
:10127000E842E842E842826F689681B506D0825122
:10128000EA6A860FE96E000E05D08251EA6A840F81
:10129000E96E000EEA22EF70825102E15ED810D0B2
:1012A000000EE66EE66A810EE66E000EE66E720EC7
:1012B000E66EE66A21EC12F00B6E060EE15E0B5054
:1012C000DF2ACCD7A19AE552E552E7CFD9FF120029
:1012D00070A015D063C0E9FF64C0EAFFEF5080083A
:1012E0000DE16BC0E9FF6CC0EAFFEF50840806E136
:1012F00063C0E9FF64C0EAFF8C0EEF6E7090689ADD
:101300001200698468986D820001010E806F000EE2
:10131000E66EE66AE66EE66A750EE66EE66A21EC51
:1013200012F00B6E060EE15E0B5012000001806B96
:10133000000EE66EE66AE66EE66A740EE66EE66A31
:1013400021EC12F00B6E060EE15E0B506D9269946B
:1013500068A402D06894FCD71200D9CFE6FFE1CF91
:10136000D9FFE65200012D0E886FFD0E811553E165
:101370007E0E8115E8407F0B040DF3CF63F0F4CFB0
:1013800064F0000E6327040E642363C065F064C03C
:1013900066F0657563C0E9FF64C0EAFFEF503C0B7F
:1013A000E842E8420D0835E1DF6A080EDF5C23E21F
:1013B00063C0E9FF64C0EAFF020EE926000EEA22DC
:1013C000EE50EFCFEAFFE96EEF50E66EDF50EA6ACB
:1013D000200FE96E040EEA22E552E750EF6E63C07B
:1013E000E9FF64C0EAFF020EE926000EEA22EE2AB7
:1013F000EF22DF2ADAD763C0E9FF64C0EAFF020EFA
:10140000E926000EEA22200EEE6E040EED6E0DD8D7
:1014100007D03AD805D0FD0E8115040801E159D84E
:10142000E552E552E7CFD9FF120000016F6B896BDF
:101430008C6B8D6B836B706B6BC0E9FF6CC0EAFFCC
:10144000EF9E6B756BC0E9FF6CC0EAFFEF9E6B759A
:1014500065C0E9FF66C0EAFFEF9E736B746B756B46
:10146000786B796B7A6B8CD8000EE66EE66AE66E66
:10147000E66A030EE66EE66A21EC12F00B6E060ECB
:10148000E15E0B508FEF0DF0020E0001705D02E186
:101490004FEF0EF0706B83511AE165C0E9FF66C033
:1014A000EAFFEE52080EEF6E65C0E9FF66C0EAFF84
:1014B000020EE926000EEA22200EEE6E040EED6EFC
:1014C00065C0E9FF66C0EAFF8C0EEF6E1200836B09
:1014D0001200D9CFE6FFE1CFD9FFE6526BC0E9FF9A
:1014E0006CC0EAFFEF50400B01E0010EDF6E00011F
:1014F0006B75080E605D08E122C46EFF6E5002E05D
:10150000100E01D0040E606F700526E16BC0E9FF7C
:101510006CC0EAFF020EE926000EEA22280EEE6EEB
:10152000040EED6E5DDB020E00016F5D06E16BC027
:10153000E9FF6CC0EAFF840E0DD0DF5006E16BC0FE
:10154000E9FF6CC0EAFFC80E05D06BC0E9FF6CC0B4
:10155000EAFF880EEF6E0FD078AF0CD07B517C1174
:1015600007E005D07CC0FAFF00017B51F96EFADF7D
:101570000001789F706BE552E552E7CFD9FF12006A
:1015800004012051600BE842E842E842E842E842A8
:10159000000901E0120021510C0A50E00B0A3FE063
:1015A0000C0A31E0010A22E00B0A1EE0020A1CE0EC
:1015B000030A18E0080A10E0010A0CE00F0A08E02C
:1015C000030A01E012000001738F080E606F120021
:1015D000D8EF0CF0EEEF0EF00001610E716F000E0F
:1015E000726F0CD035EF0DF01FEF0BF0245100019E
:1015F000716F726B620E7127000E72237381010E80
:10160000746F738F12000001738F04012451EA6A12
:10161000620FE96E000EEA2222C4EFFF1200000EF4
:10162000E66EE66AE66EE66A020EE66EE66A21ECB1
:1016300012F00B6E060EE15E0B5012001200D9CFB5
:10164000E6FFE1CFD9FF030EE1260401220510E1F8
:1016500020511F0B00090CE10001738F030E0401E0
:10166000215D04E10001010E7F6F02D000017F6B5C
:101670000401225101E003D120511F0B020801E0B7
:10168000FED024510F0B000901E1F9D024510F0BBA
:10169000010801E2F4D0200E0001605D01E0EFD00E
:1016A000738F040124BF16D024510F0BE96EEA6A30
:1016B000D890E936EA36670EE926000EEA22EECF28
:1016C000DEFFEDCFDDFF24510F0BEA6A860FE96ED6
:1016D000000E15D024510F0BE96EEA6AD890E93656
:1016E000EA366B0EE926000EEA22EECFDEFFEDCFE2
:1016F000DDFF24510F0BEA6A840FE96E000EEA2227
:10170000020EEFCFDBFFD950020FE96EDACFEAFF0E
:10171000EF50010B03E1000EDF9401D0DF8424BF02
:101720000BD024510F0BE96EEA6AD890E936EA36FD
:10173000670EE926000E0AD024510F0BE96EEA6A03
:10174000D890E936EA366B0EE926000EEA22DECFA3
:10175000EEFFDDCFEDFF030E215D20E1DECFE9FFDF
:10176000DDCFEAFFEF50800B11E024BF07D02451FA
:101770000F0BEA6A860FE96E000E06D024510F0B9C
:10178000EA6A840FE96E000EEA22EF82840EDECF51
:10179000E9FFDDCFEAFFE850EF1271D0DF74DECF52
:1017A000E9FFDDCFEAFFEF50800B1BE0DECFE9FF62
:1017B000DDCFEAFFEF9EDECFE9FFDDCFEAFFEF8C62
:1017C000020EE66EE66ADECFE6FFDDCFE6FF050E2F
:1017D000E66EE66A21EC12F00B6E060EE15E0B502F
:1017E00005D0DECFE9FFDDCFEAFFEF8CDF74D95003
:1017F000020FE96EDACFEAFFEF50020B0EE1DECF07
:10180000E9FFDDCFEAFFEF50800B32E0DECFE9FFEA
:10181000DDCFEAFFEF50040B2BE1040124BF07D01A
:1018200024510F0BEA6A860FE96E000E06D0245190
:101830000F0BEA6A840FE96E000EEA22EF923B0E6C
:101840000B6EDECFE9FFDDCFEAFFE850EF16020EA8
:10185000E66EE66ADECFE6FFDDCFE6FF050EE66E5A
:10186000E66A21EC12F00B6E060EE15E0B5007D01B
:101870003B0EDECFE9FFDDCFEAFFE850EF16030EA7
:10188000E15C02E2E16AE552E16EE552E7CFD9FFA1
:10189000120000018A514DE1010E8A6F8B5149E11E
:1018A000010E8B6F020E705D0DE16BC0E9FF6CC025
:1018B000EAFFEE52EF6A6BC0E9FF6CC0EAFFC80EA8
:1018C000EF6E1200700535E1836B63C0E9FF64C001
:1018D000EAFFEE52080EEF6E63C0E9FF64C0EAFF54
:1018E000020EE926000EEA22200EEE6E040EED6EC8
:1018F00063C0E9FF64C0EAFF840EEF6E010E836FE0
:1019000065C0E9FF66C0EAFFEE52080EEF6E65C0E3
:10191000E9FF66C0EAFF020EE926000EEA22200E69
:10192000EE6E040EED6E65C0E9FF66C0EAFF800E44
:10193000EF6E120000018C6B8D6B020E705D18E172
:1019400065C0E9FF66C0EAFFEE52080EEF6E65C0A3
:10195000E9FF66C0EAFF020EE926000EEA22280E21
:10196000EE6E040EED6E65C0E9FF66C0EAFF1DD0A5
:1019700074510401265D000175510401275904E2E8
:1019800026C474F027C475F02BD96BC0E9FF6CC076
:10199000EAFF020EE926000EEA22280EEE6E040E81
:1019A000ED6E6BC0E9FF6CC0EAFFC80EEF6E12006F
:1019B000800E0401205D58E10001C00E736F040128
:1019C0002351030A2FE0010A09E0030A4BE1000159
:1019D000160E716F250E726F120E3ED02251F66EEA
:1019E000F76AD890F636F736F60EF626250EF72269
:1019F0000900F5CF71F00A00F5CF72F0020E000178
:101A0000F76A7125F66E7251F7220800F5CF74F06F
:101A1000030EF76A7125F66E7251F7220800F5CFB2
:101A200075F01200030E225D1AE22251F66EF76A7B
:101A3000D890F636F736F80EF626250EF72209006E
:101A4000F5CF71F00A00F5CF72F071C0F6FF72C0E9
:101A5000F7FF0800F5500001746F756B120000016C
:101A6000736B12000001736B1200D9CFE6FFE1CF58
:101A7000D9FF020EE1260401286B296B20511F0BB0
:101A8000020A11E0030A0CE0010A35E10001738F3C
:101A90000401288100017F052EE1040128832BD059
:101AA0000001738F28D00001738F040124BF0BD075
:101AB00024510F0BE96EEA6AD890E936EA36670ED0
:101AC000E926000E0AD024510F0BE96EEA6AD8907D
:101AD000E936EA366B0EE926000EEA22EECFDEFF8B
:101AE000EDCFDDFFDECFE9FFDDCFEAFFEF50040BE6
:101AF00002E0010E286F000173AF07D0280E716F4E
:101B0000040E726F7381020E746F020EE15C02E2CA
:101B1000E16AE552E16EE552E7CFD9FF12006D9818
:101B2000000173BF2BD078AF09D0020E706F8D51BA
:101B300001E100DF00018B6B8A6B120065C0E9FFD9
:101B400066C0EAFFEE52080EEF6E65C0E9FF66C0A0
:101B5000EAFF020EE926000EEA22200EEE6E040EC7
:101B6000ED6E65C0E9FF66C0EAFF8C0EEF6E6BC0DC
:101B7000E9FF6CC0EAFF840EEF6E1200040120AF93
:101B80000DD00001010E706F8C5101E1D3DE000118
:101B90008B6B8A6B895123E149EF0CF00001020E37
:101BA000706F65C0E9FF66C0EAFFEE52080EEF6E87
:101BB00065C0E9FF66C0EAFF020EE926000EEA22D0
:101BC000200EEE6E040EED6E65C0E9FF66C0EAFF02
:101BD000840EEF6E8B6B8A6B895101E15ADE120025
:101BE000D9CFE6FFE1CFD9FFE652080EDF6E000144
:101BF000745D000E75590AE274C0DFFF6F5102E197
:101C0000010E03D06F0502E1020E6F6FDF500C6A08
:101C1000E850745D746F0C507559756F6BC0E9FFB7
:101C20006CC0EAFFEE52DFCFEFFF280E7D6F040E8F
:101C30007E6F73B118D0DF502DE071C0F6FF72C017
:101C4000F7FF712B000E72230800F550E66E7DC081
:101C5000E9FF7EC0EAFF7D2B000E7E23E552E750B0
:101C6000EF6EDF06E8D7DF5015E071C0E9FF72C004
:101C7000EAFF712B000E7223EF50E66E7DC0E9FF84
:101C80007EC0EAFF7D2B000E7E23E552E750EF6E0B
:101C9000DF06E9D7E552E552E7CFD9FF1200D9CFE9
:101CA000E6FFE1CFD9FF020EE12663C0E9FF64C081
:101CB000EAFFEE52EFCFDFFFDFCF0BF00B5000015A
:101CC000795D000E7A5902E279C0DFFFDF500B6EBA
:101CD0000C6AE850795D796F0C507A597A6F010E71
:101CE000DB6ADF50F36E010EDBCFF4FFF350F45CE0
:101CF00016E2010EDB50EA6A280FE96E040EEA22B2
:101D0000EF50E66E76C0E9FF77C0EAFF762B000E53
:101D10007723E552E750EF6E010EDB2AE2D7000E83
:101D2000D8807955000E7A5527E265C0E9FF66C074
:101D3000EAFFEE52080EEF6E65C0E9FF66C0EAFFEB
:101D4000020EE926000EEA22280EEE6E040EED6E5B
:101D500063C0E9FF64C0EAFFEF50400B06E165C0D5
:101D6000E9FF66C0EAFFC80E05D065C0E9FF66C09E
:101D7000EAFF880EEF6E28D065C0E9FF66C0EAFF73
:101D8000EE52080EEF6E65C0E9FF66C0EAFF020E74
:101D9000E926000EEA22200EEE6E040EED6E65C0FE
:101DA000E9FF66C0EAFF840EEF6E7B517C1107E00D
:101DB00005D07CC0FAFF00017B51F96EFADF00010B
:101DC000789F895101E165DD020EE15C02E2E16A82
:101DD000E552E16EE552E7CFD9FF1200D9CFE6FF19
:101DE000E1CFD9FFE6520001738F010EE66EE66A7D
:101DF000E66A710EE66E0F0EE66EB4EC13F00B6E33
:101E0000050EE15E0B50DF6ADF500B6E0C6A080EA8
:101E10000B5C000E0C5810E2DF50040DF3CFE9FF0D
:101E2000F4CFEAFF000EE926040EEA22EE6AEE6A1B
:101E3000EE6AEE6ADF2AE8D76D8C010EE66EE66A7E
:101E4000E66A620EE66E000EE66EB4EC13F00B6E00
:101E5000050EE15E0B506D9C0001080E6B6F040EC9
:101E60006C6F000E636F040E646F63C065F0666F85
:101E700022C461F0615102E1100E12D0010EE66E33
:101E8000E66A610EE66E000EE66E010EE66EE66A2A
:101E900021EC12F00B6E060EE15E0B500001200EDD
:101EA000606FE552E552E7CFD9FF1200D9CFE6FFC8
:101EB000E1CFD9FF020EE126000EDE6E040EDD6ECC
:101EC000FD0EDB50E8240D6EFE0EDB50040DF350CA
:101ED0000D24040DF4CF0CF0D9CFE9FFDACFEAFFDF
:101EE000F350EE260C50ED22DECFE9FFDDCFEAFF06
:101EF000EF9EFD0EDB500AE1FE0EEA6ADB34FE0BBC
:101F0000EA36E96E670EE926000E09D0FE0EEA6A8F
:101F1000DB34FE0BEA36E96E6B0EE926000EEA2290
:101F2000DECFEEFFDDCFEDFFDECFE9FFDDCFEAFF55
:101F3000EF9CDECFE9FFDDCFEAFF040EE926000EBD
:101F4000EA22EF8C020EE15C02E2E16AE552E16E08
:101F5000E552E7CFD9FF1200D9CFE6FFE1CFD9FF95
:101F6000020EE126FD0EDBA407D0E66AFE0EDBCFF3
:101F7000E6FF9CDFE552E552FD0EDBA208D0010E24
:101F8000E66EFE0EDBCFE6FF91DFE552E552FE0E78
:101F9000DB500C6A700F0B6E0F0E0C220BC0DEFFB5
:101FA0000CC0DDFFDECFE9FFDDCFEAFFFD0EDBCFAA
:101FB000EFFF020EE15C02E2E16AE552E16EE552FA
:101FC000E7CFD9FF1200D9CFE6FFE1CFD9FF020E4C
:101FD000E126FE0EDB5020E165C0E9FF66C0EAFFA6
:101FE000EE52080EEF6E65C0E9FF66C0EAFF020E12
:101FF000E926000EEA22200EEE6E040EED6E65C09C
:10200000E9FF66C0EAFF8C0EEF6E6BC0E9FF6CC0A3
:10201000EAFF840EEF6E3BD0FD0EDB50E8240D6E20
:10202000FE0EDB50040DF3500D24040DF3CF0BF026
:10203000F4CF0CF0000E0B26040E0C220BC0DEFFBA
:102040000CC0DDFF840EDECFE9FFDDCFEAFFE850F4
:10205000EF12FD0EDB50E8240D6EFE0EDB50040D7A
:10206000F3500D24010F040DF3CF0BF0F4CF0CF05F
:10207000000E0B26040E0C220BC0DEFF0CC0DDFF91
:10208000840EDECFE9FFDDCFEAFFE850EF12020E4B
:10209000E15C02E2E16AE552E16EE552E7CFD9FF89
:1020A0001200D9CFE6FFE1CFD9FF020EE126FD0EE7
:1020B000DB500AE0FE0EEA6ADB34FE0BEA36E96E1C
:1020C0006B0EE926000E09D0FE0EEA6ADB34FE0B29
:1020D000EA36E96E670EE926000EEA22EECFDEFF51
:1020E000EDCFDDFFD9CFE9FFDACFEAFFEE50ED10FB
:1020F00003E1F36AF46A44D0DECFE9FFDDCFEAFF03
:10210000020EE926000EEA22FB0EDBCFEEFFFC0EEC
:10211000DBCFEDFFDECFE9FFDDCFEAFFEE52FA0EB7
:10212000DBCFEFFF400EDECFE9FFDDCFEAFFE85067
:10213000EF16880EDECFE9FFDDCFEAFFE850EF12A1
:10214000FD0EDB500AE0FE0EEA6ADB34FE0BEA36D7
:10215000E96E6B0EE926000E09D0FE0EEA6ADB344A
:10216000FE0BEA36E96E670EE926000EEA22EF74EE
:10217000DECF0BF0DDCF0CF00BC0F3FF0CC0F4FF93
:10218000020EE15C02E2E16AE552E16EE552E7CF60
:10219000D9FF1200D9CFE6FFE1CFD9FF6DA84ED00D
:1021A000FE0EEA6ADB34FE0BEA36E96E6B0EE926B8
:1021B000000EEA22EE50EFCFEAFFE96E400EEE1677
:1021C000EE6AEE6AEE6AFE0EEA6ADB34FE0BEA366F
:1021D000E96E6B0EE926000EEA22EE50EFCFEAFF21
:1021E000E96EEE7CFE0EEA6ADB34FE0BEA36E96E3F
:1021F0006B0EE926000EEA22EF74400E0B6EFE0E07
:10220000EA6ADB34FE0BEA36E96E6B0EE926000E55
:10221000EA22EE50EFCFEAFFE96E0B50EF16FE0E0A
:10222000EA6ADB34FE0BEA36E96E6B0EE926000E35
:10223000EA22EE50EFCFEAFFE96EEF7CE552E7CFFE
:04224000D9FF1200B0
:0C224400DACFE4FFE652E552E5CFDAFF06
:102250001100D8CFE4FFE0CFE4FFE46EDACFE4FF73
:10226000E652E552E5CFDAFFE550E5CFE0FFE5CFF6
:10227000D8FF100004D8A8EC08F018D8FCD70F0E2F
:10228000C11202D81CEF08F09388938A8150100B7A
:1022900001E0010E00018E6F8150200B01E0010E64
:1022A0008F6FA06BA16BA26BA36B1200200E0001BD
:1022B000E76E6019E8AE02D0E73402D0E750605D07
:1022C00005E36D50020B01E0120001D8120000017D
:1022D000A051A11102E1000E08D0A0C0E9FFA1C0E9
:1022E000EAFFEF50800B01E0010E000946E155D8EE
:1022F000000927E00401316B326B0001B851B82BA3
:102300000401336F346B356B366B376B386B080EEB
:10231000E66E310EE66E040EE66E010EE66EE66EB9
:1023200051EC10F00B6E050EE15E0B50F3CFA0F0F8
:10233000F4CFA1F0280E0001B85D1FE1040EB86FC4
:1023400012000401316B326B336B346B356B366BBF
:10235000376B386B080EE66E310EE66E040EE66ED5
:10236000010EE66EE66E51EC10F00B6E050EE15EAE
:102370000B50F3CFA0F0F4CFA1F012008150100B5E
:1023800001E0010E00018E5D07E08150100B01E0BD
:10239000010E8E6F81A8010C000C8150200B01E012
:1023A000010E00018F5D07E08150200B01E0010E5E
:1023B0008F6F81AA010C000C120012001200120093
:1023C000FFEF12F012001E0EE66E010EE66EACEC90
:1023D0000FF0E552E552010EE66E300EE66E040E89
:1023E000E66EE66A010EE66E51EC10F00B6E050E1D
:1023F000E15E0B50F3CFA2F0F4CFA3F01200000186
:102400007F051EE1000180051BE1D7DF6D92000111
:10241000806B0001100EAA6F0E0EAB6FAA07000EA4
:10242000AB5BAA51AB11FAE16D84080EAA6F070EDF
:10243000AB6FAA07000EAB5BAA51AB11FAE16D942A
:102440001200D9CFE6FFE1CFD9FFFD0EDBCF06F0BA
:10245000FE0EDBCF07F0050E061801E1075036E04F
:10246000E868061802E17F0E07182FE0030E061831
:1024700001E1075028E0020E061801E1075021E0B3
:10248000010E061801E107501AE0740E061801E16A
:10249000075013E0750E061801E107500CE0730EAB
:1024A000061801E1075005E0720E06180FE107500B
:1024B0000DD084DF0BD080DF09D07FDF07D083DF32
:1024C00005D080DF03D07CDF01D079DF010EE5523B
:1024D000E7CFD9FF12000001280E766F040E776F48
:1024E000080E796F7A6BF20E7B6F240E7C6F788FFB
:1024F0001200040128A103D08C808C8202D08C9021
:102500008C920001A56BE00EA66F220EA76F020E43
:06251000A86FA96B120088
:0A2516001201000200000008D804C2
:10252000550001000102000109022900010100C05B
:102530003209040000020301010009211101000118
:10254000223F000705810308000107050103080079
:10255000010403090434034D006900630072006F35
:10256000006300680069007000200054006500638B
:102570000068006E006F006C006F0067007900203B
:102580000049006E0063002E002E034B00650079A9
:102590000062006F0061007200640020004400656A
:1025A000006D006F0000000000000000000000004F
:1025B0000000000000000005010906A1010507193F
:1025C000E029E7150025017501950881029501753F
:1025D00008810395057501050819012905910295E2
:1025E0000175039103950675081500256505071902
:0E25F0000029658100C0282551255525892523
:0225FE000401D6
:1026000020511F0B010801E01200245101E01200CB
:10261000060E215D1EE12351230A1BE0010A0CE096
:10262000030A17E10001610514E100013A0E716F20
:10263000250E726F090E09D0000161050AE1000143
:10264000B70E716F250E726F3F0E746F756BC00EF3
:10265000736F04012051600BE842E842E842E8420F
:10266000E842010801E0120021510B0A28E0080AA3
:102670001BE0090A13E0080A07E00B0A03E0080A56
:1026800023E012006BEF12F00001B60E716F000E26
:10269000726F010E746F756BC10E0FD00001800E4A
:1026A000736F23C4B6F012000001B70E716F000EF5
:1026B000726F010E746F756B810E736F12000001E3
:0A26C000800E736F22C4B7F0120001
:0626CA002A0EF66E100E50
:1026D000F76E000EF86E00010900F550B16F0900A9
:1026E000F550B26F03E1B16701D03DD00900F5505C
:1026F000AC6F0900F550AD6F0900F550AE6F0900E1
:102700000900F550E96E0900F550EA6E090009006C
:102710000900F550AF6F0900F550B06F09000900CE
:10272000F6CFB3F0F7CFB4F0F8CFB5F0ACC0F6FF0A
:10273000ADC0F7FFAEC0F8FF0001AF5302E1B053E8
:1027400007E00900F550EE6EAF07F8E2B007F9D7E1
:10275000B3C0F6FFB4C0F7FFB5C0F8FF0001B10782
:08276000000EB25BBFD71200AE
:08276800FE0EE3CFE9FFFF0EB6
:10277000E3CFEAFFE9CFF3FFEACFF4FFFB0EE3502C
:1027800003E1FC0EE35009E0FB0EE30602E2FC0E5F
:0C279000E306FD0EE350EE6EF1D71200E0
:04279C00000EF36ECA
:1027A00000EE00F0080E01D81200EA6002D0EE6AD6
:0C27B000FCD7F350E9601200EE6AFCD781
:0427BC0013EE00F028
:1027C00023EE00F0F86A0A9C65EC13F0ECEC13F0D1
:0827D0003AEC11F0FBD71200F6
:0227D8001200ED
:0127DA0004FA
:020000040030CA
:0100000024DB
:010001000EF0
:010002003FBE
:010003001EDE
:010005008179
:010006008178
:010008000FE8
:01000900C036
:01000A000FE6
:01000B00E014
:01000C000FE4
:01000D0040B2
:00000001FF
